HTTPs NO BODY

Connection: 192.168.0.168:56283
network: 192.168.0.0
IN SAME SUBNET. 
No certificates.
size:: -1bytes size:107
USER:  
POST / HTTP/1.1
Host: 192.168.0.153:10000
User-Agent: curl/7.43.0
Accept: */*
Content-Type:text/xml



AUTH CODE:!!!
Wenxiao
1:HTTP/1.1 401 Unauthorized


2:
!!!!ENDCALL!!!
17:22:45.987248 IP (tos 0x0, ttl 63, id 62821, offset 0, flags [DF], proto TCP (6), length 64)
    192.168.0.168.56283 > 192.168.0.153.10000: Flags [S], cksum 0x91e6 (correct), seq 3325774171, win 65535, options [mss 1460,nop,wscale 5,nop,nop,TS val 3038534373 ecr 0,sackOK,eol], length 0
	0x0000:  944a 0c21 4719 586d 8ff9 0627 8100 0002  .J.!G.Xm...'....
	0x0010:  0800 4500 0040 f565 4000 3f06 c3c0 c0a8  ..E..@.e@.?.....
	0x0020:  00a8 c0a8 0099 dbdb 2710 c63b 495b 0000  ........'..;I[..
	0x0030:  0000 b002 ffff 91e6 0000 0204 05b4 0103  ................
	0x0040:  0305 0101 080a b51c 5ae5 0000 0000 0402  ........Z.......
	0x0050:  0000                                     ..
17:22:45.987427 IP (tos 0x0, ttl 64, id 0, offset 0, flags [DF], proto TCP (6), length 60)
    192.168.0.153.10000 > 192.168.0.168.56283: Flags [S.], cksum 0x82c0 (incorrect -> 0x19f9), seq 2985697861, ack 3325774172, win 14480, options [mss 1460,sackOK,TS val 2849770 ecr 3038534373,nop,wscale 5], length 0
	0x0000:  586d 8ff9 0627 944a 0c21 4719 8100 0002  Xm...'.J.!G.....
	0x0010:  0800 4500 003c 0000 4000 4006 b82a c0a8  ..E..<..@.@..*..
	0x0020:  0099 c0a8 00a8 2710 dbdb b1f6 2245 c63b  ......'....."E.;
	0x0030:  495c a012 3890 82c0 0000 0204 05b4 0402  I\..8...........
	0x0040:  080a 002b 7bea b51c 5ae5 0103 0305       ...+{...Z.....
17:22:45.988622 IP (tos 0x0, ttl 63, id 30191, offset 0, flags [DF], proto TCP (6), length 52)
    192.168.0.168.56283 > 192.168.0.153.10000: Flags [.], cksum 0x713c (correct), seq 3325774172, ack 2985697862, win 4117, options [nop,nop,TS val 3038534375 ecr 2849770], length 0
	0x0000:  944a 0c21 4719 586d 8ff9 0627 8100 0002  .J.!G.Xm...'....
	0x0010:  0800 4500 0034 75ef 4000 3f06 4343 c0a8  ..E..4u.@.?.CC..
	0x0020:  00a8 c0a8 0099 dbdb 2710 c63b 495c b1f6  ........'..;I\..
	0x0030:  2246 8010 1015 713c 0000 0101 080a b51c  "F....q<........
	0x0040:  5ae7 002b 7bea                           Z..+{.
17:22:45.994001 IP (tos 0x0, ttl 63, id 20686, offset 0, flags [DF], proto TCP (6), length 261)
    192.168.0.168.56283 > 192.168.0.153.10000: Flags [P.], cksum 0x75bb (correct), seq 3325774172:3325774381, ack 2985697862, win 4117, options [nop,nop,TS val 3038534380 ecr 2849770], length 209
	0x0000:  944a 0c21 4719 586d 8ff9 0627 8100 0002  .J.!G.Xm...'....
	0x0010:  0800 4500 0105 50ce 4000 3f06 6793 c0a8  ..E...P.@.?.g...
	0x0020:  00a8 c0a8 0099 dbdb 2710 c63b 495c b1f6  ........'..;I\..
	0x0030:  2246 8018 1015 75bb 0000 0101 080a b51c  "F....u.........
	0x0040:  5aec 002b 7bea 1603 0100 cc01 0000 c803  Z..+{...........
	0x0050:  0358 1b88 3aed d550 a4ae fe79 5b05 c22f  .X..:..P...y[../
	0x0060:  f63b 901c 4e1f 2b18 4411 7e4b 55cc ed67  .;..N.+.D.~KU..g
	0x0070:  2200 006e 00ff c02c c02b c024 c023 c00a  "..n...,.+.$.#..
	0x0080:  c009 c008 c030 c02f c028 c027 c014 c013  .....0./.(.'....
	0x0090:  c012 c02e c02d c026 c025 c005 c004 c003  .....-.&.%......
	0x00a0:  c032 c031 c02a c029 c00f c00e c00d 009f  .2.1.*.)........
	0x00b0:  009e 006b 0067 0039 0033 0016 009d 009c  ...k.g.9.3......
	0x00c0:  003d 003c 0035 002f 000a c007 c011 c002  .=.<.5./........
	0x00d0:  c00c 0005 0004 00af 00ae 008d 008c 008a  ................
	0x00e0:  008b 0100 0031 000a 0008 0006 0017 0018  .....1..........
	0x00f0:  0019 000b 0002 0100 000d 000e 000c 0501  ................
	0x0100:  0401 0201 0503 0403 0203 0005 0005 0100  ................
	0x0110:  0000 0000 1200 00                        .......
17:22:45.994416 IP (tos 0x0, ttl 64, id 22956, offset 0, flags [DF], proto TCP (6), length 52)
    192.168.0.153.10000 > 192.168.0.168.56283: Flags [.], cksum 0x82b8 (incorrect -> 0x7e93), seq 2985697862, ack 3325774381, win 486, options [nop,nop,TS val 2849772 ecr 3038534380], length 0
	0x0000:  586d 8ff9 0627 944a 0c21 4719 8100 0002  Xm...'.J.!G.....
	0x0010:  0800 4500 0034 59ac 4000 4006 5e86 c0a8  ..E..4Y.@.@.^...
	0x0020:  0099 c0a8 00a8 2710 dbdb b1f6 2246 c63b  ......'....."F.;
	0x0030:  4a2d 8010 01e6 82b8 0000 0101 080a 002b  J-.............+
	0x0040:  7bec b51c 5aec                           {...Z.
17:22:45.995365 IP (tos 0x0, ttl 64, id 22957, offset 0, flags [DF], proto TCP (6), length 968)
    192.168.0.153.10000 > 192.168.0.168.56283: Flags [P.], cksum 0x864c (incorrect -> 0xbe4e), seq 2985697862:2985698778, ack 3325774381, win 486, options [nop,nop,TS val 2849772 ecr 3038534380], length 916
	0x0000:  586d 8ff9 0627 944a 0c21 4719 8100 0002  Xm...'.J.!G.....
	0x0010:  0800 4500 03c8 59ad 4000 4006 5af1 c0a8  ..E...Y.@.@.Z...
	0x0020:  0099 c0a8 00a8 2710 dbdb b1f6 2246 c63b  ......'....."F.;
	0x0030:  4a2d 8018 01e6 864c 0000 0101 080a 002b  J-.....L.......+
	0x0040:  7bec b51c 5aec 1603 0300 5102 0000 4d03  {...Z.....Q...M.
	0x0050:  03d5 0681 0be5 9197 575a 3138 d566 a54f  ........WZ18.f.O
	0x0060:  b73c 937b a49e 0185 a160 1db5 6494 3609  .<.{.....`..d.6.
	0x0070:  2c20 1c58 5382 095a be71 3e1c d1f9 ffc1  ,..XS..Z.q>.....
	0x0080:  dad3 c15c d6a6 2d3c b238 f47d be2b 22d9  ...\..-<.8.}.+".
	0x0090:  07cd 009d 0000 05ff 0100 0100 1603 0303  ................
	0x00a0:  300b 0003 2c00 0329 0003 2630 8203 2230  0...,..)..&0.."0
	0x00b0:  8202 0a02 0900 f0c4 fa58 1574 6073 300d  .........X.t`s0.
	0x00c0:  0609 2a86 4886 f70d 0101 0b05 0030 4731  ..*.H........0G1
	0x00d0:  0b30 0906 0355 0406 1302 5553 3113 3011  .0...U....US1.0.
	0x00e0:  0603 5504 080c 0a4e 6577 204a 6572 7365  ..U....New.Jerse
	0x00f0:  7931 0f30 0d06 0355 0407 0c06 4e65 7761  y1.0...U....Newa
	0x0100:  726b 3112 3010 0603 5504 0a0c 0950 616e  rk1.0...U....Pan
	0x0110:  6173 6f6e 6963 301e 170d 3136 3131 3031  asonic0...161101
	0x0120:  3136 3133 3138 5a17 0d32 3631 3033 3031  161318Z..2610301
	0x0130:  3631 3331 385a 305f 310b 3009 0603 5504  61318Z0_1.0...U.
	0x0140:  0613 0255 5331 1330 1106 0355 0408 0c0a  ...US1.0...U....
	0x0150:  4e65 7720 4a65 7273 6579 310f 300d 0603  New.Jersey1.0...
	0x0160:  5504 070c 064e 6577 6172 6b31 1230 1006  U....Newark1.0..
	0x0170:  0355 040a 0c09 5061 6e61 736f 6e69 6331  .U....Panasonic1
	0x0180:  1630 1406 0355 0403 0c0d 3139 322e 3136  .0...U....192.16
	0x0190:  382e 302e 3135 3330 8201 2230 0d06 092a  8.0.1530.."0...*
	0x01a0:  8648 86f7 0d01 0101 0500 0382 010f 0030  .H.............0
	0x01b0:  8201 0a02 8201 0100 a1a8 e7ab 0a90 d5ce  ................
	0x01c0:  7a4c 4aa8 c62f f78b 8f14 3038 7544 7128  zLJ../....08uDq(
	0x01d0:  e8ad 3f99 efd6 c5d1 13cd 5110 f2d5 9ee7  ..?.......Q.....
	0x01e0:  b30d 02fb 2d1c 954f 9069 84f6 7257 5f79  ....-..O.i..rW_y
	0x01f0:  cc9a 183f c2be ada8 0dab e407 316d 0240  ...?........1m.@
	0x0200:  a7ed 529b c5d0 e7a4 0469 8243 074a 9a47  ..R......i.C.J.G
	0x0210:  416d ed9a e8d7 3c3b 6b18 6ae0 346e d747  Am....<;k.j.4n.G
	0x0220:  0b86 2a54 a496 6ea2 117b 0376 e304 349c  ..*T..n..{.v..4.
	0x0230:  2d30 ba1f 6bb8 c016 be37 f4e8 8a35 b18d  -0..k....7...5..
	0x0240:  7228 2dbc 11e0 4426 8065 0b8b 9aa7 e303  r(-...D&.e......
	0x0250:  738d 3842 1ecb 3ca0 6120 9721 266c b9dc  s.8B..<.a..!&l..
	0x0260:  cea4 ee29 1c99 9713 4da3 baf1 cd1f c1cf  ...)....M.......
	0x0270:  5942 07ac b3fd 5694 d87e 30f8 cd1a e4eb  YB....V..~0.....
	0x0280:  aa86 62c8 f5c4 e1ca 0538 bafe fc2a bf70  ..b......8...*.p
	0x0290:  7039 40b4 9c57 babb fd1d f77b b586 4bba  p9@..W.....{..K.
	0x02a0:  3b81 9e9f 7dde 955f c477 cc06 196c d148  ;...}.._.w...l.H
	0x02b0:  094d e403 178e 69d9 0203 0100 0130 0d06  .M....i......0..
	0x02c0:  092a 8648 86f7 0d01 010b 0500 0382 0101  .*.H............
	0x02d0:  0038 f1b9 c45d 3427 750e 556d 19db 8571  .8...]4'u.Um...q
	0x02e0:  0a2c 3aab 978b 3c49 b417 d0a9 fed2 fa61  .,:...<I.......a
	0x02f0:  2f34 89a1 3cce 524c 175f 6ff9 3151 aa31  /4..<.RL._o.1Q.1
	0x0300:  5c38 f60b c0e4 d82c 18db 37e2 ea29 8f5a  \8.....,..7..).Z
	0x0310:  8023 9202 49e5 0439 4907 f68c dcfc 9438  .#..I..9I......8
	0x0320:  1976 91f9 abab ff9b 0ad8 05d9 248e 64f9  .v..........$.d.
	0x0330:  a89b e955 92e6 afc1 030a ee1d 8586 7310  ...U..........s.
	0x0340:  2cdf e03e 05d8 0939 c302 d658 8189 a99c  ,..>...9...X....
	0x0350:  c5bf 2662 fe37 2d80 1289 dc1c 661f 720a  ..&b.7-.....f.r.
	0x0360:  f8db fd16 2591 62be 99d1 ce12 81ea 2545  ....%.b.......%E
	0x0370:  b8c4 5309 9ae2 b261 682a c992 32b7 3ced  ..S....ah*..2.<.
	0x0380:  c5f9 53b6 6ffa 2385 f205 0fca 7da9 84e9  ..S.o.#.....}...
	0x0390:  f404 7385 65c2 7913 dd22 1a7e 67b3 ccb5  ..s.e.y..".~g...
	0x03a0:  bb28 7c16 20d5 9ecf 1f58 bc80 91e2 20f1  .(|......X......
	0x03b0:  34f1 87f4 1d6a a6ad e593 361e c70a 040e  4....j....6.....
	0x03c0:  1f0d 6ba2 b4ce 6146 6fca e123 624e 597f  ..k...aFo..#bNY.
	0x03d0:  9f16 0303 0004 0e00 0000                 ..........
17:22:45.996819 IP (tos 0x0, ttl 63, id 31731, offset 0, flags [DF], proto TCP (6), length 52)
    192.168.0.168.56283 > 192.168.0.153.10000: Flags [.], cksum 0x6cea (correct), seq 3325774381, ack 2985698778, win 4089, options [nop,nop,TS val 3038534382 ecr 2849772], length 0
	0x0000:  944a 0c21 4719 586d 8ff9 0627 8100 0002  .J.!G.Xm...'....
	0x0010:  0800 4500 0034 7bf3 4000 3f06 3d3f c0a8  ..E..4{.@.?.=?..
	0x0020:  00a8 c0a8 0099 dbdb 2710 c63b 4a2d b1f6  ........'..;J-..
	0x0030:  25da 8010 0ff9 6cea 0000 0101 080a b51c  %.....l.........
	0x0040:  5aee 002b 7bec                           Z..+{.
17:22:46.005477 IP (tos 0x0, ttl 63, id 2539, offset 0, flags [DF], proto TCP (6), length 319)
    192.168.0.168.56283 > 192.168.0.153.10000: Flags [P.], cksum 0x03a4 (correct), seq 3325774381:3325774648, ack 2985698778, win 4096, options [nop,nop,TS val 3038534390 ecr 2849772], length 267
	0x0000:  944a 0c21 4719 586d 8ff9 0627 8100 0002  .J.!G.Xm...'....
	0x0010:  0800 4500 013f 09eb 4000 3f06 ae3c c0a8  ..E..?..@.?..<..
	0x0020:  00a8 c0a8 0099 dbdb 2710 c63b 4a2d b1f6  ........'..;J-..
	0x0030:  25da 8018 1000 03a4 0000 0101 080a b51c  %...............
	0x0040:  5af6 002b 7bec 1603 0301 0610 0001 0201  Z..+{...........
	0x0050:  0015 ad85 24b0 3b39 d4c3 d59e 0cbd 1fb4  ....$.;9........
	0x0060:  b9de ad5f b547 6a26 608c 3602 8f55 a6f4  ..._.Gj&`.6..U..
	0x0070:  91ad 3e74 8d22 37c2 61ad 059a dce5 e55f  ..>t."7.a......_
	0x0080:  f75a 2093 c038 b313 fa14 96c4 8926 7795  .Z...8.......&w.
	0x0090:  690a edd3 da54 547f e1b1 eb8f 6806 5b1e  i....TT.....h.[.
	0x00a0:  4fc2 d9d4 3ebc 507d 0347 4499 9e73 0662  O...>.P}.GD..s.b
	0x00b0:  5658 5c7c 28a2 937c 44da 285e 30fa 3c46  VX\|(..|D.(^0.<F
	0x00c0:  e25d fcfa 0df7 27ba 8e51 dc69 53cc 13ac  .]....'..Q.iS...
	0x00d0:  19bd 2c3b b03b 9c25 c27e 1be7 e6de 738a  ..,;.;.%.~....s.
	0x00e0:  305a 9b32 9b09 6022 ae65 6646 c177 6029  0Z.2..`".efF.w`)
	0x00f0:  aad4 74ea aaf8 697d df87 cb7d da66 acfb  ..t...i}...}.f..
	0x0100:  c8b8 ad67 64b8 6aeb 2b5e 417c 5514 d54c  ...gd.j.+^A|U..L
	0x0110:  af1c 2eb9 84b8 8281 8a57 804c 7032 b959  .........W.Lp2.Y
	0x0120:  f221 bee1 e7f4 5420 a26a 37f6 7cbb 4604  .!....T..j7.|.F.
	0x0130:  235e 2d55 6b38 71fe db9b 68eb c747 4afa  #^-Uk8q...h..GJ.
	0x0140:  86aa 97f6 69fa b5a1 a2a8 8ba4 2005 0ffa  ....i...........
	0x0150:  77                                       w
17:22:46.044825 IP (tos 0x0, ttl 64, id 22958, offset 0, flags [DF], proto TCP (6), length 52)
    192.168.0.153.10000 > 192.168.0.168.56283: Flags [.], cksum 0x82b8 (incorrect -> 0x79bb), seq 2985698778, ack 3325774648, win 520, options [nop,nop,TS val 2849785 ecr 3038534390], length 0
	0x0000:  586d 8ff9 0627 944a 0c21 4719 8100 0002  Xm...'.J.!G.....
	0x0010:  0800 4500 0034 59ae 4000 4006 5e84 c0a8  ..E..4Y.@.@.^...
	0x0020:  0099 c0a8 00a8 2710 dbdb b1f6 25da c63b  ......'.....%..;
	0x0030:  4b38 8010 0208 82b8 0000 0101 080a 002b  K8.............+
	0x0040:  7bf9 b51c 5af6                           {...Z.
17:22:46.046066 IP (tos 0x0, ttl 63, id 17067, offset 0, flags [DF], proto TCP (6), length 103)
    192.168.0.168.56283 > 192.168.0.153.10000: Flags [P.], cksum 0xba9b (correct), seq 3325774648:3325774699, ack 2985698778, win 4096, options [nop,nop,TS val 3038534430 ecr 2849785], length 51
	0x0000:  944a 0c21 4719 586d 8ff9 0627 8100 0002  .J.!G.Xm...'....
	0x0010:  0800 4500 0067 42ab 4000 3f06 7654 c0a8  ..E..gB.@.?.vT..
	0x0020:  00a8 c0a8 0099 dbdb 2710 c63b 4b38 b1f6  ........'..;K8..
	0x0030:  25da 8018 1000 ba9b 0000 0101 080a b51c  %...............
	0x0040:  5b1e 002b 7bf9 1403 0300 0101 1603 0300  [..+{...........
	0x0050:  280d 461f fffa ec62 bba8 117b 7d86 7ace  (.F....b...{}.z.
	0x0060:  8f9b 61ab 6188 125e f10a a957 df8f a2a4  ..a.a..^...W....
	0x0070:  b9b6 0801 9ce9 6654 19                   ......fT.
17:22:46.046147 IP (tos 0x0, ttl 64, id 22959, offset 0, flags [DF], proto TCP (6), length 52)
    192.168.0.153.10000 > 192.168.0.168.56283: Flags [.], cksum 0x82b8 (incorrect -> 0x7960), seq 2985698778, ack 3325774699, win 520, options [nop,nop,TS val 2849785 ecr 3038534430], length 0
	0x0000:  586d 8ff9 0627 944a 0c21 4719 8100 0002  Xm...'.J.!G.....
	0x0010:  0800 4500 0034 59af 4000 4006 5e83 c0a8  ..E..4Y.@.@.^...
	0x0020:  0099 c0a8 00a8 2710 dbdb b1f6 25da c63b  ......'.....%..;
	0x0030:  4b6b 8010 0208 82b8 0000 0101 080a 002b  Kk.............+
	0x0040:  7bf9 b51c 5b1e                           {...[.
17:22:46.184055 IP (tos 0x0, ttl 64, id 22960, offset 0, flags [DF], proto TCP (6), length 103)
    192.168.0.153.10000 > 192.168.0.168.56283: Flags [P.], cksum 0x82eb (incorrect -> 0xde8c), seq 2985698778:2985698829, ack 3325774699, win 520, options [nop,nop,TS val 2849819 ecr 3038534430], length 51
	0x0000:  586d 8ff9 0627 944a 0c21 4719 8100 0002  Xm...'.J.!G.....
	0x0010:  0800 4500 0067 59b0 4000 4006 5e4f c0a8  ..E..gY.@.@.^O..
	0x0020:  0099 c0a8 00a8 2710 dbdb b1f6 25da c63b  ......'.....%..;
	0x0030:  4b6b 8018 0208 82eb 0000 0101 080a 002b  Kk.............+
	0x0040:  7c1b b51c 5b1e 1403 0300 0101 1603 0300  |...[...........
	0x0050:  2838 d787 5a0d ae16 b1cd 183f c255 6815  (8..Z......?.Uh.
	0x0060:  68f1 ecbf 3c44 2227 833c 0aa2 f8a9 7000  h...<D"'.<....p.
	0x0070:  0c88 40a1 e696 1aad 74                   ..@.....t
17:22:46.185576 IP (tos 0x0, ttl 63, id 39066, offset 0, flags [DF], proto TCP (6), length 52)
    192.168.0.168.56283 > 192.168.0.153.10000: Flags [.], cksum 0x6a8c (correct), seq 3325774699, ack 2985698829, win 4094, options [nop,nop,TS val 3038534567 ecr 2849819], length 0
	0x0000:  944a 0c21 4719 586d 8ff9 0627 8100 0002  .J.!G.Xm...'....
	0x0010:  0800 4500 0034 989a 4000 3f06 2098 c0a8  ..E..4..@.?.....
	0x0020:  00a8 c0a8 0099 dbdb 2710 c63b 4b6b b1f6  ........'..;Kk..
	0x0030:  260d 8010 0ffe 6a8c 0000 0101 080a b51c  &.....j.........
	0x0040:  5ba7 002b 7c1b                           [..+|.
17:22:46.201844 IP (tos 0x0, ttl 63, id 32782, offset 0, flags [DF], proto TCP (6), length 188)
    192.168.0.168.56283 > 192.168.0.153.10000: Flags [P.], cksum 0x0f82 (correct), seq 3325774699:3325774835, ack 2985698829, win 4096, options [nop,nop,TS val 3038534583 ecr 2849819], length 136
	0x0000:  944a 0c21 4719 586d 8ff9 0627 8100 0002  .J.!G.Xm...'....
	0x0010:  0800 4500 00bc 800e 4000 3f06 389c c0a8  ..E.....@.?.8...
	0x0020:  00a8 c0a8 0099 dbdb 2710 c63b 4b6b b1f6  ........'..;Kk..
	0x0030:  260d 8018 1000 0f82 0000 0101 080a b51c  &...............
	0x0040:  5bb7 002b 7c1b 1703 0300 830d 461f fffa  [..+|.......F...
	0x0050:  ec62 bc05 87ad 5bb4 6749 1be6 4f57 f663  .b....[.gI..OW.c
	0x0060:  f68f 503e f735 0e67 b18f 7e5a 22b8 397e  ..P>.5.g..~Z".9~
	0x0070:  3a80 e31f 9feb b1b6 c394 1ebe 9a9b 675f  :.............g_
	0x0080:  b233 be68 af0d 5eda 4f27 8d53 c706 9935  .3.h..^.O'.S...5
	0x0090:  bba7 e897 e895 0847 1d61 5241 cf10 2548  .......G.aRA..%H
	0x00a0:  9a2a d613 0c19 1e7f 2c82 1130 cebf b118  .*......,..0....
	0x00b0:  5a42 0c94 d190 b2c4 0466 de0c 3b7b c3a8  ZB.......f..;{..
	0x00c0:  3e81 a57a 2c72 4063 efbe 8315 594e       >..z,r@c....YN
17:22:46.201972 IP (tos 0x0, ttl 64, id 22961, offset 0, flags [DF], proto TCP (6), length 52)
    192.168.0.153.10000 > 192.168.0.168.56283: Flags [.], cksum 0x82b8 (incorrect -> 0x77c4), seq 2985698829, ack 3325774835, win 553, options [nop,nop,TS val 2849824 ecr 3038534583], length 0
	0x0000:  586d 8ff9 0627 944a 0c21 4719 8100 0002  Xm...'.J.!G.....
	0x0010:  0800 4500 0034 59b1 4000 4006 5e81 c0a8  ..E..4Y.@.@.^...
	0x0020:  0099 c0a8 00a8 2710 dbdb b1f6 260d c63b  ......'.....&..;
	0x0030:  4bf3 8010 0229 82b8 0000 0101 080a 002b  K....).........+
	0x0040:  7c20 b51c 5bb7                           |...[.
17:22:46.209263 IP (tos 0x0, ttl 64, id 22962, offset 0, flags [DF], proto TCP (6), length 109)
    192.168.0.153.10000 > 192.168.0.168.56283: Flags [P.], cksum 0x82f1 (incorrect -> 0x75a2), seq 2985698829:2985698886, ack 3325774835, win 553, options [nop,nop,TS val 2849826 ecr 3038534583], length 57
	0x0000:  586d 8ff9 0627 944a 0c21 4719 8100 0002  Xm...'.J.!G.....
	0x0010:  0800 4500 006d 59b2 4000 4006 5e47 c0a8  ..E..mY.@.@.^G..
	0x0020:  0099 c0a8 00a8 2710 dbdb b1f6 260d c63b  ......'.....&..;
	0x0030:  4bf3 8018 0229 82f1 0000 0101 080a 002b  K....).........+
	0x0040:  7c22 b51c 5bb7 1703 0300 3438 d787 5a0d  |"..[.....48..Z.
	0x0050:  ae16 b2a1 78f9 712d 3a4b de1f 5297 c3b7  ....x.q-:K..R...
	0x0060:  a540 23c7 1700 5fe2 2ac5 b614 f52c 5c9a  .@#..._.*....,\.
	0x0070:  3e57 d1e6 53fc 8bdc a2d6 e039 0dc2 15    >W..S......9...
17:22:46.210559 IP (tos 0x0, ttl 64, id 22963, offset 0, flags [DF], proto TCP (6), length 52)
    192.168.0.153.10000 > 192.168.0.168.56283: Flags [F.], cksum 0x82b8 (incorrect -> 0x7788), seq 2985698886, ack 3325774835, win 553, options [nop,nop,TS val 2849826 ecr 3038534583], length 0
	0x0000:  586d 8ff9 0627 944a 0c21 4719 8100 0002  Xm...'.J.!G.....
	0x0010:  0800 4500 0034 59b3 4000 4006 5e7f c0a8  ..E..4Y.@.@.^...
	0x0020:  0099 c0a8 00a8 2710 dbdb b1f6 2646 c63b  ......'.....&F.;
	0x0030:  4bf3 8011 0229 82b8 0000 0101 080a 002b  K....).........+
	0x0040:  7c22 b51c 5bb7                           |"..[.
17:22:46.210735 IP (tos 0x0, ttl 63, id 4457, offset 0, flags [DF], proto TCP (6), length 52)
    192.168.0.168.56283 > 192.168.0.153.10000: Flags [.], cksum 0x69ad (correct), seq 3325774835, ack 2985698886, win 4094, options [nop,nop,TS val 3038534590 ecr 2849826], length 0
	0x0000:  944a 0c21 4719 586d 8ff9 0627 8100 0002  .J.!G.Xm...'....
	0x0010:  0800 4500 0034 1169 4000 3f06 a7c9 c0a8  ..E..4.i@.?.....
	0x0020:  00a8 c0a8 0099 dbdb 2710 c63b 4bf3 b1f6  ........'..;K...
	0x0030:  2646 8010 0ffe 69ad 0000 0101 080a b51c  &F....i.........
	0x0040:  5bbe 002b 7c22                           [..+|"
17:22:46.212091 IP (tos 0x0, ttl 63, id 41823, offset 0, flags [DF], proto TCP (6), length 52)
    192.168.0.168.56283 > 192.168.0.153.10000: Flags [.], cksum 0x69a9 (correct), seq 3325774835, ack 2985698887, win 4096, options [nop,nop,TS val 3038534591 ecr 2849826], length 0
	0x0000:  944a 0c21 4719 586d 8ff9 0627 8100 0002  .J.!G.Xm...'....
	0x0010:  0800 4500 0034 a35f 4000 3f06 15d3 c0a8  ..E..4._@.?.....
	0x0020:  00a8 c0a8 0099 dbdb 2710 c63b 4bf3 b1f6  ........'..;K...
	0x0030:  2647 8010 1000 69a9 0000 0101 080a b51c  &G....i.........
	0x0040:  5bbf 002b 7c22                           [..+|"
17:22:46.212408 IP (tos 0x0, ttl 63, id 55522, offset 0, flags [DF], proto TCP (6), length 83)
    192.168.0.168.56283 > 192.168.0.153.10000: Flags [P.], cksum 0xe90c (correct), seq 3325774835:3325774866, ack 2985698887, win 4096, options [nop,nop,TS val 3038534591 ecr 2849826], length 31
	0x0000:  944a 0c21 4719 586d 8ff9 0627 8100 0002  .J.!G.Xm...'....
	0x0010:  0800 4500 0053 d8e2 4000 3f06 e030 c0a8  ..E..S..@.?..0..
	0x0020:  00a8 c0a8 0099 dbdb 2710 c63b 4bf3 b1f6  ........'..;K...
	0x0030:  2647 8018 1000 e90c 0000 0101 080a b51c  &G..............
	0x0040:  5bbf 002b 7c22 1503 0300 1a0d 461f fffa  [..+|"......F...
	0x0050:  ec62 bd63 8e04 651f fafd d4b1 dce5 84b2  .b.c..e.........
	0x0060:  1fb7 9860 82                             ...`.
17:22:46.212571 IP (tos 0x0, ttl 64, id 0, offset 0, flags [DF], proto TCP (6), length 40)
    192.168.0.153.10000 > 192.168.0.168.56283: Flags [R], cksum 0x5225 (correct), seq 2985698887, win 0, length 0
	0x0000:  586d 8ff9 0627 944a 0c21 4719 8100 0002  Xm...'.J.!G.....
	0x0010:  0800 4500 0028 0000 4000 4006 b83e c0a8  ..E..(..@.@..>..
	0x0020:  0099 c0a8 00a8 2710 dbdb b1f6 2647 0000  ......'.....&G..
	0x0030:  0000 5004 0000 5225 0000                 ..P...R%..
17:22:46.212617 IP (tos 0x0, ttl 63, id 1928, offset 0, flags [DF], proto TCP (6), length 52)
    192.168.0.168.56283 > 192.168.0.153.10000: Flags [F.], cksum 0x6989 (correct), seq 3325774866, ack 2985698887, win 4096, options [nop,nop,TS val 3038534591 ecr 2849826], length 0
	0x0000:  944a 0c21 4719 586d 8ff9 0627 8100 0002  .J.!G.Xm...'....
	0x0010:  0800 4500 0034 0788 4000 3f06 b1aa c0a8  ..E..4..@.?.....
	0x0020:  00a8 c0a8 0099 dbdb 2710 c63b 4c12 b1f6  ........'..;L...
	0x0030:  2647 8011 1000 6989 0000 0101 080a b51c  &G....i.........
	0x0040:  5bbf 002b 7c22                           [..+|"
17:22:46.212705 IP (tos 0x0, ttl 64, id 0, offset 0, flags [DF], proto TCP (6), length 40)
    192.168.0.153.10000 > 192.168.0.168.56283: Flags [R], cksum 0x5225 (correct), seq 2985698887, win 0, length 0
	0x0000:  586d 8ff9 0627 944a 0c21 4719 8100 0002  Xm...'.J.!G.....
	0x0010:  0800 4500 0028 0000 4000 4006 b83e c0a8  ..E..(..@.@..>..
	0x0020:  0099 c0a8 00a8 2710 dbdb b1f6 2647 0000  ......'.....&G..
	0x0030:  0000 5004 0000 5225 0000                 ..P...R%..


