Connection: 192.168.0.168:56278
network: 192.168.0.0
IN SAME SUBNET. 
No certificates.
size:: -1bytes size:140
USER:  
POST / HTTP/1.1
Host: 192.168.0.153:10000
User-Agent: curl/7.43.0
Accept: */*
Content-Type:text/xml
Content-Length: 13

‘{VA:AC}’

AUTH CODE:!!!
Wenxiao
1:HTTP/1.1 401 Unauthorized


2:
!!!!ENDCALL!!!
17:21:25.862193 IP (tos 0x0, ttl 63, id 9913, offset 0, flags [DF], proto TCP (6), length 64)
    192.168.0.168.56278 > 192.168.0.153.10000: Flags [S], cksum 0x6326 (correct), seq 1956577832, win 65535, options [mss 1460,nop,wscale 5,nop,nop,TS val 3038454395 ecr 0,sackOK,eol], length 0
	0x0000:  944a 0c21 4719 586d 8ff9 0627 8100 0002  .J.!G.Xm...'....
	0x0010:  0800 4500 0040 26b9 4000 3f06 926d c0a8  ..E..@&.@.?..m..
	0x0020:  00a8 c0a8 0099 dbd6 2710 749f 0228 0000  ........'.t..(..
	0x0030:  0000 b002 ffff 6326 0000 0204 05b4 0103  ......c&........
	0x0040:  0305 0101 080a b51b 227b 0000 0000 0402  ........"{......
	0x0050:  0000                                     ..
17:21:25.862392 IP (tos 0x0, ttl 64, id 0, offset 0, flags [DF], proto TCP (6), length 60)
    192.168.0.153.10000 > 192.168.0.168.56278: Flags [S.], cksum 0x82c0 (incorrect -> 0xec15), seq 2194775756, ack 1956577833, win 14480, options [mss 1460,sackOK,TS val 2829739 ecr 3038454395,nop,wscale 5], length 0
	0x0000:  586d 8ff9 0627 944a 0c21 4719 8100 0002  Xm...'.J.!G.....
	0x0010:  0800 4500 003c 0000 4000 4006 b82a c0a8  ..E..<..@.@..*..
	0x0020:  0099 c0a8 00a8 2710 dbd6 82d1 9ecc 749f  ......'.......t.
	0x0030:  0229 a012 3890 82c0 0000 0204 05b4 0402  .)..8...........
	0x0040:  080a 002b 2dab b51b 227b 0103 0305       ...+-..."{....
17:21:25.863702 IP (tos 0x0, ttl 63, id 60838, offset 0, flags [DF], proto TCP (6), length 52)
    192.168.0.168.56278 > 192.168.0.153.10000: Flags [.], cksum 0x4359 (correct), seq 1956577833, ack 2194775757, win 4117, options [nop,nop,TS val 3038454397 ecr 2829739], length 0
	0x0000:  944a 0c21 4719 586d 8ff9 0627 8100 0002  .J.!G.Xm...'....
	0x0010:  0800 4500 0034 eda6 4000 3f06 cb8b c0a8  ..E..4..@.?.....
	0x0020:  00a8 c0a8 0099 dbd6 2710 749f 0229 82d1  ........'.t..)..
	0x0030:  9ecd 8010 1015 4359 0000 0101 080a b51b  ......CY........
	0x0040:  227d 002b 2dab                           "}.+-.
17:21:25.869438 IP (tos 0x0, ttl 63, id 771, offset 0, flags [DF], proto TCP (6), length 261)
    192.168.0.168.56278 > 192.168.0.153.10000: Flags [P.], cksum 0x4da2 (correct), seq 1956577833:1956578042, ack 2194775757, win 4117, options [nop,nop,TS val 3038454402 ecr 2829739], length 209
	0x0000:  944a 0c21 4719 586d 8ff9 0627 8100 0002  .J.!G.Xm...'....
	0x0010:  0800 4500 0105 0303 4000 3f06 b55e c0a8  ..E.....@.?..^..
	0x0020:  00a8 c0a8 0099 dbd6 2710 749f 0229 82d1  ........'.t..)..
	0x0030:  9ecd 8018 1015 4da2 0000 0101 080a b51b  ......M.........
	0x0040:  2282 002b 2dab 1603 0100 cc01 0000 c803  "..+-...........
	0x0050:  0358 1b87 ead0 4e69 3bab a1f6 9761 05ab  .X....Ni;....a..
	0x0060:  3ce4 aa87 583d 3f41 08fb e08d 8939 625d  <...X=?A.....9b]
	0x0070:  ea00 006e 00ff c02c c02b c024 c023 c00a  ...n...,.+.$.#..
	0x0080:  c009 c008 c030 c02f c028 c027 c014 c013  .....0./.(.'....
	0x0090:  c012 c02e c02d c026 c025 c005 c004 c003  .....-.&.%......
	0x00a0:  c032 c031 c02a c029 c00f c00e c00d 009f  .2.1.*.)........
	0x00b0:  009e 006b 0067 0039 0033 0016 009d 009c  ...k.g.9.3......
	0x00c0:  003d 003c 0035 002f 000a c007 c011 c002  .=.<.5./........
	0x00d0:  c00c 0005 0004 00af 00ae 008d 008c 008a  ................
	0x00e0:  008b 0100 0031 000a 0008 0006 0017 0018  .....1..........
	0x00f0:  0019 000b 0002 0100 000d 000e 000c 0501  ................
	0x0100:  0401 0201 0503 0403 0203 0005 0005 0100  ................
	0x0110:  0000 0000 1200 00                        .......
17:21:25.869559 IP (tos 0x0, ttl 64, id 45926, offset 0, flags [DF], proto TCP (6), length 52)
    192.168.0.153.10000 > 192.168.0.168.56278: Flags [.], cksum 0x82b8 (incorrect -> 0x50b0), seq 2194775757, ack 1956578042, win 486, options [nop,nop,TS val 2829741 ecr 3038454402], length 0
	0x0000:  586d 8ff9 0627 944a 0c21 4719 8100 0002  Xm...'.J.!G.....
	0x0010:  0800 4500 0034 b366 4000 4006 04cc c0a8  ..E..4.f@.@.....
	0x0020:  0099 c0a8 00a8 2710 dbd6 82d1 9ecd 749f  ......'.......t.
	0x0030:  02fa 8010 01e6 82b8 0000 0101 080a 002b  ...............+
	0x0040:  2dad b51b 2282                           -...".
17:21:25.870841 IP (tos 0x0, ttl 64, id 45927, offset 0, flags [DF], proto TCP (6), length 968)
    192.168.0.153.10000 > 192.168.0.168.56278: Flags [P.], cksum 0x864c (incorrect -> 0x6ac9), seq 2194775757:2194776673, ack 1956578042, win 486, options [nop,nop,TS val 2829741 ecr 3038454402], length 916
	0x0000:  586d 8ff9 0627 944a 0c21 4719 8100 0002  Xm...'.J.!G.....
	0x0010:  0800 4500 03c8 b367 4000 4006 0137 c0a8  ..E....g@.@..7..
	0x0020:  0099 c0a8 00a8 2710 dbd6 82d1 9ecd 749f  ......'.......t.
	0x0030:  02fa 8018 01e6 864c 0000 0101 080a 002b  .......L.......+
	0x0040:  2dad b51b 2282 1603 0300 5102 0000 4d03  -...".....Q...M.
	0x0050:  03e3 bc8b d28f 4163 d1a5 3452 1cb0 8b29  ......Ac..4R...)
	0x0060:  06f2 fd6a 1478 9f2f 3b91 677e bf31 218c  ...j.x./;.g~.1!.
	0x0070:  dd20 1569 965d b80a fd38 aee9 54d2 4d1c  ...i.]...8..T.M.
	0x0080:  ca77 7224 fa72 a39e a31d 0a92 3a2b 6fb3  .wr$.r......:+o.
	0x0090:  3f42 009d 0000 05ff 0100 0100 1603 0303  ?B..............
	0x00a0:  300b 0003 2c00 0329 0003 2630 8203 2230  0...,..)..&0.."0
	0x00b0:  8202 0a02 0900 f0c4 fa58 1574 6073 300d  .........X.t`s0.
	0x00c0:  0609 2a86 4886 f70d 0101 0b05 0030 4731  ..*.H........0G1
	0x00d0:  0b30 0906 0355 0406 1302 5553 3113 3011  .0...U....US1.0.
	0x00e0:  0603 5504 080c 0a4e 6577 204a 6572 7365  ..U....New.Jerse
	0x00f0:  7931 0f30 0d06 0355 0407 0c06 4e65 7761  y1.0...U....Newa
	0x0100:  726b 3112 3010 0603 5504 0a0c 0950 616e  rk1.0...U....Pan
	0x0110:  6173 6f6e 6963 301e 170d 3136 3131 3031  asonic0...161101
	0x0120:  3136 3133 3138 5a17 0d32 3631 3033 3031  161318Z..2610301
	0x0130:  3631 3331 385a 305f 310b 3009 0603 5504  61318Z0_1.0...U.
	0x0140:  0613 0255 5331 1330 1106 0355 0408 0c0a  ...US1.0...U....
	0x0150:  4e65 7720 4a65 7273 6579 310f 300d 0603  New.Jersey1.0...
	0x0160:  5504 070c 064e 6577 6172 6b31 1230 1006  U....Newark1.0..
	0x0170:  0355 040a 0c09 5061 6e61 736f 6e69 6331  .U....Panasonic1
	0x0180:  1630 1406 0355 0403 0c0d 3139 322e 3136  .0...U....192.16
	0x0190:  382e 302e 3135 3330 8201 2230 0d06 092a  8.0.1530.."0...*
	0x01a0:  8648 86f7 0d01 0101 0500 0382 010f 0030  .H.............0
	0x01b0:  8201 0a02 8201 0100 a1a8 e7ab 0a90 d5ce  ................
	0x01c0:  7a4c 4aa8 c62f f78b 8f14 3038 7544 7128  zLJ../....08uDq(
	0x01d0:  e8ad 3f99 efd6 c5d1 13cd 5110 f2d5 9ee7  ..?.......Q.....
	0x01e0:  b30d 02fb 2d1c 954f 9069 84f6 7257 5f79  ....-..O.i..rW_y
	0x01f0:  cc9a 183f c2be ada8 0dab e407 316d 0240  ...?........1m.@
	0x0200:  a7ed 529b c5d0 e7a4 0469 8243 074a 9a47  ..R......i.C.J.G
	0x0210:  416d ed9a e8d7 3c3b 6b18 6ae0 346e d747  Am....<;k.j.4n.G
	0x0220:  0b86 2a54 a496 6ea2 117b 0376 e304 349c  ..*T..n..{.v..4.
	0x0230:  2d30 ba1f 6bb8 c016 be37 f4e8 8a35 b18d  -0..k....7...5..
	0x0240:  7228 2dbc 11e0 4426 8065 0b8b 9aa7 e303  r(-...D&.e......
	0x0250:  738d 3842 1ecb 3ca0 6120 9721 266c b9dc  s.8B..<.a..!&l..
	0x0260:  cea4 ee29 1c99 9713 4da3 baf1 cd1f c1cf  ...)....M.......
	0x0270:  5942 07ac b3fd 5694 d87e 30f8 cd1a e4eb  YB....V..~0.....
	0x0280:  aa86 62c8 f5c4 e1ca 0538 bafe fc2a bf70  ..b......8...*.p
	0x0290:  7039 40b4 9c57 babb fd1d f77b b586 4bba  p9@..W.....{..K.
	0x02a0:  3b81 9e9f 7dde 955f c477 cc06 196c d148  ;...}.._.w...l.H
	0x02b0:  094d e403 178e 69d9 0203 0100 0130 0d06  .M....i......0..
	0x02c0:  092a 8648 86f7 0d01 010b 0500 0382 0101  .*.H............
	0x02d0:  0038 f1b9 c45d 3427 750e 556d 19db 8571  .8...]4'u.Um...q
	0x02e0:  0a2c 3aab 978b 3c49 b417 d0a9 fed2 fa61  .,:...<I.......a
	0x02f0:  2f34 89a1 3cce 524c 175f 6ff9 3151 aa31  /4..<.RL._o.1Q.1
	0x0300:  5c38 f60b c0e4 d82c 18db 37e2 ea29 8f5a  \8.....,..7..).Z
	0x0310:  8023 9202 49e5 0439 4907 f68c dcfc 9438  .#..I..9I......8
	0x0320:  1976 91f9 abab ff9b 0ad8 05d9 248e 64f9  .v..........$.d.
	0x0330:  a89b e955 92e6 afc1 030a ee1d 8586 7310  ...U..........s.
	0x0340:  2cdf e03e 05d8 0939 c302 d658 8189 a99c  ,..>...9...X....
	0x0350:  c5bf 2662 fe37 2d80 1289 dc1c 661f 720a  ..&b.7-.....f.r.
	0x0360:  f8db fd16 2591 62be 99d1 ce12 81ea 2545  ....%.b.......%E
	0x0370:  b8c4 5309 9ae2 b261 682a c992 32b7 3ced  ..S....ah*..2.<.
	0x0380:  c5f9 53b6 6ffa 2385 f205 0fca 7da9 84e9  ..S.o.#.....}...
	0x0390:  f404 7385 65c2 7913 dd22 1a7e 67b3 ccb5  ..s.e.y..".~g...
	0x03a0:  bb28 7c16 20d5 9ecf 1f58 bc80 91e2 20f1  .(|......X......
	0x03b0:  34f1 87f4 1d6a a6ad e593 361e c70a 040e  4....j....6.....
	0x03c0:  1f0d 6ba2 b4ce 6146 6fca e123 624e 597f  ..k...aFo..#bNY.
	0x03d0:  9f16 0303 0004 0e00 0000                 ..........
17:21:25.872287 IP (tos 0x0, ttl 63, id 55953, offset 0, flags [DF], proto TCP (6), length 52)
    192.168.0.168.56278 > 192.168.0.153.10000: Flags [.], cksum 0x3f07 (correct), seq 1956578042, ack 2194776673, win 4089, options [nop,nop,TS val 3038454404 ecr 2829741], length 0
	0x0000:  944a 0c21 4719 586d 8ff9 0627 8100 0002  .J.!G.Xm...'....
	0x0010:  0800 4500 0034 da91 4000 3f06 dea0 c0a8  ..E..4..@.?.....
	0x0020:  00a8 c0a8 0099 dbd6 2710 749f 02fa 82d1  ........'.t.....
	0x0030:  a261 8010 0ff9 3f07 0000 0101 080a b51b  .a....?.........
	0x0040:  2284 002b 2dad                           "..+-.
17:21:25.882139 IP (tos 0x0, ttl 63, id 13954, offset 0, flags [DF], proto TCP (6), length 319)
    192.168.0.168.56278 > 192.168.0.153.10000: Flags [P.], cksum 0xf68a (correct), seq 1956578042:1956578309, ack 2194776673, win 4096, options [nop,nop,TS val 3038454413 ecr 2829741], length 267
	0x0000:  944a 0c21 4719 586d 8ff9 0627 8100 0002  .J.!G.Xm...'....
	0x0010:  0800 4500 013f 3682 4000 3f06 81a5 c0a8  ..E..?6.@.?.....
	0x0020:  00a8 c0a8 0099 dbd6 2710 749f 02fa 82d1  ........'.t.....
	0x0030:  a261 8018 1000 f68a 0000 0101 080a b51b  .a..............
	0x0040:  228d 002b 2dad 1603 0301 0610 0001 0201  "..+-...........
	0x0050:  009a bfe8 c3ae 9bd9 5361 86db fe88 c08a  ........Sa......
	0x0060:  01b4 a13b e600 2a57 8d4d 24db c067 d5c6  ...;..*W.M$..g..
	0x0070:  2ffd 5a93 45f2 36d1 cf79 0f91 01b5 e7b9  /.Z.E.6..y......
	0x0080:  03dc 13f4 ddec 3eb7 f32b 8c22 671c 0fe5  ......>..+."g...
	0x0090:  80a6 4fb5 8828 e638 90ed 3501 e1da 9ff4  ..O..(.8..5.....
	0x00a0:  16f3 845a 6293 7251 7383 f3ed 3abd 4cd5  ...Zb.rQs...:.L.
	0x00b0:  e6a1 bcc2 7b37 3e64 ab19 03bb 0d19 1699  ....{7>d........
	0x00c0:  6f31 9792 a8f6 ecaf dd21 b07e 6d96 7aa0  o1.......!.~m.z.
	0x00d0:  ad88 d7c3 74de 632e 8b14 3ac3 0ed5 4253  ....t.c...:...BS
	0x00e0:  4e40 62f7 8098 d237 e674 359d f4eb ee26  N@b....7.t5....&
	0x00f0:  fd8e c92c 3a31 5270 eccc 1b18 4285 8026  ...,:1Rp....B..&
	0x0100:  c91f 0f85 11cd ceb1 fc2f 880e 1caa 1072  ........./.....r
	0x0110:  c2b5 82c8 cda4 27c4 b190 bc02 bff8 eabc  ......'.........
	0x0120:  cd8c 74b0 a290 d389 4830 4d0a ede3 64c8  ..t.....H0M...d.
	0x0130:  6d84 1876 d447 5d2f 9ae2 4dc6 dd4b 08ee  m..v.G]/..M..K..
	0x0140:  d785 f062 d5ff d0e0 4155 0d42 c246 ecdc  ...b....AU.B.F..
	0x0150:  69                                       i
17:21:25.920826 IP (tos 0x0, ttl 64, id 45928, offset 0, flags [DF], proto TCP (6), length 52)
    192.168.0.153.10000 > 192.168.0.168.56278: Flags [.], cksum 0x82b8 (incorrect -> 0x4bd7), seq 2194776673, ack 1956578309, win 520, options [nop,nop,TS val 2829754 ecr 3038454413], length 0
	0x0000:  586d 8ff9 0627 944a 0c21 4719 8100 0002  Xm...'.J.!G.....
	0x0010:  0800 4500 0034 b368 4000 4006 04ca c0a8  ..E..4.h@.@.....
	0x0020:  0099 c0a8 00a8 2710 dbd6 82d1 a261 749f  ......'......at.
	0x0030:  0405 8010 0208 82b8 0000 0101 080a 002b  ...............+
	0x0040:  2dba b51b 228d                           -...".
17:21:25.922204 IP (tos 0x0, ttl 63, id 45834, offset 0, flags [DF], proto TCP (6), length 103)
    192.168.0.168.56278 > 192.168.0.153.10000: Flags [P.], cksum 0x1eb0 (correct), seq 1956578309:1956578360, ack 2194776673, win 4096, options [nop,nop,TS val 3038454453 ecr 2829754], length 51
	0x0000:  944a 0c21 4719 586d 8ff9 0627 8100 0002  .J.!G.Xm...'....
	0x0010:  0800 4500 0067 b30a 4000 3f06 05f5 c0a8  ..E..g..@.?.....
	0x0020:  00a8 c0a8 0099 dbd6 2710 749f 0405 82d1  ........'.t.....
	0x0030:  a261 8018 1000 1eb0 0000 0101 080a b51b  .a..............
	0x0040:  22b5 002b 2dba 1403 0300 0101 1603 0300  "..+-...........
	0x0050:  2846 555b 854a 6370 6242 4fb6 f95b 572b  (FU[.JcpbBO..[W+
	0x0060:  710c 0faa b016 a3ff 156e 8259 1450 d568  q........n.Y.P.h
	0x0070:  4220 fa65 cc83 0591 20                   B..e.....
17:21:25.922278 IP (tos 0x0, ttl 64, id 45929, offset 0, flags [DF], proto TCP (6), length 52)
    192.168.0.153.10000 > 192.168.0.168.56278: Flags [.], cksum 0x82b8 (incorrect -> 0x4b7c), seq 2194776673, ack 1956578360, win 520, options [nop,nop,TS val 2829754 ecr 3038454453], length 0
	0x0000:  586d 8ff9 0627 944a 0c21 4719 8100 0002  Xm...'.J.!G.....
	0x0010:  0800 4500 0034 b369 4000 4006 04c9 c0a8  ..E..4.i@.@.....
	0x0020:  0099 c0a8 00a8 2710 dbd6 82d1 a261 749f  ......'......at.
	0x0030:  0438 8010 0208 82b8 0000 0101 080a 002b  .8.............+
	0x0040:  2dba b51b 22b5                           -...".
17:21:26.054528 IP (tos 0x0, ttl 64, id 45930, offset 0, flags [DF], proto TCP (6), length 103)
    192.168.0.153.10000 > 192.168.0.168.56278: Flags [P.], cksum 0x82eb (incorrect -> 0x499d), seq 2194776673:2194776724, ack 1956578360, win 520, options [nop,nop,TS val 2829787 ecr 3038454453], length 51
	0x0000:  586d 8ff9 0627 944a 0c21 4719 8100 0002  Xm...'.J.!G.....
	0x0010:  0800 4500 0067 b36a 4000 4006 0495 c0a8  ..E..g.j@.@.....
	0x0020:  0099 c0a8 00a8 2710 dbd6 82d1 a261 749f  ......'......at.
	0x0030:  0438 8018 0208 82eb 0000 0101 080a 002b  .8.............+
	0x0040:  2ddb b51b 22b5 1403 0300 0101 1603 0300  -..."...........
	0x0050:  2894 098b c271 ebfd f1e1 f528 54a7 d3a5  (....q.....(T...
	0x0060:  e6ff ba38 9b60 7af2 242f f572 54a4 a14d  ...8.`z.$/.rT..M
	0x0070:  7445 bb31 c5a2 495a db                   tE.1..IZ.
17:21:26.055975 IP (tos 0x0, ttl 63, id 47827, offset 0, flags [DF], proto TCP (6), length 52)
    192.168.0.168.56278 > 192.168.0.153.10000: Flags [.], cksum 0x3cae (correct), seq 1956578360, ack 2194776724, win 4094, options [nop,nop,TS val 3038454585 ecr 2829787], length 0
	0x0000:  944a 0c21 4719 586d 8ff9 0627 8100 0002  .J.!G.Xm...'....
	0x0010:  0800 4500 0034 bad3 4000 3f06 fe5e c0a8  ..E..4..@.?..^..
	0x0020:  00a8 c0a8 0099 dbd6 2710 749f 0438 82d1  ........'.t..8..
	0x0030:  a294 8010 0ffe 3cae 0000 0101 080a b51b  ......<.........
	0x0040:  2339 002b 2ddb                           #9.+-.
17:21:26.071711 IP (tos 0x0, ttl 63, id 59501, offset 0, flags [DF], proto TCP (6), length 221)
    192.168.0.168.56278 > 192.168.0.153.10000: Flags [P.], cksum 0x595e (correct), seq 1956578360:1956578529, ack 2194776724, win 4096, options [nop,nop,TS val 3038454600 ecr 2829787], length 169
	0x0000:  944a 0c21 4719 586d 8ff9 0627 8100 0002  .J.!G.Xm...'....
	0x0010:  0800 4500 00dd e86d 4000 3f06 d01b c0a8  ..E....m@.?.....
	0x0020:  00a8 c0a8 0099 dbd6 2710 749f 0438 82d1  ........'.t..8..
	0x0030:  a294 8018 1000 595e 0000 0101 080a b51b  ......Y^........
	0x0040:  2348 002b 2ddb 1703 0300 a446 555b 854a  #H.+-......FU[.J
	0x0050:  6370 6386 8d8e 4b01 3879 d67b 6214 2ced  cpc...K.8y.{b.,.
	0x0060:  5a61 f22c fd22 216d 2858 3d7f ce76 99b9  Za.,."!m(X=..v..
	0x0070:  47a1 9f97 5f44 5bff 5b3f 001f 8a98 40f2  G..._D[.[?....@.
	0x0080:  3849 de42 609f 91e6 4edf 2354 5737 8ee5  8I.B`...N.#TW7..
	0x0090:  6799 5100 7b07 1252 07fa 6d4f 2024 0ea9  g.Q.{..R..mO.$..
	0x00a0:  ef0b dd94 bef8 59d7 d1be 982d 4cb6 eebc  ......Y....-L...
	0x00b0:  fd1c fff0 be32 da5d 90e9 8bf1 bfc0 6355  .....2.]......cU
	0x00c0:  238f 5b45 1b53 a46e a6d2 a4fb 35f1 0d3e  #.[E.S.n....5..>
	0x00d0:  df3b 8c23 ea4a bd72 cd41 c011 ff22 3841  .;.#.J.r.A..."8A
	0x00e0:  71a9 42d1 5cf9 cea8 c4f9 75fd 564b 47    q.B.\.....u.VKG
17:21:26.071853 IP (tos 0x0, ttl 64, id 45931, offset 0, flags [DF], proto TCP (6), length 52)
    192.168.0.153.10000 > 192.168.0.168.56278: Flags [.], cksum 0x82b8 (incorrect -> 0x49c7), seq 2194776724, ack 1956578529, win 553, options [nop,nop,TS val 2829791 ecr 3038454600], length 0
	0x0000:  586d 8ff9 0627 944a 0c21 4719 8100 0002  Xm...'.J.!G.....
	0x0010:  0800 4500 0034 b36b 4000 4006 04c7 c0a8  ..E..4.k@.@.....
	0x0020:  0099 c0a8 00a8 2710 dbd6 82d1 a294 749f  ......'.......t.
	0x0030:  04e1 8010 0229 82b8 0000 0101 080a 002b  .....).........+
	0x0040:  2ddf b51b 2348                           -...#H
17:21:26.079784 IP (tos 0x0, ttl 64, id 45932, offset 0, flags [DF], proto TCP (6), length 109)
    192.168.0.153.10000 > 192.168.0.168.56278: Flags [P.], cksum 0x82f1 (incorrect -> 0xc84f), seq 2194776724:2194776781, ack 1956578529, win 553, options [nop,nop,TS val 2829793 ecr 3038454600], length 57
	0x0000:  586d 8ff9 0627 944a 0c21 4719 8100 0002  Xm...'.J.!G.....
	0x0010:  0800 4500 006d b36c 4000 4006 048d c0a8  ..E..m.l@.@.....
	0x0020:  0099 c0a8 00a8 2710 dbd6 82d1 a294 749f  ......'.......t.
	0x0030:  04e1 8018 0229 82f1 0000 0101 080a 002b  .....).........+
	0x0040:  2de1 b51b 2348 1703 0300 3494 098b c271  -...#H....4....q
	0x0050:  ebfd f2d3 b21c 2f66 2b01 eb3b e8d3 ca57  ....../f+..;...W
	0x0060:  1004 a23e 8bc0 0853 3f5a 4234 c914 44d8  ...>...S?ZB4..D.
	0x0070:  ba9a 86e9 2078 7f0e fa03 f789 2578 0f    .....x......%x.
17:21:26.081289 IP (tos 0x0, ttl 63, id 34092, offset 0, flags [DF], proto TCP (6), length 52)
    192.168.0.168.56278 > 192.168.0.153.10000: Flags [.], cksum 0x3bb0 (correct), seq 1956578529, ack 2194776781, win 4094, options [nop,nop,TS val 3038454607 ecr 2829793], length 0
	0x0000:  944a 0c21 4719 586d 8ff9 0627 8100 0002  .J.!G.Xm...'....
	0x0010:  0800 4500 0034 852c 4000 3f06 3406 c0a8  ..E..4.,@.?.4...
	0x0020:  00a8 c0a8 0099 dbd6 2710 749f 04e1 82d1  ........'.t.....
	0x0030:  a2cd 8010 0ffe 3bb0 0000 0101 080a b51b  ......;.........
	0x0040:  234f 002b 2de1                           #O.+-.
17:21:26.081503 IP (tos 0x0, ttl 64, id 45933, offset 0, flags [DF], proto TCP (6), length 52)
    192.168.0.153.10000 > 192.168.0.168.56278: Flags [F.], cksum 0x82b8 (incorrect -> 0x4983), seq 2194776781, ack 1956578529, win 553, options [nop,nop,TS val 2829794 ecr 3038454607], length 0
	0x0000:  586d 8ff9 0627 944a 0c21 4719 8100 0002  Xm...'.J.!G.....
	0x0010:  0800 4500 0034 b36d 4000 4006 04c5 c0a8  ..E..4.m@.@.....
	0x0020:  0099 c0a8 00a8 2710 dbd6 82d1 a2cd 749f  ......'.......t.
	0x0030:  04e1 8011 0229 82b8 0000 0101 080a 002b  .....).........+
	0x0040:  2de2 b51b 234f                           -...#O
17:21:26.083118 IP (tos 0x0, ttl 63, id 44966, offset 0, flags [DF], proto TCP (6), length 52)
    192.168.0.168.56278 > 192.168.0.153.10000: Flags [.], cksum 0x3baa (correct), seq 1956578529, ack 2194776782, win 4096, options [nop,nop,TS val 3038454609 ecr 2829794], length 0
	0x0000:  944a 0c21 4719 586d 8ff9 0627 8100 0002  .J.!G.Xm...'....
	0x0010:  0800 4500 0034 afa6 4000 3f06 098c c0a8  ..E..4..@.?.....
	0x0020:  00a8 c0a8 0099 dbd6 2710 749f 04e1 82d1  ........'.t.....
	0x0030:  a2ce 8010 1000 3baa 0000 0101 080a b51b  ......;.........
	0x0040:  2351 002b 2de2                           #Q.+-.
17:21:26.083403 IP (tos 0x0, ttl 63, id 12463, offset 0, flags [DF], proto TCP (6), length 83)
    192.168.0.168.56278 > 192.168.0.153.10000: Flags [P.], cksum 0x1a06 (correct), seq 1956578529:1956578560, ack 2194776782, win 4096, options [nop,nop,TS val 3038454609 ecr 2829794], length 31
	0x0000:  944a 0c21 4719 586d 8ff9 0627 8100 0002  .J.!G.Xm...'....
	0x0010:  0800 4500 0053 30af 4000 3f06 8864 c0a8  ..E..S0.@.?..d..
	0x0020:  00a8 c0a8 0099 dbd6 2710 749f 04e1 82d1  ........'.t.....
	0x0030:  a2ce 8018 1000 1a06 0000 0101 080a b51b  ................
	0x0040:  2351 002b 2de2 1503 0300 1a46 555b 854a  #Q.+-......FU[.J
	0x0050:  6370 647c 4539 8152 50e0 9c14 93e2 df80  cpd|E9.RP.......
	0x0060:  7575 2347 8d                             uu#G.
17:21:26.083530 IP (tos 0x0, ttl 64, id 0, offset 0, flags [DF], proto TCP (6), length 40)
    192.168.0.153.10000 > 192.168.0.168.56278: Flags [R], cksum 0x04c8 (correct), seq 2194776782, win 0, length 0
	0x0000:  586d 8ff9 0627 944a 0c21 4719 8100 0002  Xm...'.J.!G.....
	0x0010:  0800 4500 0028 0000 4000 4006 b83e c0a8  ..E..(..@.@..>..
	0x0020:  0099 c0a8 00a8 2710 dbd6 82d1 a2ce 0000  ......'.........
	0x0030:  0000 5004 0000 04c8 0000                 ..P.......
17:21:26.083558 IP (tos 0x0, ttl 63, id 41188, offset 0, flags [DF], proto TCP (6), length 52)
    192.168.0.168.56278 > 192.168.0.153.10000: Flags [F.], cksum 0x3b8a (correct), seq 1956578560, ack 2194776782, win 4096, options [nop,nop,TS val 3038454609 ecr 2829794], length 0
	0x0000:  944a 0c21 4719 586d 8ff9 0627 8100 0002  .J.!G.Xm...'....
	0x0010:  0800 4500 0034 a0e4 4000 3f06 184e c0a8  ..E..4..@.?..N..
	0x0020:  00a8 c0a8 0099 dbd6 2710 749f 0500 82d1  ........'.t.....
	0x0030:  a2ce 8011 1000 3b8a 0000 0101 080a b51b  ......;.........
	0x0040:  2351 002b 2de2                           #Q.+-.
17:21:26.083623 IP (tos 0x0, ttl 64, id 0, offset 0, flags [DF], proto TCP (6), length 40)
    192.168.0.153.10000 > 192.168.0.168.56278: Flags [R], cksum 0x04c8 (correct), seq 2194776782, win 0, length 0
	0x0000:  586d 8ff9 0627 944a 0c21 4719 8100 0002  Xm...'.J.!G.....
	0x0010:  0800 4500 0028 0000 4000 4006 b83e c0a8  ..E..(..@.@..>..
	0x0020:  0099 c0a8 00a8 2710 dbd6 82d1 a2ce 0000  ......'.........
	0x0030:  0000 5004 0000 04c8 0000                 ..P....... 
