14:19:54.588195 IP (tos 0x0, ttl 52, id 37395, offset 0, flags [DF], proto TCP (6), length 64)
    109.228.177.89.46120 > 192.168.1.4.10000: Flags [S], cksum 0x2452 (correct), seq 3999040957, win 65535, options [mss 1460,nop,wscale 5,nop,nop,TS val 898215140 ecr 0,sackOK,eol], length 0
	0x0000:  e060 6614 5712 5046 5dd1 7508 8100 0002  .`f.W.PF].u.....
	0x0010:  0800 4500 0040 9213 4000 3406 d3ba 6de4  ..E..@..@.4...m.
	0x0020:  b159 c0a8 0104 b428 2710 ee5c 85bd 0000  .Y.....('..\....
	0x0030:  0000 b002 ffff 2452 0000 0204 05b4 0103  ......$R........
	0x0040:  0305 0101 080a 3589 ace4 0000 0000 0402  ......5.........
	0x0050:  0000                                     ..
14:19:54.588407 IP (tos 0x0, ttl 64, id 0, offset 0, flags [DF], proto TCP (6), length 60)
    192.168.1.4.10000 > 109.228.177.89.46120: Flags [S.], cksum 0xe118 (incorrect -> 0x0da8), seq 3889915250, ack 3999040958, win 14480, options [mss 1460,sackOK,TS val 106942 ecr 898215140,nop,wscale 5], length 0
	0x0000:  5046 5dd1 7508 e060 6614 5712 8100 0002  PF].u..`f.W.....
	0x0010:  0800 4500 003c 0000 4000 4006 59d2 c0a8  ..E..<..@.@.Y...
	0x0020:  0104 6de4 b159 2710 b428 e7db 6572 ee5c  ..m..Y'..(..er.\
	0x0030:  85be a012 3890 e118 0000 0204 05b4 0402  ....8...........
	0x0040:  080a 0001 a1be 3589 ace4 0103 0305       ......5.......
14:19:54.609512 IP (tos 0x0, ttl 52, id 5130, offset 0, flags [DF], proto TCP (6), length 52)
    109.228.177.89.46120 > 192.168.1.4.10000: Flags [.], cksum 0x64d8 (correct), seq 3999040958, ack 3889915251, win 4117, options [nop,nop,TS val 898215161 ecr 106942], length 0
	0x0000:  e060 6614 5712 5046 5dd1 7508 8100 0002  .`f.W.PF].u.....
	0x0010:  0800 4500 0034 140a 4000 3406 51d0 6de4  ..E..4..@.4.Q.m.
	0x0020:  b159 c0a8 0104 b428 2710 ee5c 85be e7db  .Y.....('..\....
	0x0030:  6573 8010 1015 64d8 0000 0101 080a 3589  es....d.......5.
	0x0040:  acf9 0001 a1be                           ......
14:19:54.610806 IP (tos 0x0, ttl 53, id 5697, offset 0, flags [DF], proto TCP (6), length 280)
    109.228.177.89.46120 > 192.168.1.4.10000: Flags [P.], cksum 0xecc9 (correct), seq 3999040958:3999041186, ack 3889915251, win 4117, options [nop,nop,TS val 898215162 ecr 106942], length 228
	0x0000:  e060 6614 5712 5046 5dd1 7508 8100 0002  .`f.W.PF].u.....
	0x0010:  0800 4500 0118 1641 4000 3506 4db5 6de4  ..E....A@.5.M.m.
	0x0020:  b159 c0a8 0104 b428 2710 ee5c 85be e7db  .Y.....('..\....
	0x0030:  6573 8018 1015 ecc9 0000 0101 080a 3589  es............5.
	0x0040:  acfa 0001 a1be 1603 0300 df01 0000 db03  ................
	0x0050:  0358 1b5d fc74 62a5 5aa6 068c b517 e032  .X.].tb.Z......2
	0x0060:  0ae8 1fdf 869e 3560 9f55 8aa5 64de 24b0  ......5`.U..d.$.
	0x0070:  e900 002c 00ff c02c c02b c024 c023 c00a  ...,...,.+.$.#..
	0x0080:  c009 c008 c030 c02f c028 c027 c014 c013  .....0./.(.'....
	0x0090:  c012 009d 009c 003d 003c 0035 002f 000a  .......=.<.5./..
	0x00a0:  0100 0086 0000 0011 000f 0000 0c38 322e  .............82.
	0x00b0:  3939 2e32 342e 3138 3300 0a00 0800 0600  99.24.183.......
	0x00c0:  1700 1800 1900 0b00 0201 0000 0d00 1200  ................
	0x00d0:  1004 0102 0105 0106 0104 0302 0305 0306  ................
	0x00e0:  0333 7400 0000 1000 3000 2e02 6832 0568  .3t.....0...h2.h
	0x00f0:  322d 3136 0568 322d 3135 0568 322d 3134  2-16.h2-15.h2-14
	0x0100:  0873 7064 792f 332e 3106 7370 6479 2f33  .spdy/3.1.spdy/3
	0x0110:  0868 7474 702f 312e 3100 0500 0501 0000  .http/1.1.......
	0x0120:  0000 0012 0000 0017 0000                 ..........
14:19:54.610986 IP (tos 0x0, ttl 64, id 50359, offset 0, flags [DF], proto TCP (6), length 52)
    192.168.1.4.10000 > 109.228.177.89.46120: Flags [.], cksum 0xe110 (incorrect -> 0x721c), seq 3889915251, ack 3999041186, win 486, options [nop,nop,TS val 106948 ecr 898215162], length 0
	0x0000:  5046 5dd1 7508 e060 6614 5712 8100 0002  PF].u..`f.W.....
	0x0010:  0800 4500 0034 c4b7 4000 4006 9522 c0a8  ..E..4..@.@.."..
	0x0020:  0104 6de4 b159 2710 b428 e7db 6573 ee5c  ..m..Y'..(..es.\
	0x0030:  86a2 8010 01e6 e110 0000 0101 080a 0001  ................
	0x0040:  a1c4 3589 acfa                           ..5...
14:19:54.616066 IP (tos 0x0, ttl 64, id 50360, offset 0, flags [DF], proto TCP (6), length 968)
    192.168.1.4.10000 > 109.228.177.89.46120: Flags [P.], cksum 0xe4a4 (incorrect -> 0xa260), seq 3889915251:3889916167, ack 3999041186, win 486, options [nop,nop,TS val 106949 ecr 898215162], length 916
	0x0000:  5046 5dd1 7508 e060 6614 5712 8100 0002  PF].u..`f.W.....
	0x0010:  0800 4500 03c8 c4b8 4000 4006 918d c0a8  ..E.....@.@.....
	0x0020:  0104 6de4 b159 2710 b428 e7db 6573 ee5c  ..m..Y'..(..es.\
	0x0030:  86a2 8018 01e6 e4a4 0000 0101 080a 0001  ................
	0x0040:  a1c5 3589 acfa 1603 0300 5102 0000 4d03  ..5.......Q...M.
	0x0050:  03bc e067 d971 c0c5 3694 2158 aca8 7413  ...g.q..6.!X..t.
	0x0060:  d102 4585 6313 e17e ebb1 97de b025 0cae  ..E.c..~.....%..
	0x0070:  2220 1ebf a681 be1f 350d 1afc c57d eace  ".......5....}..
	0x0080:  a277 e781 2d5c 9b37 0e10 dd69 c68a e44e  .w..-\.7...i...N
	0x0090:  f61f 009d 0000 05ff 0100 0100 1603 0303  ................
	0x00a0:  300b 0003 2c00 0329 0003 2630 8203 2230  0...,..)..&0.."0
	0x00b0:  8202 0a02 0900 d41f 0640 5afe 974d 300d  .........@Z..M0.
	0x00c0:  0609 2a86 4886 f70d 0101 0b05 0030 4731  ..*.H........0G1
	0x00d0:  0b30 0906 0355 0406 1302 5553 3113 3011  .0...U....US1.0.
	0x00e0:  0603 5504 080c 0a4e 6577 204a 6572 7365  ..U....New.Jerse
	0x00f0:  7931 0f30 0d06 0355 0407 0c06 4e65 7761  y1.0...U....Newa
	0x0100:  726b 3112 3010 0603 5504 0a0c 0950 616e  rk1.0...U....Pan
	0x0110:  6173 6f6e 6963 301e 170d 3136 3131 3031  asonic0...161101
	0x0120:  3135 3030 3433 5a17 0d32 3631 3033 3031  150043Z..2610301
	0x0130:  3530 3034 335a 305f 310b 3009 0603 5504  50043Z0_1.0...U.
	0x0140:  0613 0255 5331 1330 1106 0355 0408 0c0a  ...US1.0...U....
	0x0150:  4e65 7720 4a65 7273 6579 310f 300d 0603  New.Jersey1.0...
	0x0160:  5504 070c 064e 6577 6172 6b31 1230 1006  U....Newark1.0..
	0x0170:  0355 040a 0c09 5061 6e61 736f 6e69 6331  .U....Panasonic1
	0x0180:  1630 1406 0355 0403 0c0d 3139 322e 3136  .0...U....192.16
	0x0190:  382e 302e 3135 3330 8201 2230 0d06 092a  8.0.1530.."0...*
	0x01a0:  8648 86f7 0d01 0101 0500 0382 010f 0030  .H.............0
	0x01b0:  8201 0a02 8201 0100 ec25 a79f 83ec 71d2  .........%....q.
	0x01c0:  6554 117b bfa2 de10 ee20 567d 94d3 d8b6  eT.{......V}....
	0x01d0:  6f5f 7cc5 4528 2857 5726 2679 84ae fedd  o_|.E((WW&&y....
	0x01e0:  fe93 f596 bfd8 6ea9 d943 2d8e e80f 66b4  ......n..C-...f.
	0x01f0:  694e bc3f 4094 e2de 5e33 6f4c 5d2b 6a22  iN.?@...^3oL]+j"
	0x0200:  2845 26a6 8abc 1946 c271 d2ed a3eb dcbf  (E&....F.q......
	0x0210:  c191 8451 e99a 7f3a 207f 6173 2f72 acc6  ...Q...:..as/r..
	0x0220:  4efc 9103 53a5 6c0b 3769 48de 884b b291  N...S.l.7iH..K..
	0x0230:  f0fa dc91 d3c3 6cfa 4c13 2875 93b0 0528  ......l.L.(u...(
	0x0240:  65f5 b579 e3e7 f356 02be 7808 0634 bdbf  e..y...V..x..4..
	0x0250:  6572 74eb a070 0620 48fc fc3b 7988 ce63  ert..p..H..;y..c
	0x0260:  e464 259d 4034 d86b ad45 eda8 e34e 61e0  .d%.@4.k.E...Na.
	0x0270:  af8c 70fc adde 3a48 17de 5962 af4e 84ac  ..p...:H..Yb.N..
	0x0280:  3d8b 930b c7e1 cfe5 7296 3190 e445 1480  =.......r.1..E..
	0x0290:  c1d8 bb18 49a9 ec5f 5c6d ec31 ace6 3a67  ....I.._\m.1..:g
	0x02a0:  d9d1 0d5d d46d 18b1 3ec2 fb0c 7353 2b8b  ...].m..>...sS+.
	0x02b0:  0187 e890 63f9 2ef3 0203 0100 0130 0d06  ....c........0..
	0x02c0:  092a 8648 86f7 0d01 010b 0500 0382 0101  .*.H............
	0x02d0:  0074 fec8 91bf a802 0dfc 25c7 76cd fec4  .t........%.v...
	0x02e0:  e1cd 28df 84e5 12b0 3c2b d5fc d5b5 1d0f  ..(.....<+......
	0x02f0:  d6d1 91b9 2710 c053 6556 4f8c 07f2 9536  ....'..SeVO....6
	0x0300:  31cf bd33 6f41 52a4 1cf9 fb70 4439 75ee  1..3oAR....pD9u.
	0x0310:  9e97 8dbf f23d b164 76cb e7b3 50d3 fa30  .....=.dv...P..0
	0x0320:  9a9b 0ae3 157c 3578 ca92 2127 9abd 66ad  .....|5x..!'..f.
	0x0330:  e1fc 30ea 47d8 27f7 8c9a 5344 2bde e671  ..0.G.'...SD+..q
	0x0340:  abc8 118e 71a6 b9d6 cd94 0771 3de2 a767  ....q......q=..g
	0x0350:  fb41 6396 5336 d304 5d02 0f24 ef30 4772  .Ac.S6..]..$.0Gr
	0x0360:  a8e2 81f8 28ac bc83 f5fb 5b6a 49e8 04e2  ....(.....[jI...
	0x0370:  9fe5 6705 3410 6aa3 9ef2 1ea3 2ba4 84ce  ..g.4.j.....+...
	0x0380:  6546 0d5e ed73 5400 9fc6 e84b b216 07c0  eF.^.sT....K....
	0x0390:  4fa9 64df 6f7b 931c 72f4 1f3e bb9a 0f5f  O.d.o{..r..>..._
	0x03a0:  427f 788c 1eae e2b0 e2f9 9289 6cd7 148f  B.x.........l...
	0x03b0:  19ab f167 98a8 67a7 8e42 a4f0 6ab4 168f  ...g..g..B..j...
	0x03c0:  576e dc6b 8016 2aae 8c2e 3a72 9f34 be26  Wn.k..*...:r.4.&
	0x03d0:  c616 0303 0004 0e00 0000                 ..........
14:19:54.637185 IP (tos 0x0, ttl 53, id 38947, offset 0, flags [DF], proto TCP (6), length 52)
    109.228.177.89.46120 > 192.168.1.4.10000: Flags [.], cksum 0x605b (correct), seq 3999041186, ack 3889916167, win 4089, options [nop,nop,TS val 898215187 ecr 106949], length 0
	0x0000:  e060 6614 5712 5046 5dd1 7508 8100 0002  .`f.W.PF].u.....
	0x0010:  0800 4500 0034 9823 4000 3506 ccb6 6de4  ..E..4.#@.5...m.
	0x0020:  b159 c0a8 0104 b428 2710 ee5c 86a2 e7db  .Y.....('..\....
	0x0030:  6907 8010 0ff9 605b 0000 0101 080a 3589  i.....`[......5.
	0x0040:  ad13 0001 a1c5                           ......
14:19:54.645252 IP (tos 0x0, ttl 53, id 25655, offset 0, flags [DF], proto TCP (6), length 319)
    109.228.177.89.46120 > 192.168.1.4.10000: Flags [.], cksum 0x09ae (correct), seq 3999041186:3999041453, ack 3889916167, win 4096, options [nop,nop,TS val 898215194 ecr 106949], length 267
	0x0000:  e060 6614 5712 5046 5dd1 7508 8100 0002  .`f.W.PF].u.....
	0x0010:  0800 4500 013f 6437 4000 3506 ff97 6de4  ..E..?d7@.5...m.
	0x0020:  b159 c0a8 0104 b428 2710 ee5c 86a2 e7db  .Y.....('..\....
	0x0030:  6907 8010 1000 09ae 0000 0101 080a 3589  i.............5.
	0x0040:  ad1a 0001 a1c5 1603 0301 0610 0001 0201  ................
	0x0050:  0090 ce05 bbc0 395e 9325 3081 8b3f 1cb6  ......9^.%0..?..
	0x0060:  6142 78b9 8aee df01 8680 37c8 4772 27c5  aBx.......7.Gr'.
	0x0070:  14cb d75b aa57 96af 6f1b 64a6 72d9 ff2c  ...[.W..o.d.r..,
	0x0080:  4320 e37e 642a 12cf e148 9d6b 85db b3d4  C..~d*...H.k....
	0x0090:  5856 d994 26fa bcce 3447 0f03 8577 246f  XV..&...4G...w$o
	0x00a0:  6720 c5c3 35c7 7599 b970 e772 552c 2cea  g...5.u..p.rU,,.
	0x00b0:  2799 5817 e625 476c 9f06 4d99 aee8 ad98  '.X..%Gl..M.....
	0x00c0:  af9b 5d92 be7e ee56 f590 da07 5ce0 8dc2  ..]..~.V....\...
	0x00d0:  8a81 49e2 9423 76cd 1075 1161 f0cb 8bb1  ..I..#v..u.a....
	0x00e0:  dc11 4e13 f5d2 f784 47d4 eacd 7c95 6801  ..N.....G...|.h.
	0x00f0:  b2b2 1015 297e d535 b858 5a65 a397 2e10  ....)~.5.XZe....
	0x0100:  2546 153a 81cb fb66 8a49 a78c 907f 3154  %F.:...f.I....1T
	0x0110:  5b95 5305 df32 a7b7 b14a 75e7 3c8b f82c  [.S..2...Ju.<..,
	0x0120:  cdb0 4b32 452f db55 d739 f2c1 91e5 4d6e  ..K2E/.U.9....Mn
	0x0130:  9c82 04b4 a21a ccdc c505 5c40 01f9 a2ee  ..........\@....
	0x0140:  ca96 d0e9 01fb 2a8a f6d8 ef8e 82fc e17a  ......*........z
	0x0150:  07                                       .
14:19:54.645309 IP (tos 0x0, ttl 54, id 50174, offset 0, flags [DF], proto TCP (6), length 58)
    109.228.177.89.46120 > 192.168.1.4.10000: Flags [P.], cksum 0x4730 (correct), seq 3999041453:3999041459, ack 3889916167, win 4096, options [nop,nop,TS val 898215194 ecr 106949], length 6
	0x0000:  e060 6614 5712 5046 5dd1 7508 8100 0002  .`f.W.PF].u.....
	0x0010:  0800 4500 003a c3fe 4000 3606 9fd5 6de4  ..E..:..@.6...m.
	0x0020:  b159 c0a8 0104 b428 2710 ee5c 87ad e7db  .Y.....('..\....
	0x0030:  6907 8018 1000 4730 0000 0101 080a 3589  i.....G0......5.
	0x0040:  ad1a 0001 a1c5 1403 0300 0101            ............
14:19:54.645434 IP (tos 0x0, ttl 53, id 51362, offset 0, flags [DF], proto TCP (6), length 97)
    109.228.177.89.46120 > 192.168.1.4.10000: Flags [P.], cksum 0x3286 (correct), seq 3999041459:3999041504, ack 3889916167, win 4096, options [nop,nop,TS val 898215194 ecr 106949], length 45
	0x0000:  e060 6614 5712 5046 5dd1 7508 8100 0002  .`f.W.PF].u.....
	0x0010:  0800 4500 0061 c8a2 4000 3506 9c0a 6de4  ..E..a..@.5...m.
	0x0020:  b159 c0a8 0104 b428 2710 ee5c 87b3 e7db  .Y.....('..\....
	0x0030:  6907 8018 1000 3286 0000 0101 080a 3589  i.....2.......5.
	0x0040:  ad1a 0001 a1c5 1603 0300 2882 6ba6 6bd3  ..........(.k.k.
	0x0050:  0362 8d8f 0260 c382 8619 dc42 ccd8 705f  .b...`.....B..p_
	0x0060:  633e 4410 e1f3 ad2c 7b09 1cae 5fd2 2a65  c>D....,{..._.*e
	0x0070:  ffb9 c5                                  ...
14:19:54.684888 IP (tos 0x0, ttl 64, id 50361, offset 0, flags [DF], proto TCP (6), length 52)
    192.168.1.4.10000 > 109.228.177.89.46120: Flags [.], cksum 0xe110 (incorrect -> 0x6cf5), seq 3889916167, ack 3999041504, win 520, options [nop,nop,TS val 106967 ecr 898215194], length 0
	0x0000:  5046 5dd1 7508 e060 6614 5712 8100 0002  PF].u..`f.W.....
	0x0010:  0800 4500 0034 c4b9 4000 4006 9520 c0a8  ..E..4..@.@.....
	0x0020:  0104 6de4 b159 2710 b428 e7db 6907 ee5c  ..m..Y'..(..i..\
	0x0030:  87e0 8010 0208 e110 0000 0101 080a 0001  ................
	0x0040:  a1d7 3589 ad1a                           ..5...
14:19:54.818132 IP (tos 0x0, ttl 64, id 50362, offset 0, flags [DF], proto TCP (6), length 103)
    192.168.1.4.10000 > 109.228.177.89.46120: Flags [P.], cksum 0xe143 (incorrect -> 0xdc6f), seq 3889916167:3889916218, ack 3999041504, win 520, options [nop,nop,TS val 107000 ecr 898215194], length 51
	0x0000:  5046 5dd1 7508 e060 6614 5712 8100 0002  PF].u..`f.W.....
	0x0010:  0800 4500 0067 c4ba 4000 4006 94ec c0a8  ..E..g..@.@.....
	0x0020:  0104 6de4 b159 2710 b428 e7db 6907 ee5c  ..m..Y'..(..i..\
	0x0030:  87e0 8018 0208 e143 0000 0101 080a 0001  .......C........
	0x0040:  a1f8 3589 ad1a 1403 0300 0101 1603 0300  ..5.............
	0x0050:  2899 2088 ec72 fa65 dd96 2df5 8dbc d805  (....r.e..-.....
	0x0060:  bef4 19e3 20d4 b44e 450d 0282 3a90 c971  .......NE...:..q
	0x0070:  5711 5757 4b6f 4675 84                   W.WWKoFu.
14:19:54.839736 IP (tos 0x0, ttl 53, id 22629, offset 0, flags [DF], proto TCP (6), length 52)
    109.228.177.89.46120 > 192.168.1.4.10000: Flags [.], cksum 0x5de9 (correct), seq 3999041504, ack 3889916218, win 4094, options [nop,nop,TS val 898215388 ecr 107000], length 0
	0x0000:  e060 6614 5712 5046 5dd1 7508 8100 0002  .`f.W.PF].u.....
	0x0010:  0800 4500 0034 5865 4000 3506 0c75 6de4  ..E..4Xe@.5..um.
	0x0020:  b159 c0a8 0104 b428 2710 ee5c 87e0 e7db  .Y.....('..\....
	0x0030:  693a 8010 0ffe 5de9 0000 0101 080a 3589  i:....].......5.
	0x0040:  addc 0001 a1f8                           ......
14:19:54.841277 IP (tos 0x0, ttl 53, id 38327, offset 0, flags [DF], proto TCP (6), length 477)
    109.228.177.89.46120 > 192.168.1.4.10000: Flags [P.], cksum 0xa898 (correct), seq 3999041504:3999041929, ack 3889916218, win 4096, options [nop,nop,TS val 898215389 ecr 107000], length 425
	0x0000:  e060 6614 5712 5046 5dd1 7508 8100 0002  .`f.W.PF].u.....
	0x0010:  0800 4500 01dd 95b7 4000 3506 cd79 6de4  ..E.....@.5..ym.
	0x0020:  b159 c0a8 0104 b428 2710 ee5c 87e0 e7db  .Y.....('..\....
	0x0030:  693a 8018 1000 a898 0000 0101 080a 3589  i:............5.
	0x0040:  addd 0001 a1f8 1703 0301 a482 6ba6 6bd3  ............k.k.
	0x0050:  0362 8ef0 016c 7ae9 3b29 2fdd cc61 8ba9  .b...lz.;)/..a..
	0x0060:  287f e233 c9ed 03e2 3d71 62a4 06e8 e5d4  (..3....=qb.....
	0x0070:  2918 b346 c482 d56b 122f e778 4b7f 9bfe  )..F...k./.xK...
	0x0080:  5723 a366 0577 50e2 688d 431c 5439 c21f  W#.f.wP.h.C.T9..
	0x0090:  9aea f5cf 00e5 18d1 d404 276d a45d 6a7a  ..........'m.]jz
	0x00a0:  66d0 3835 f2e6 e353 a358 1e19 c9ef 1aae  f.85...S.X......
	0x00b0:  cd42 f41f 32a7 5616 abdd add8 5830 77d9  .B..2.V.....X0w.
	0x00c0:  fb1e 3bc1 7f54 eba8 4ec7 d488 2efc c13a  ..;..T..N......:
	0x00d0:  79ec 5da4 5f93 a493 4617 4c1c e77b 0ab4  y.]._...F.L..{..
	0x00e0:  a8c1 3c69 bfd1 b19d 1d13 e149 0223 594b  ..<i.......I.#YK
	0x00f0:  67f7 18c9 8eae b31d 68a3 7ce1 00d4 a972  g.......h.|....r
	0x0100:  c0bb 0f41 e8ff 95ce e1b0 4bd8 3d12 f5e5  ...A......K.=...
	0x0110:  9b99 327f fe18 6dfe 2c5c 98a1 433a 4e26  ..2...m.,\..C:N&
	0x0120:  6291 ca07 7c88 18cf 9c9f b7c6 e57b 2491  b...|........{$.
	0x0130:  4bb8 bb10 9570 a7ff 32fb 37a6 03d2 636a  K....p..2.7...cj
	0x0140:  5067 bf43 b30a 9fba 065d 8465 6351 b1a8  Pg.C.....].ecQ..
	0x0150:  b8f9 5f81 5305 aba4 7fd8 a95d a33a 9497  .._.S......].:..
	0x0160:  3457 8633 7b48 fa24 4d27 337e cad5 1b75  4W.3{H.$M'3~...u
	0x0170:  e97a a20f 65ef 498c 6fbf f032 cf86 8b08  .z..e.I.o..2....
	0x0180:  2b97 2744 e0d3 0e30 3794 a994 fb2b 7f63  +.'D...07....+.c
	0x0190:  b1e1 2823 5807 4c52 0f4e 0852 f144 5b79  ..(#X.LR.N.R.D[y
	0x01a0:  9d57 46d1 e252 aa0d 5a5c b18e abcd 38d5  .WF..R..Z\....8.
	0x01b0:  2ae5 cd34 dc2a 2284 48cf bb02 8229 8d53  *..4.*".H....).S
	0x01c0:  9420 0e16 a484 e8cb 2a42 a19b 5802 a559  ........*B..X..Y
	0x01d0:  0168 951a 2680 94fa 37ca 18d0 c029 dd91  .h..&...7....)..
	0x01e0:  2bbb 3cb8 55b7 3ae5 bc78 9418 43ae f1    +.<.U.:..x..C..
14:19:54.841409 IP (tos 0x0, ttl 64, id 50363, offset 0, flags [DF], proto TCP (6), length 52)
    192.168.1.4.10000 > 109.228.177.89.46120: Flags [.], cksum 0xe110 (incorrect -> 0x6a0e), seq 3889916218, ack 3999041929, win 553, options [nop,nop,TS val 107006 ecr 898215389], length 0
	0x0000:  5046 5dd1 7508 e060 6614 5712 8100 0002  PF].u..`f.W.....
	0x0010:  0800 4500 0034 c4bb 4000 4006 951e c0a8  ..E..4..@.@.....
	0x0020:  0104 6de4 b159 2710 b428 e7db 693a ee5c  ..m..Y'..(..i:.\
	0x0030:  8989 8010 0229 e110 0000 0101 080a 0001  .....)..........
	0x0040:  a1fe 3589 addd                           ..5...
14:19:54.848982 IP (tos 0x0, ttl 64, id 50364, offset 0, flags [DF], proto TCP (6), length 108)
    192.168.1.4.10000 > 109.228.177.89.46120: Flags [P.], cksum 0xe148 (incorrect -> 0x99c2), seq 3889916218:3889916274, ack 3999041929, win 553, options [nop,nop,TS val 107008 ecr 898215389], length 56
	0x0000:  5046 5dd1 7508 e060 6614 5712 8100 0002  PF].u..`f.W.....
	0x0010:  0800 4500 006c c4bc 4000 4006 94e5 c0a8  ..E..l..@.@.....
	0x0020:  0104 6de4 b159 2710 b428 e7db 693a ee5c  ..m..Y'..(..i:.\
	0x0030:  8989 8018 0229 e148 0000 0101 080a 0001  .....).H........
	0x0040:  a200 3589 addd 1703 0300 3399 2088 ec72  ..5.......3....r
	0x0050:  fa65 ded5 3aa3 8ac1 e14c 523c f0e1 e2f6  .e..:....LR<....
	0x0060:  86bf fe71 de6b f8e7 fe65 a653 0c18 9ec1  ...q.k...e.S....
	0x0070:  ff8b 7448 b5fe 9562 bf6c 0d7b 9739       ..tH...b.l.{.9
14:19:54.849332 IP (tos 0x0, ttl 64, id 50365, offset 0, flags [DF], proto TCP (6), length 52)
    192.168.1.4.10000 > 109.228.177.89.46120: Flags [F.], cksum 0xe110 (incorrect -> 0x69d3), seq 3889916274, ack 3999041929, win 553, options [nop,nop,TS val 107008 ecr 898215389], length 0
	0x0000:  5046 5dd1 7508 e060 6614 5712 8100 0002  PF].u..`f.W.....
	0x0010:  0800 4500 0034 c4bd 4000 4006 951c c0a8  ..E..4..@.@.....
	0x0020:  0104 6de4 b159 2710 b428 e7db 6972 ee5c  ..m..Y'..(..ir.\
	0x0030:  8989 8011 0229 e110 0000 0101 080a 0001  .....)..........
	0x0040:  a200 3589 addd                           ..5...
14:19:54.870125 IP (tos 0x0, ttl 52, id 747, offset 0, flags [DF], proto TCP (6), length 52)
    109.228.177.89.46120 > 192.168.1.4.10000: Flags [.], cksum 0x5be3 (correct), seq 3999041929, ack 3889916274, win 4094, options [nop,nop,TS val 898215417 ecr 107008], length 0
	0x0000:  e060 6614 5712 5046 5dd1 7508 8100 0002  .`f.W.PF].u.....
	0x0010:  0800 4500 0034 02eb 4000 3406 62ef 6de4  ..E..4..@.4.b.m.
	0x0020:  b159 c0a8 0104 b428 2710 ee5c 8989 e7db  .Y.....('..\....
	0x0030:  6972 8010 0ffe 5be3 0000 0101 080a 3589  ir....[.......5.
	0x0040:  adf9 0001 a200                           ......
14:19:54.871072 IP (tos 0x0, ttl 52, id 47481, offset 0, flags [DF], proto TCP (6), length 52)
    109.228.177.89.46120 > 192.168.1.4.10000: Flags [.], cksum 0x5bdf (correct), seq 3999041929, ack 3889916275, win 4096, options [nop,nop,TS val 898215418 ecr 107008], length 0
	0x0000:  e060 6614 5712 5046 5dd1 7508 8100 0002  .`f.W.PF].u.....
	0x0010:  0800 4500 0034 b979 4000 3406 ac60 6de4  ..E..4.y@.4..`m.
	0x0020:  b159 c0a8 0104 b428 2710 ee5c 8989 e7db  .Y.....('..\....
	0x0030:  6973 8010 1000 5bdf 0000 0101 080a 3589  is....[.......5.
	0x0040:  adfa 0001 a200                           ......
14:19:54.871406 IP (tos 0x0, ttl 52, id 39256, offset 0, flags [DF], proto TCP (6), length 52)
    109.228.177.89.46120 > 192.168.1.4.10000: Flags [F.], cksum 0x5bde (correct), seq 3999041929, ack 3889916275, win 4096, options [nop,nop,TS val 898215418 ecr 107008], length 0
	0x0000:  e060 6614 5712 5046 5dd1 7508 8100 0002  .`f.W.PF].u.....
	0x0010:  0800 4500 0034 9958 4000 3406 cc81 6de4  ..E..4.X@.4...m.
	0x0020:  b159 c0a8 0104 b428 2710 ee5c 8989 e7db  .Y.....('..\....
	0x0030:  6973 8011 1000 5bde 0000 0101 080a 3589  is....[.......5.
	0x0040:  adfa 0001 a200                           ......
14:19:54.871540 IP (tos 0x0, ttl 64, id 0, offset 0, flags [DF], proto TCP (6), length 52)
    192.168.1.4.10000 > 109.228.177.89.46120: Flags [.], cksum 0x69b0 (correct), seq 3889916275, ack 3999041930, win 553, options [nop,nop,TS val 107013 ecr 898215418], length 0
	0x0000:  5046 5dd1 7508 e060 6614 5712 8100 0002  PF].u..`f.W.....
	0x0010:  0800 4500 0034 0000 4000 4006 59da c0a8  ..E..4..@.@.Y...
	0x0020:  0104 6de4 b159 2710 b428 e7db 6973 ee5c  ..m..Y'..(..is.\
	0x0030:  898a 8010 0229 69b0 0000 0101 080a 0001  .....)i.........
	0x0040:  a205 3589 adfa                           ..5...



