14:10:54.874425 IP (tos 0x0, ttl 52, id 42885, offset 0, flags [DF], proto TCP (6), length 64)
    109.228.177.89.46326 > 192.168.1.4.10000: Flags [S], cksum 0xeebe (correct), seq 2973247225, win 65535, options [mss 1460,nop,wscale 5,nop,nop,TS val 897678746 ecr 0,sackOK,eol], length 0
	0x0000:  e060 6614 5712 5046 5dd1 7508 8100 0002  .`f.W.PF].u.....
	0x0010:  0800 4500 0040 a785 4000 3406 be48 6de4  ..E..@..@.4..Hm.
	0x0020:  b159 c0a8 0104 b4f6 2710 b138 26f9 0000  .Y......'..8&...
	0x0030:  0000 b002 ffff eebe 0000 0204 05b4 0103  ................
	0x0040:  0305 0101 080a 3581 7d9a 0000 0000 0402  ......5.}.......
	0x0050:  0000                                     ..
14:10:54.874651 IP (tos 0x0, ttl 64, id 0, offset 0, flags [DF], proto TCP (6), length 60)
    192.168.1.4.10000 > 109.228.177.89.46326: Flags [S.], cksum 0xe118 (incorrect -> 0xf96d), seq 2837352935, ack 2973247226, win 14480, options [mss 1460,sackOK,TS val 4294939310 ecr 897678746,nop,wscale 5], length 0
	0x0000:  5046 5dd1 7508 e060 6614 5712 8100 0002  PF].u..`f.W.....
	0x0010:  0800 4500 003c 0000 4000 4006 59d2 c0a8  ..E..<..@.@.Y...
	0x0020:  0104 6de4 b159 2710 b4f6 a91e 91e7 b138  ..m..Y'........8
	0x0030:  26fa a012 3890 e118 0000 0204 05b4 0402  &...8...........
	0x0040:  080a ffff 92ae 3581 7d9a 0103 0305       ......5.}.....
14:10:54.895541 IP (tos 0x0, ttl 52, id 58848, offset 0, flags [DF], proto TCP (6), length 52)
    109.228.177.89.46326 > 192.168.1.4.10000: Flags [.], cksum 0x509d (correct), seq 2973247226, ack 2837352936, win 4117, options [nop,nop,TS val 897678768 ecr 4294939310], length 0
	0x0000:  e060 6614 5712 5046 5dd1 7508 8100 0002  .`f.W.PF].u.....
	0x0010:  0800 4500 0034 e5e0 4000 3406 7ff9 6de4  ..E..4..@.4...m.
	0x0020:  b159 c0a8 0104 b4f6 2710 b138 26fa a91e  .Y......'..8&...
	0x0030:  91e8 8010 1015 509d 0000 0101 080a 3581  ......P.......5.
	0x0040:  7db0 ffff 92ae                           }.....
14:10:54.897250 IP (tos 0x0, ttl 53, id 52768, offset 0, flags [DF], proto TCP (6), length 280)
    109.228.177.89.46326 > 192.168.1.4.10000: Flags [P.], cksum 0x02e3 (correct), seq 2973247226:2973247454, ack 2837352936, win 4117, options [nop,nop,TS val 897678769 ecr 4294939310], length 228
	0x0000:  e060 6614 5712 5046 5dd1 7508 8100 0002  .`f.W.PF].u.....
	0x0010:  0800 4500 0118 ce20 4000 3506 95d5 6de4  ..E.....@.5...m.
	0x0020:  b159 c0a8 0104 b4f6 2710 b138 26fa a91e  .Y......'..8&...
	0x0030:  91e8 8018 1015 02e3 0000 0101 080a 3581  ..............5.
	0x0040:  7db1 ffff 92ae 1603 0300 df01 0000 db03  }...............
	0x0050:  0358 1b5b e0a3 1669 6951 4e33 00c0 85b7  .X.[...iiQN3....
	0x0060:  b010 1096 8f0f fc65 672c 7de1 9892 5acf  .......eg,}...Z.
	0x0070:  5500 002c 00ff c02c c02b c024 c023 c00a  U..,...,.+.$.#..
	0x0080:  c009 c008 c030 c02f c028 c027 c014 c013  .....0./.(.'....
	0x0090:  c012 009d 009c 003d 003c 0035 002f 000a  .......=.<.5./..
	0x00a0:  0100 0086 0000 0011 000f 0000 0c38 322e  .............82.
	0x00b0:  3939 2e32 342e 3138 3300 0a00 0800 0600  99.24.183.......
	0x00c0:  1700 1800 1900 0b00 0201 0000 0d00 1200  ................
	0x00d0:  1004 0102 0105 0106 0104 0302 0305 0306  ................
	0x00e0:  0333 7400 0000 1000 3000 2e02 6832 0568  .3t.....0...h2.h
	0x00f0:  322d 3136 0568 322d 3135 0568 322d 3134  2-16.h2-15.h2-14
	0x0100:  0873 7064 792f 332e 3106 7370 6479 2f33  .spdy/3.1.spdy/3
	0x0110:  0868 7474 702f 312e 3100 0500 0501 0000  .http/1.1.......
	0x0120:  0000 0012 0000 0017 0000                 ..........
14:10:54.897446 IP (tos 0x0, ttl 64, id 859, offset 0, flags [DF], proto TCP (6), length 52)
    192.168.1.4.10000 > 109.228.177.89.46326: Flags [.], cksum 0xe110 (incorrect -> 0x5de1), seq 2837352936, ack 2973247454, win 486, options [nop,nop,TS val 4294939316 ecr 897678769], length 0
	0x0000:  5046 5dd1 7508 e060 6614 5712 8100 0002  PF].u..`f.W.....
	0x0010:  0800 4500 0034 035b 4000 4006 567f c0a8  ..E..4.[@.@.V...
	0x0020:  0104 6de4 b159 2710 b4f6 a91e 91e8 b138  ..m..Y'........8
	0x0030:  27de 8010 01e6 e110 0000 0101 080a ffff  '...............
	0x0040:  92b4 3581 7db1                           ..5.}.
14:10:54.901990 IP (tos 0x0, ttl 64, id 860, offset 0, flags [DF], proto TCP (6), length 968)
    192.168.1.4.10000 > 109.228.177.89.46326: Flags [P.], cksum 0xe4a4 (incorrect -> 0x2af2), seq 2837352936:2837353852, ack 2973247454, win 486, options [nop,nop,TS val 4294939317 ecr 897678769], length 916
	0x0000:  5046 5dd1 7508 e060 6614 5712 8100 0002  PF].u..`f.W.....
	0x0010:  0800 4500 03c8 035c 4000 4006 52ea c0a8  ..E....\@.@.R...
	0x0020:  0104 6de4 b159 2710 b4f6 a91e 91e8 b138  ..m..Y'........8
	0x0030:  27de 8018 01e6 e4a4 0000 0101 080a ffff  '...............
	0x0040:  92b5 3581 7db1 1603 0300 5102 0000 4d03  ..5.}.....Q...M.
	0x0050:  03ab 93dd 93f3 a22c a30f 749b 595b 5c3a  .......,..t.Y[\:
	0x0060:  4c01 afac e504 714a c752 2ab0 05b9 f0e6  L.....qJ.R*.....
	0x0070:  4e20 ed33 8c93 8a3e 3519 7956 d3ea 13a4  N..3...>5.yV....
	0x0080:  5d8c 3fb2 2497 8f55 0cb2 5790 8509 9d7c  ].?.$..U..W....|
	0x0090:  e4ea 009d 0000 05ff 0100 0100 1603 0303  ................
	0x00a0:  300b 0003 2c00 0329 0003 2630 8203 2230  0...,..)..&0.."0
	0x00b0:  8202 0a02 0900 d41f 0640 5afe 974d 300d  .........@Z..M0.
	0x00c0:  0609 2a86 4886 f70d 0101 0b05 0030 4731  ..*.H........0G1
	0x00d0:  0b30 0906 0355 0406 1302 5553 3113 3011  .0...U....US1.0.
	0x00e0:  0603 5504 080c 0a4e 6577 204a 6572 7365  ..U....New.Jerse
	0x00f0:  7931 0f30 0d06 0355 0407 0c06 4e65 7761  y1.0...U....Newa
	0x0100:  726b 3112 3010 0603 5504 0a0c 0950 616e  rk1.0...U....Pan
	0x0110:  6173 6f6e 6963 301e 170d 3136 3131 3031  asonic0...161101
	0x0120:  3135 3030 3433 5a17 0d32 3631 3033 3031  150043Z..2610301
	0x0130:  3530 3034 335a 305f 310b 3009 0603 5504  50043Z0_1.0...U.
	0x0140:  0613 0255 5331 1330 1106 0355 0408 0c0a  ...US1.0...U....
	0x0150:  4e65 7720 4a65 7273 6579 310f 300d 0603  New.Jersey1.0...
	0x0160:  5504 070c 064e 6577 6172 6b31 1230 1006  U....Newark1.0..
	0x0170:  0355 040a 0c09 5061 6e61 736f 6e69 6331  .U....Panasonic1
	0x0180:  1630 1406 0355 0403 0c0d 3139 322e 3136  .0...U....192.16
	0x0190:  382e 302e 3135 3330 8201 2230 0d06 092a  8.0.1530.."0...*
	0x01a0:  8648 86f7 0d01 0101 0500 0382 010f 0030  .H.............0
	0x01b0:  8201 0a02 8201 0100 ec25 a79f 83ec 71d2  .........%....q.
	0x01c0:  6554 117b bfa2 de10 ee20 567d 94d3 d8b6  eT.{......V}....
	0x01d0:  6f5f 7cc5 4528 2857 5726 2679 84ae fedd  o_|.E((WW&&y....
	0x01e0:  fe93 f596 bfd8 6ea9 d943 2d8e e80f 66b4  ......n..C-...f.
	0x01f0:  694e bc3f 4094 e2de 5e33 6f4c 5d2b 6a22  iN.?@...^3oL]+j"
	0x0200:  2845 26a6 8abc 1946 c271 d2ed a3eb dcbf  (E&....F.q......
	0x0210:  c191 8451 e99a 7f3a 207f 6173 2f72 acc6  ...Q...:..as/r..
	0x0220:  4efc 9103 53a5 6c0b 3769 48de 884b b291  N...S.l.7iH..K..
	0x0230:  f0fa dc91 d3c3 6cfa 4c13 2875 93b0 0528  ......l.L.(u...(
	0x0240:  65f5 b579 e3e7 f356 02be 7808 0634 bdbf  e..y...V..x..4..
	0x0250:  6572 74eb a070 0620 48fc fc3b 7988 ce63  ert..p..H..;y..c
	0x0260:  e464 259d 4034 d86b ad45 eda8 e34e 61e0  .d%.@4.k.E...Na.
	0x0270:  af8c 70fc adde 3a48 17de 5962 af4e 84ac  ..p...:H..Yb.N..
	0x0280:  3d8b 930b c7e1 cfe5 7296 3190 e445 1480  =.......r.1..E..
	0x0290:  c1d8 bb18 49a9 ec5f 5c6d ec31 ace6 3a67  ....I.._\m.1..:g
	0x02a0:  d9d1 0d5d d46d 18b1 3ec2 fb0c 7353 2b8b  ...].m..>...sS+.
	0x02b0:  0187 e890 63f9 2ef3 0203 0100 0130 0d06  ....c........0..
	0x02c0:  092a 8648 86f7 0d01 010b 0500 0382 0101  .*.H............
	0x02d0:  0074 fec8 91bf a802 0dfc 25c7 76cd fec4  .t........%.v...
	0x02e0:  e1cd 28df 84e5 12b0 3c2b d5fc d5b5 1d0f  ..(.....<+......
	0x02f0:  d6d1 91b9 2710 c053 6556 4f8c 07f2 9536  ....'..SeVO....6
	0x0300:  31cf bd33 6f41 52a4 1cf9 fb70 4439 75ee  1..3oAR....pD9u.
	0x0310:  9e97 8dbf f23d b164 76cb e7b3 50d3 fa30  .....=.dv...P..0
	0x0320:  9a9b 0ae3 157c 3578 ca92 2127 9abd 66ad  .....|5x..!'..f.
	0x0330:  e1fc 30ea 47d8 27f7 8c9a 5344 2bde e671  ..0.G.'...SD+..q
	0x0340:  abc8 118e 71a6 b9d6 cd94 0771 3de2 a767  ....q......q=..g
	0x0350:  fb41 6396 5336 d304 5d02 0f24 ef30 4772  .Ac.S6..]..$.0Gr
	0x0360:  a8e2 81f8 28ac bc83 f5fb 5b6a 49e8 04e2  ....(.....[jI...
	0x0370:  9fe5 6705 3410 6aa3 9ef2 1ea3 2ba4 84ce  ..g.4.j.....+...
	0x0380:  6546 0d5e ed73 5400 9fc6 e84b b216 07c0  eF.^.sT....K....
	0x0390:  4fa9 64df 6f7b 931c 72f4 1f3e bb9a 0f5f  O.d.o{..r..>..._
	0x03a0:  427f 788c 1eae e2b0 e2f9 9289 6cd7 148f  B.x.........l...
	0x03b0:  19ab f167 98a8 67a7 8e42 a4f0 6ab4 168f  ...g..g..B..j...
	0x03c0:  576e dc6b 8016 2aae 8c2e 3a72 9f34 be26  Wn.k..*...:r.4.&
	0x03d0:  c616 0303 0004 0e00 0000                 ..........
14:10:54.922930 IP (tos 0x0, ttl 53, id 43763, offset 0, flags [DF], proto TCP (6), length 52)
    109.228.177.89.46326 > 192.168.1.4.10000: Flags [.], cksum 0x4c20 (correct), seq 2973247454, ack 2837353852, win 4089, options [nop,nop,TS val 897678794 ecr 4294939317], length 0
	0x0000:  e060 6614 5712 5046 5dd1 7508 8100 0002  .`f.W.PF].u.....
	0x0010:  0800 4500 0034 aaf3 4000 3506 b9e6 6de4  ..E..4..@.5...m.
	0x0020:  b159 c0a8 0104 b4f6 2710 b138 27de a91e  .Y......'..8'...
	0x0030:  957c 8010 0ff9 4c20 0000 0101 080a 3581  .|....L.......5.
	0x0040:  7dca ffff 92b5                           }.....
14:10:54.926216 IP (tos 0x0, ttl 53, id 24419, offset 0, flags [DF], proto TCP (6), length 319)
    109.228.177.89.46326 > 192.168.1.4.10000: Flags [.], cksum 0x92ef (correct), seq 2973247454:2973247721, ack 2837353852, win 4096, options [nop,nop,TS val 897678796 ecr 4294939317], length 267
	0x0000:  e060 6614 5712 5046 5dd1 7508 8100 0002  .`f.W.PF].u.....
	0x0010:  0800 4500 013f 5f63 4000 3506 046c 6de4  ..E..?_c@.5..lm.
	0x0020:  b159 c0a8 0104 b4f6 2710 b138 27de a91e  .Y......'..8'...
	0x0030:  957c 8010 1000 92ef 0000 0101 080a 3581  .|............5.
	0x0040:  7dcc ffff 92b5 1603 0301 0610 0001 0201  }...............
	0x0050:  00a4 3e76 0e28 6f56 40fc 1b72 7bfa 6bfb  ..>v.(oV@..r{.k.
	0x0060:  33b6 43d7 46c4 1d94 6c48 e72e 3ceb 3cee  3.C.F...lH..<.<.
	0x0070:  0ad8 5ae1 63a5 9a6d 62c7 6ae3 c160 1083  ..Z.c..mb.j..`..
	0x0080:  9081 b654 a6f7 af39 cf11 76f7 5d2d d328  ...T...9..v.]-.(
	0x0090:  a22b d817 8a93 a779 e60c e754 c531 395c  .+.....y...T.19\
	0x00a0:  7785 7ebc 19fc 7625 456c 72bd b8cf 1c9c  w.~...v%Elr.....
	0x00b0:  c75b 0c79 9879 52f6 be0d 8119 659f be1c  .[.y.yR.....e...
	0x00c0:  fa2f 4385 165b 777b 7b4b 85fc d1d4 f1e9  ./C..[w{{K......
	0x00d0:  d5f2 0d3b 6ccd 59e0 bfa4 3607 236c 9644  ...;l.Y...6.#l.D
	0x00e0:  8c41 03b9 2986 4291 5a48 d9f8 bd59 25aa  .A..).B.ZH...Y%.
	0x00f0:  e601 6e06 2ae0 ce87 5de9 77d4 9572 bdb7  ..n.*...].w..r..
	0x0100:  6f91 105c b5e7 fe3c 7f8f cdc4 1d59 1044  o..\...<.....Y.D
	0x0110:  78c0 d140 dd19 4681 ac70 0cd0 4d1e abed  x..@..F..p..M...
	0x0120:  f439 c085 1c26 97ea f10d 7b15 a86e 6b70  .9...&....{..nkp
	0x0130:  574c b31f f1a7 c154 03e5 621b 0381 6d10  WL.....T..b...m.
	0x0140:  63b1 7a67 f618 7a2f 92dd ee09 191e 5a13  c.zg..z/......Z.
	0x0150:  26                                       &
14:10:54.926272 IP (tos 0x0, ttl 54, id 49577, offset 0, flags [DF], proto TCP (6), length 58)
    109.228.177.89.46326 > 192.168.1.4.10000: Flags [P.], cksum 0x32fa (correct), seq 2973247721:2973247727, ack 2837353852, win 4096, options [nop,nop,TS val 897678796 ecr 4294939317], length 6
	0x0000:  e060 6614 5712 5046 5dd1 7508 8100 0002  .`f.W.PF].u.....
	0x0010:  0800 4500 003a c1a9 4000 3606 a22a 6de4  ..E..:..@.6..*m.
	0x0020:  b159 c0a8 0104 b4f6 2710 b138 28e9 a91e  .Y......'..8(...
	0x0030:  957c 8018 1000 32fa 0000 0101 080a 3581  .|....2.......5.
	0x0040:  7dcc ffff 92b5 1403 0300 0101            }...........
14:10:54.926702 IP (tos 0x0, ttl 53, id 61686, offset 0, flags [DF], proto TCP (6), length 97)
    109.228.177.89.46326 > 192.168.1.4.10000: Flags [P.], cksum 0x51e0 (correct), seq 2973247727:2973247772, ack 2837353852, win 4096, options [nop,nop,TS val 897678796 ecr 4294939317], length 45
	0x0000:  e060 6614 5712 5046 5dd1 7508 8100 0002  .`f.W.PF].u.....
	0x0010:  0800 4500 0061 f0f6 4000 3506 73b6 6de4  ..E..a..@.5.s.m.
	0x0020:  b159 c0a8 0104 b4f6 2710 b138 28ef a91e  .Y......'..8(...
	0x0030:  957c 8018 1000 51e0 0000 0101 080a 3581  .|....Q.......5.
	0x0040:  7dcc ffff 92b5 1603 0300 287a 5c92 f0ab  }.........(z\...
	0x0050:  59d3 24ce 1558 396b 006b a293 1121 d034  Y.$..X9k.k...!.4
	0x0060:  d47b 3837 d6f8 b624 0609 251f ef27 9518  .{87...$..%..'..
	0x0070:  3442 9b                                  4B.
14:10:54.964889 IP (tos 0x0, ttl 64, id 861, offset 0, flags [DF], proto TCP (6), length 52)
    192.168.1.4.10000 > 109.228.177.89.46326: Flags [.], cksum 0xe110 (incorrect -> 0x58c1), seq 2837353852, ack 2973247772, win 520, options [nop,nop,TS val 4294939333 ecr 897678796], length 0
	0x0000:  5046 5dd1 7508 e060 6614 5712 8100 0002  PF].u..`f.W.....
	0x0010:  0800 4500 0034 035d 4000 4006 567d c0a8  ..E..4.]@.@.V}..
	0x0020:  0104 6de4 b159 2710 b4f6 a91e 957c b138  ..m..Y'......|.8
	0x0030:  291c 8010 0208 e110 0000 0101 080a ffff  )...............
	0x0040:  92c5 3581 7dcc                           ..5.}.
14:10:55.098812 IP (tos 0x0, ttl 64, id 862, offset 0, flags [DF], proto TCP (6), length 103)
    192.168.1.4.10000 > 109.228.177.89.46326: Flags [P.], cksum 0xe143 (incorrect -> 0x6ba7), seq 2837353852:2837353903, ack 2973247772, win 520, options [nop,nop,TS val 4294939366 ecr 897678796], length 51
	0x0000:  5046 5dd1 7508 e060 6614 5712 8100 0002  PF].u..`f.W.....
	0x0010:  0800 4500 0067 035e 4000 4006 5649 c0a8  ..E..g.^@.@.VI..
	0x0020:  0104 6de4 b159 2710 b4f6 a91e 957c b138  ..m..Y'......|.8
	0x0030:  291c 8018 0208 e143 0000 0101 080a ffff  )......C........
	0x0040:  92e6 3581 7dcc 1403 0300 0101 1603 0300  ..5.}...........
	0x0050:  2836 4536 db6e 8c9e 55d9 d848 5119 c27d  (6E6.n..U..HQ..}
	0x0060:  9bd4 952f 3e80 60f2 f086 7dc6 1c79 3520  .../>.`...}..y5.
	0x0070:  9cf5 d166 3c96 5933 10                   ...f<.Y3.
14:10:55.120330 IP (tos 0x0, ttl 53, id 51616, offset 0, flags [DF], proto TCP (6), length 52)
    109.228.177.89.46326 > 192.168.1.4.10000: Flags [.], cksum 0x49b6 (correct), seq 2973247772, ack 2837353903, win 4094, options [nop,nop,TS val 897678989 ecr 4294939366], length 0
	0x0000:  e060 6614 5712 5046 5dd1 7508 8100 0002  .`f.W.PF].u.....
	0x0010:  0800 4500 0034 c9a0 4000 3506 9b39 6de4  ..E..4..@.5..9m.
	0x0020:  b159 c0a8 0104 b4f6 2710 b138 291c a91e  .Y......'..8)...
	0x0030:  95af 8010 0ffe 49b6 0000 0101 080a 3581  ......I.......5.
	0x0040:  7e8d ffff 92e6                           ~.....
14:10:55.121861 IP (tos 0x0, ttl 53, id 19826, offset 0, flags [DF], proto TCP (6), length 478)
    109.228.177.89.46326 > 192.168.1.4.10000: Flags [.], cksum 0xd46f (correct), seq 2973247772:2973248198, ack 2837353903, win 4096, options [nop,nop,TS val 897678990 ecr 4294939366], length 426
	0x0000:  e060 6614 5712 5046 5dd1 7508 8100 0002  .`f.W.PF].u.....
	0x0010:  0800 4500 01de 4d72 4000 3506 15be 6de4  ..E...Mr@.5...m.
	0x0020:  b159 c0a8 0104 b4f6 2710 b138 291c a91e  .Y......'..8)...
	0x0030:  95af 8010 1000 d46f 0000 0101 080a 3581  .......o......5.
	0x0040:  7e8e ffff 92e6 1703 0301 a57a 5c92 f0ab  ~..........z\...
	0x0050:  59d3 2598 c0a1 af67 1228 cd72 28d7 02f5  Y.%....g.(.r(...
	0x0060:  afe3 ff3e a9e6 240c 2846 c3a0 c27f 59fa  ...>..$.(F....Y.
	0x0070:  561a a14f ff95 bb2b 1b99 9d08 f25c a5c7  V..O...+.....\..
	0x0080:  b8da 66a8 8818 fd10 d2a5 53e1 384c bdee  ..f.......S.8L..
	0x0090:  557a a592 430c 1739 8cf3 072f eaca 74f2  Uz..C..9.../..t.
	0x00a0:  1540 8b39 e538 299c 332a f1ec 1c8b d783  .@.9.8).3*......
	0x00b0:  9ff6 c84b 9beb 7555 97e9 a5e7 d6a2 cbfb  ...K..uU........
	0x00c0:  32d5 b936 8fa7 2852 1482 a8dd c10d db73  2..6..(R.......s
	0x00d0:  698a 2697 c01c c5cb 1db4 5b21 3fd4 8a39  i.&.......[!?..9
	0x00e0:  fcc1 e814 97eb d0fb 6ee0 0b72 a714 0329  ........n..r...)
	0x00f0:  4467 9956 5493 ab78 17fd ab10 a9e6 7d7c  Dg.VT..x......}|
	0x0100:  084d 6141 78ea d947 42c1 a746 412b 612c  .MaAx..GB..FA+a,
	0x0110:  9007 91de 3f16 f20b b16a 887a e627 b0c5  ....?....j.z.'..
	0x0120:  5b25 2f1a 588d 7b39 8536 d12e a035 85fb  [%/.X.{9.6...5..
	0x0130:  e72a a7d3 eebd 1468 65b7 65ff 9670 7b70  .*.....he.e..p{p
	0x0140:  43a5 d9a1 fbc6 6b3e e0c6 3eea 2999 2829  C.....k>..>.).()
	0x0150:  7fbd dbd5 9a0f 5c94 3f92 0571 877c a9b6  ......\.?..q.|..
	0x0160:  7f82 37cf 570e c337 275b 8610 9d02 3dee  ..7.W..7'[....=.
	0x0170:  846c 787d 54fa 734f 88a8 4996 5c1b 7d8e  .lx}T.sO..I.\.}.
	0x0180:  1b8c db94 fcfd 97c3 ce40 a2a6 e1c8 e897  .........@......
	0x0190:  7113 9852 911d d6c8 39ce fed2 47ac f411  q..R....9...G...
	0x01a0:  abd7 4175 e39f ba1a ef71 55e7 53b1 184b  ..Au.....qU.S..K
	0x01b0:  de82 0726 5157 3581 d48e 6735 2da5 20e1  ...&QW5...g5-...
	0x01c0:  b167 92cc bf1e c9a6 0433 b65d 8b1c a8e9  .g.......3.]....
	0x01d0:  19b5 d2d0 2340 ed05 d952 df49 dfd8 da58  ....#@...R.I...X
	0x01e0:  feff 64e3 9b1c ff28 8b8e 873e 6aed 5e8f  ..d....(...>j.^.
14:10:55.121921 IP (tos 0x0, ttl 54, id 23620, offset 0, flags [DF], proto TCP (6), length 111)
    109.228.177.89.46326 > 192.168.1.4.10000: Flags [P.], cksum 0x8a48 (correct), seq 2973248198:2973248257, ack 2837353903, win 4096, options [nop,nop,TS val 897678990 ecr 4294939366], length 59
	0x0000:  e060 6614 5712 5046 5dd1 7508 8100 0002  .`f.W.PF].u.....
	0x0010:  0800 4500 006f 5c44 4000 3606 075b 6de4  ..E..o\D@.6..[m.
	0x0020:  b159 c0a8 0104 b4f6 2710 b138 2ac6 a91e  .Y......'..8*...
	0x0030:  95af 8018 1000 8a48 0000 0101 080a 3581  .......H......5.
	0x0040:  7e8e ffff 92e6 1703 0300 367a 5c92 f0ab  ~.........6z\...
	0x0050:  59d3 2671 fd4d 8729 551e 42a0 393e 9dce  Y.&q.M.)U.B.9>..
	0x0060:  30bb 1321 a3a5 b5cd 37f1 c2c5 e3b0 2216  0..!....7.....".
	0x0070:  863e 82a1 7e36 b7e5 bfaf 23fd 0b10 bbb3  .>..~6....#.....
	0x0080:  25                                       %
14:10:55.122050 IP (tos 0x0, ttl 64, id 863, offset 0, flags [DF], proto TCP (6), length 52)
    192.168.1.4.10000 > 109.228.177.89.46326: Flags [.], cksum 0xe110 (incorrect -> 0x55da), seq 2837353903, ack 2973248198, win 553, options [nop,nop,TS val 4294939372 ecr 897678990], length 0
	0x0000:  5046 5dd1 7508 e060 6614 5712 8100 0002  PF].u..`f.W.....
	0x0010:  0800 4500 0034 035f 4000 4006 567b c0a8  ..E..4._@.@.V{..
	0x0020:  0104 6de4 b159 2710 b4f6 a91e 95af b138  ..m..Y'........8
	0x0030:  2ac6 8010 0229 e110 0000 0101 080a ffff  *....)..........
	0x0040:  92ec 3581 7e8e                           ..5.~.
14:10:55.122130 IP (tos 0x0, ttl 64, id 864, offset 0, flags [DF], proto TCP (6), length 52)
    192.168.1.4.10000 > 109.228.177.89.46326: Flags [.], cksum 0xe110 (incorrect -> 0x559f), seq 2837353903, ack 2973248257, win 553, options [nop,nop,TS val 4294939372 ecr 897678990], length 0
	0x0000:  5046 5dd1 7508 e060 6614 5712 8100 0002  PF].u..`f.W.....
	0x0010:  0800 4500 0034 0360 4000 4006 567a c0a8  ..E..4.`@.@.Vz..
	0x0020:  0104 6de4 b159 2710 b4f6 a91e 95af b138  ..m..Y'........8
	0x0030:  2b01 8010 0229 e110 0000 0101 080a ffff  +....)..........
	0x0040:  92ec 3581 7e8e                           ..5.~.
14:10:55.128039 IP (tos 0x0, ttl 64, id 865, offset 0, flags [DF], proto TCP (6), length 108)
    192.168.1.4.10000 > 109.228.177.89.46326: Flags [P.], cksum 0xe148 (incorrect -> 0x2c6f), seq 2837353903:2837353959, ack 2973248257, win 553, options [nop,nop,TS val 4294939373 ecr 897678990], length 56
	0x0000:  5046 5dd1 7508 e060 6614 5712 8100 0002  PF].u..`f.W.....
	0x0010:  0800 4500 006c 0361 4000 4006 5641 c0a8  ..E..l.a@.@.VA..
	0x0020:  0104 6de4 b159 2710 b4f6 a91e 95af b138  ..m..Y'........8
	0x0030:  2b01 8018 0229 e148 0000 0101 080a ffff  +....).H........
	0x0040:  92ed 3581 7e8e 1703 0300 3336 4536 db6e  ..5.~.....36E6.n
	0x0050:  8c9e 5647 4a34 e305 5827 d1cd 8cd0 15f1  ..VGJ4..X'......
	0x0060:  fa3f c42a 6b7f 55c8 0b72 5f70 c3d2 4abe  .?.*k.U..r_p..J.
	0x0070:  fc47 c474 b5fc cbf2 d33b 426f 8cbc       .G.t.....;Bo..
14:10:55.128391 IP (tos 0x0, ttl 64, id 866, offset 0, flags [DF], proto TCP (6), length 52)
    192.168.1.4.10000 > 109.228.177.89.46326: Flags [R.], cksum 0xe110 (incorrect -> 0x5562), seq 2837353959, ack 2973248257, win 553, options [nop,nop,TS val 4294939373 ecr 897678990], length 0
	0x0000:  5046 5dd1 7508 e060 6614 5712 8100 0002  PF].u..`f.W.....
	0x0010:  0800 4500 0034 0362 4000 4006 5678 c0a8  ..E..4.b@.@.Vx..
	0x0020:  0104 6de4 b159 2710 b4f6 a91e 95e7 b138  ..m..Y'........8
	0x0030:  2b01 8014 0229 e110 0000 0101 080a ffff  +....)..........
	0x0040:  92ed 3581 7e8e                           ..5.~.
14:10:55.149271 IP (tos 0x0, ttl 52, id 50894, offset 0, flags [DF], proto TCP (6), length 52)
    109.228.177.89.46326 > 192.168.1.4.10000: Flags [.], cksum 0x4776 (correct), seq 2973248257, ack 2837353959, win 4094, options [nop,nop,TS val 897679017 ecr 4294939373], length 0
	0x0000:  e060 6614 5712 5046 5dd1 7508 8100 0002  .`f.W.PF].u.....
	0x0010:  0800 4500 0034 c6ce 4000 3406 9f0b 6de4  ..E..4..@.4...m.
	0x0020:  b159 c0a8 0104 b4f6 2710 b138 2b01 a91e  .Y......'..8+...
	0x0030:  95e7 8010 0ffe 4776 0000 0101 080a 3581  ......Gv......5.
	0x0040:  7ea9 ffff 92ed                           ~.....
14:10:55.149466 IP (tos 0x0, ttl 64, id 0, offset 0, flags [DF], proto TCP (6), length 40)
    192.168.1.4.10000 > 109.228.177.89.46326: Flags [R], cksum 0xb3e9 (correct), seq 2837353959, win 0, length 0
	0x0000:  5046 5dd1 7508 e060 6614 5712 8100 0002  PF].u..`f.W.....
	0x0010:  0800 4500 0028 0000 4000 4006 59e6 c0a8  ..E..(..@.@.Y...
	0x0020:  0104 6de4 b159 2710 b4f6 a91e 95e7 0000  ..m..Y'.........
	0x0030:  0000 5004 0000 b3e9 0000                 ..P.......

