14:10:19.478705 IP (tos 0x0, ttl 52, id 43101, offset 0, flags [DF], proto TCP (6), length 64)
    109.228.177.89.35371 > 192.168.1.4.10000: Flags [S], cksum 0x7806 (correct), seq 2233499117, win 65535, options [mss 1460,nop,wscale 5,nop,nop,TS val 897643586 ecr 0,sackOK,eol], length 0
	0x0000:  e060 6614 5712 5046 5dd1 7508 8100 0002  .`f.W.PF].u.....
	0x0010:  0800 4500 0040 a85d 4000 3406 bd70 6de4  ..E..@.]@.4..pm.
	0x0020:  b159 c0a8 0104 8a2b 2710 8520 7ded 0000  .Y.....+'...}...
	0x0030:  0000 b002 ffff 7806 0000 0204 05b4 0103  ......x.........
	0x0040:  0305 0101 080a 3580 f442 0000 0000 0402  ......5..B......
	0x0050:  0000                                     ..
14:10:19.478952 IP (tos 0x0, ttl 64, id 0, offset 0, flags [DF], proto TCP (6), length 60)
    192.168.1.4.10000 > 109.228.177.89.35371: Flags [S.], cksum 0xe118 (incorrect -> 0x8f75), seq 2121847390, ack 2233499118, win 14480, options [mss 1460,sackOK,TS val 4294930461 ecr 897643586,nop,wscale 5], length 0
	0x0000:  5046 5dd1 7508 e060 6614 5712 8100 0002  PF].u..`f.W.....
	0x0010:  0800 4500 003c 0000 4000 4006 59d2 c0a8  ..E..<..@.@.Y...
	0x0020:  0104 6de4 b159 2710 8a2b 7e78 d25e 8520  ..m..Y'..+~x.^..
	0x0030:  7dee a012 3890 e118 0000 0204 05b4 0402  }...8...........
	0x0040:  080a ffff 701d 3580 f442 0103 0305       ....p.5..B....
14:10:19.500286 IP (tos 0x0, ttl 52, id 52683, offset 0, flags [DF], proto TCP (6), length 52)
    109.228.177.89.35371 > 192.168.1.4.10000: Flags [.], cksum 0xe6a4 (correct), seq 2233499118, ack 2121847391, win 4117, options [nop,nop,TS val 897643608 ecr 4294930461], length 0
	0x0000:  e060 6614 5712 5046 5dd1 7508 8100 0002  .`f.W.PF].u.....
	0x0010:  0800 4500 0034 cdcb 4000 3406 980e 6de4  ..E..4..@.4...m.
	0x0020:  b159 c0a8 0104 8a2b 2710 8520 7dee 7e78  .Y.....+'...}.~x
	0x0030:  d25f 8010 1015 e6a4 0000 0101 080a 3580  ._............5.
	0x0040:  f458 ffff 701d                           .X..p.
14:10:19.502792 IP (tos 0x0, ttl 53, id 22166, offset 0, flags [DF], proto TCP (6), length 280)
    109.228.177.89.35371 > 192.168.1.4.10000: Flags [P.], cksum 0x2ca0 (correct), seq 2233499118:2233499346, ack 2121847391, win 4117, options [nop,nop,TS val 897643610 ecr 4294930461], length 228
	0x0000:  e060 6614 5712 5046 5dd1 7508 8100 0002  .`f.W.PF].u.....
	0x0010:  0800 4500 0118 5696 4000 3506 0d60 6de4  ..E...V.@.5..`m.
	0x0020:  b159 c0a8 0104 8a2b 2710 8520 7dee 7e78  .Y.....+'...}.~x
	0x0030:  d25f 8018 1015 2ca0 0000 0101 080a 3580  ._....,.......5.
	0x0040:  f45a ffff 701d 1603 0300 df01 0000 db03  .Z..p...........
	0x0050:  0358 1b5b bd64 bc3e 3d56 d8df 93ed 2647  .X.[.d.>=V....&G
	0x0060:  61ed aa30 950d 10a6 d7fc 7815 aca5 3846  a..0......x...8F
	0x0070:  ea00 002c 00ff c02c c02b c024 c023 c00a  ...,...,.+.$.#..
	0x0080:  c009 c008 c030 c02f c028 c027 c014 c013  .....0./.(.'....
	0x0090:  c012 009d 009c 003d 003c 0035 002f 000a  .......=.<.5./..
	0x00a0:  0100 0086 0000 0011 000f 0000 0c38 322e  .............82.
	0x00b0:  3939 2e32 342e 3138 3300 0a00 0800 0600  99.24.183.......
	0x00c0:  1700 1800 1900 0b00 0201 0000 0d00 1200  ................
	0x00d0:  1004 0102 0105 0106 0104 0302 0305 0306  ................
	0x00e0:  0333 7400 0000 1000 3000 2e02 6832 0568  .3t.....0...h2.h
	0x00f0:  322d 3136 0568 322d 3135 0568 322d 3134  2-16.h2-15.h2-14
	0x0100:  0873 7064 792f 332e 3106 7370 6479 2f33  .spdy/3.1.spdy/3
	0x0110:  0868 7474 702f 312e 3100 0500 0501 0000  .http/1.1.......
	0x0120:  0000 0012 0000 0017 0000                 ..........
14:10:19.503010 IP (tos 0x0, ttl 64, id 41597, offset 0, flags [DF], proto TCP (6), length 52)
    192.168.1.4.10000 > 109.228.177.89.35371: Flags [.], cksum 0xe110 (incorrect -> 0xf3e7), seq 2121847391, ack 2233499346, win 486, options [nop,nop,TS val 4294930467 ecr 897643610], length 0
	0x0000:  5046 5dd1 7508 e060 6614 5712 8100 0002  PF].u..`f.W.....
	0x0010:  0800 4500 0034 a27d 4000 4006 b75c c0a8  ..E..4.}@.@..\..
	0x0020:  0104 6de4 b159 2710 8a2b 7e78 d25f 8520  ..m..Y'..+~x._..
	0x0030:  7ed2 8010 01e6 e110 0000 0101 080a ffff  ~...............
	0x0040:  7023 3580 f45a                           p#5..Z
14:10:19.507405 IP (tos 0x0, ttl 64, id 41598, offset 0, flags [DF], proto TCP (6), length 968)
    192.168.1.4.10000 > 109.228.177.89.35371: Flags [P.], cksum 0xe4a4 (incorrect -> 0xfdb5), seq 2121847391:2121848307, ack 2233499346, win 486, options [nop,nop,TS val 4294930468 ecr 897643610], length 916
	0x0000:  5046 5dd1 7508 e060 6614 5712 8100 0002  PF].u..`f.W.....
	0x0010:  0800 4500 03c8 a27e 4000 4006 b3c7 c0a8  ..E....~@.@.....
	0x0020:  0104 6de4 b159 2710 8a2b 7e78 d25f 8520  ..m..Y'..+~x._..
	0x0030:  7ed2 8018 01e6 e4a4 0000 0101 080a ffff  ~...............
	0x0040:  7024 3580 f45a 1603 0300 5102 0000 4d03  p$5..Z....Q...M.
	0x0050:  0324 3a95 62fc 77b5 58a6 da54 d663 3772  .$:.b.w.X..T.c7r
	0x0060:  90c4 97d2 9dd8 a550 5d91 b541 b576 8a8e  .......P]..A.v..
	0x0070:  f420 17a3 091e 5832 8347 f800 4adb f3c3  ......X2.G..J...
	0x0080:  9ad4 5ed5 ae5b 42a8 4099 18f2 e097 5516  ..^..[B.@.....U.
	0x0090:  8517 009d 0000 05ff 0100 0100 1603 0303  ................
	0x00a0:  300b 0003 2c00 0329 0003 2630 8203 2230  0...,..)..&0.."0
	0x00b0:  8202 0a02 0900 d41f 0640 5afe 974d 300d  .........@Z..M0.
	0x00c0:  0609 2a86 4886 f70d 0101 0b05 0030 4731  ..*.H........0G1
	0x00d0:  0b30 0906 0355 0406 1302 5553 3113 3011  .0...U....US1.0.
	0x00e0:  0603 5504 080c 0a4e 6577 204a 6572 7365  ..U....New.Jerse
	0x00f0:  7931 0f30 0d06 0355 0407 0c06 4e65 7761  y1.0...U....Newa
	0x0100:  726b 3112 3010 0603 5504 0a0c 0950 616e  rk1.0...U....Pan
	0x0110:  6173 6f6e 6963 301e 170d 3136 3131 3031  asonic0...161101
	0x0120:  3135 3030 3433 5a17 0d32 3631 3033 3031  150043Z..2610301
	0x0130:  3530 3034 335a 305f 310b 3009 0603 5504  50043Z0_1.0...U.
	0x0140:  0613 0255 5331 1330 1106 0355 0408 0c0a  ...US1.0...U....
	0x0150:  4e65 7720 4a65 7273 6579 310f 300d 0603  New.Jersey1.0...
	0x0160:  5504 070c 064e 6577 6172 6b31 1230 1006  U....Newark1.0..
	0x0170:  0355 040a 0c09 5061 6e61 736f 6e69 6331  .U....Panasonic1
	0x0180:  1630 1406 0355 0403 0c0d 3139 322e 3136  .0...U....192.16
	0x0190:  382e 302e 3135 3330 8201 2230 0d06 092a  8.0.1530.."0...*
	0x01a0:  8648 86f7 0d01 0101 0500 0382 010f 0030  .H.............0
	0x01b0:  8201 0a02 8201 0100 ec25 a79f 83ec 71d2  .........%....q.
	0x01c0:  6554 117b bfa2 de10 ee20 567d 94d3 d8b6  eT.{......V}....
	0x01d0:  6f5f 7cc5 4528 2857 5726 2679 84ae fedd  o_|.E((WW&&y....
	0x01e0:  fe93 f596 bfd8 6ea9 d943 2d8e e80f 66b4  ......n..C-...f.
	0x01f0:  694e bc3f 4094 e2de 5e33 6f4c 5d2b 6a22  iN.?@...^3oL]+j"
	0x0200:  2845 26a6 8abc 1946 c271 d2ed a3eb dcbf  (E&....F.q......
	0x0210:  c191 8451 e99a 7f3a 207f 6173 2f72 acc6  ...Q...:..as/r..
	0x0220:  4efc 9103 53a5 6c0b 3769 48de 884b b291  N...S.l.7iH..K..
	0x0230:  f0fa dc91 d3c3 6cfa 4c13 2875 93b0 0528  ......l.L.(u...(
	0x0240:  65f5 b579 e3e7 f356 02be 7808 0634 bdbf  e..y...V..x..4..
	0x0250:  6572 74eb a070 0620 48fc fc3b 7988 ce63  ert..p..H..;y..c
	0x0260:  e464 259d 4034 d86b ad45 eda8 e34e 61e0  .d%.@4.k.E...Na.
	0x0270:  af8c 70fc adde 3a48 17de 5962 af4e 84ac  ..p...:H..Yb.N..
	0x0280:  3d8b 930b c7e1 cfe5 7296 3190 e445 1480  =.......r.1..E..
	0x0290:  c1d8 bb18 49a9 ec5f 5c6d ec31 ace6 3a67  ....I.._\m.1..:g
	0x02a0:  d9d1 0d5d d46d 18b1 3ec2 fb0c 7353 2b8b  ...].m..>...sS+.
	0x02b0:  0187 e890 63f9 2ef3 0203 0100 0130 0d06  ....c........0..
	0x02c0:  092a 8648 86f7 0d01 010b 0500 0382 0101  .*.H............
	0x02d0:  0074 fec8 91bf a802 0dfc 25c7 76cd fec4  .t........%.v...
	0x02e0:  e1cd 28df 84e5 12b0 3c2b d5fc d5b5 1d0f  ..(.....<+......
	0x02f0:  d6d1 91b9 2710 c053 6556 4f8c 07f2 9536  ....'..SeVO....6
	0x0300:  31cf bd33 6f41 52a4 1cf9 fb70 4439 75ee  1..3oAR....pD9u.
	0x0310:  9e97 8dbf f23d b164 76cb e7b3 50d3 fa30  .....=.dv...P..0
	0x0320:  9a9b 0ae3 157c 3578 ca92 2127 9abd 66ad  .....|5x..!'..f.
	0x0330:  e1fc 30ea 47d8 27f7 8c9a 5344 2bde e671  ..0.G.'...SD+..q
	0x0340:  abc8 118e 71a6 b9d6 cd94 0771 3de2 a767  ....q......q=..g
	0x0350:  fb41 6396 5336 d304 5d02 0f24 ef30 4772  .Ac.S6..]..$.0Gr
	0x0360:  a8e2 81f8 28ac bc83 f5fb 5b6a 49e8 04e2  ....(.....[jI...
	0x0370:  9fe5 6705 3410 6aa3 9ef2 1ea3 2ba4 84ce  ..g.4.j.....+...
	0x0380:  6546 0d5e ed73 5400 9fc6 e84b b216 07c0  eF.^.sT....K....
	0x0390:  4fa9 64df 6f7b 931c 72f4 1f3e bb9a 0f5f  O.d.o{..r..>..._
	0x03a0:  427f 788c 1eae e2b0 e2f9 9289 6cd7 148f  B.x.........l...
	0x03b0:  19ab f167 98a8 67a7 8e42 a4f0 6ab4 168f  ...g..g..B..j...
	0x03c0:  576e dc6b 8016 2aae 8c2e 3a72 9f34 be26  Wn.k..*...:r.4.&
	0x03d0:  c616 0303 0004 0e00 0000                 ..........
14:10:19.529123 IP (tos 0x0, ttl 53, id 26270, offset 0, flags [DF], proto TCP (6), length 52)
    109.228.177.89.35371 > 192.168.1.4.10000: Flags [.], cksum 0xe226 (correct), seq 2233499346, ack 2121848307, win 4089, options [nop,nop,TS val 897643635 ecr 4294930468], length 0
	0x0000:  e060 6614 5712 5046 5dd1 7508 8100 0002  .`f.W.PF].u.....
	0x0010:  0800 4500 0034 669e 4000 3506 fe3b 6de4  ..E..4f.@.5..;m.
	0x0020:  b159 c0a8 0104 8a2b 2710 8520 7ed2 7e78  .Y.....+'...~.~x
	0x0030:  d5f3 8010 0ff9 e226 0000 0101 080a 3580  .......&......5.
	0x0040:  f473 ffff 7024                           .s..p$
14:10:19.535506 IP (tos 0x0, ttl 53, id 62855, offset 0, flags [DF], proto TCP (6), length 319)
    109.228.177.89.35371 > 192.168.1.4.10000: Flags [.], cksum 0x2ef0 (correct), seq 2233499346:2233499613, ack 2121848307, win 4096, options [nop,nop,TS val 897643641 ecr 4294930468], length 267
	0x0000:  e060 6614 5712 5046 5dd1 7508 8100 0002  .`f.W.PF].u.....
	0x0010:  0800 4500 013f f587 4000 3506 6e47 6de4  ..E..?..@.5.nGm.
	0x0020:  b159 c0a8 0104 8a2b 2710 8520 7ed2 7e78  .Y.....+'...~.~x
	0x0030:  d5f3 8010 1000 2ef0 0000 0101 080a 3580  ..............5.
	0x0040:  f479 ffff 7024 1603 0301 0610 0001 0201  .y..p$..........
	0x0050:  00d5 4e6c e843 128c 5fd9 2646 6ddd 9d3b  ..Nl.C.._.&Fm..;
	0x0060:  2f20 3e51 38cc 6ea1 ff43 aace 1e53 bd24  /.>Q8.n..C...S.$
	0x0070:  2420 05ea 2753 c010 de65 ef6e 3057 31d1  $...'S...e.n0W1.
	0x0080:  3211 1112 c026 b046 604c c0cd 9eb2 2627  2....&.F`L....&'
	0x0090:  f4c4 e3ad 30a4 baab 6f10 bd8d 1894 c03f  ....0...o......?
	0x00a0:  8508 e2fe 22d6 9a2f dd77 d2b1 048e 98bd  ...."../.w......
	0x00b0:  a5bf 9c28 1ebe b0ee 7d30 3c06 f6c3 37d2  ...(....}0<...7.
	0x00c0:  d753 c91c c2ff 4548 1480 63d8 6aed f156  .S....EH..c.j..V
	0x00d0:  84e2 6655 d1be 458f 3901 c045 1315 8e22  ..fU..E.9..E..."
	0x00e0:  f730 4393 b97e 608c 5d5e 832b 380f 27c4  .0C..~`.]^.+8.'.
	0x00f0:  3cbf e476 d5c4 d208 fc56 dfc9 392e fbd8  <..v.....V..9...
	0x0100:  2f5e bf26 1c1c 24da 6061 85d5 4367 57a4  /^.&..$.`a..CgW.
	0x0110:  3970 71d1 9202 35bf fcbd dd44 d459 7108  9pq...5....D.Yq.
	0x0120:  025f a650 9d9b 83fc 01af 1784 91b2 e692  ._.P............
	0x0130:  e839 35c8 ee19 cb1f d52b eb1a ad30 3db7  .95......+...0=.
	0x0140:  7167 757e 46ce 3af4 a1bd 2c28 7d30 8989  qgu~F.:...,(}0..
	0x0150:  23                                       #
14:10:19.535561 IP (tos 0x0, ttl 54, id 53939, offset 0, flags [DF], proto TCP (6), length 58)
    109.228.177.89.35371 > 192.168.1.4.10000: Flags [P.], cksum 0xc8fc (correct), seq 2233499613:2233499619, ack 2121848307, win 4096, options [nop,nop,TS val 897643641 ecr 4294930468], length 6
	0x0000:  e060 6614 5712 5046 5dd1 7508 8100 0002  .`f.W.PF].u.....
	0x0010:  0800 4500 003a d2b3 4000 3606 9120 6de4  ..E..:..@.6...m.
	0x0020:  b159 c0a8 0104 8a2b 2710 8520 7fdd 7e78  .Y.....+'.....~x
	0x0030:  d5f3 8018 1000 c8fc 0000 0101 080a 3580  ..............5.
	0x0040:  f479 ffff 7024 1403 0300 0101            .y..p$......
14:10:19.535712 IP (tos 0x0, ttl 53, id 37952, offset 0, flags [DF], proto TCP (6), length 97)
    109.228.177.89.35371 > 192.168.1.4.10000: Flags [P.], cksum 0xfada (correct), seq 2233499619:2233499664, ack 2121848307, win 4096, options [nop,nop,TS val 897643641 ecr 4294930468], length 45
	0x0000:  e060 6614 5712 5046 5dd1 7508 8100 0002  .`f.W.PF].u.....
	0x0010:  0800 4500 0061 9440 4000 3506 d06c 6de4  ..E..a.@@.5..lm.
	0x0020:  b159 c0a8 0104 8a2b 2710 8520 7fe3 7e78  .Y.....+'.....~x
	0x0030:  d5f3 8018 1000 fada 0000 0101 080a 3580  ..............5.
	0x0040:  f479 ffff 7024 1603 0300 28df 929a 71e7  .y..p$....(...q.
	0x0050:  ae59 7fed 2407 1737 315f 365f bbd9 e857  .Y..$..71_6_...W
	0x0060:  dd1b 65f6 32a4 3f8e ed27 23e1 bdc5 4cdc  ..e.2.?..'#...L.
	0x0070:  8f2e ca                                  ...
14:10:19.572897 IP (tos 0x0, ttl 64, id 41599, offset 0, flags [DF], proto TCP (6), length 52)
    192.168.1.4.10000 > 109.228.177.89.35371: Flags [.], cksum 0xe110 (incorrect -> 0xeec2), seq 2121848307, ack 2233499664, win 520, options [nop,nop,TS val 4294930485 ecr 897643641], length 0
	0x0000:  5046 5dd1 7508 e060 6614 5712 8100 0002  PF].u..`f.W.....
	0x0010:  0800 4500 0034 a27f 4000 4006 b75a c0a8  ..E..4..@.@..Z..
	0x0020:  0104 6de4 b159 2710 8a2b 7e78 d5f3 8520  ..m..Y'..+~x....
	0x0030:  8010 8010 0208 e110 0000 0101 080a ffff  ................
	0x0040:  7035 3580 f479                           p55..y
14:10:19.726053 IP (tos 0x0, ttl 64, id 41600, offset 0, flags [DF], proto TCP (6), length 103)
    192.168.1.4.10000 > 109.228.177.89.35371: Flags [P.], cksum 0xe143 (incorrect -> 0x733b), seq 2121848307:2121848358, ack 2233499664, win 520, options [nop,nop,TS val 4294930523 ecr 897643641], length 51
	0x0000:  5046 5dd1 7508 e060 6614 5712 8100 0002  PF].u..`f.W.....
	0x0010:  0800 4500 0067 a280 4000 4006 b726 c0a8  ..E..g..@.@..&..
	0x0020:  0104 6de4 b159 2710 8a2b 7e78 d5f3 8520  ..m..Y'..+~x....
	0x0030:  8010 8018 0208 e143 0000 0101 080a ffff  .......C........
	0x0040:  705b 3580 f479 1403 0300 0101 1603 0300  p[5..y..........
	0x0050:  286d ab44 c8ec 5ee8 38ee a373 1a94 32de  (m.D..^.8..s..2.
	0x0060:  0153 063a 9b19 0a24 db41 dbf0 cce9 0dce  .S.:...$.A......
	0x0070:  79af 2388 8755 c580 fc                   y.#..U...
14:10:19.747240 IP (tos 0x0, ttl 53, id 24092, offset 0, flags [DF], proto TCP (6), length 52)
    109.228.177.89.35371 > 192.168.1.4.10000: Flags [.], cksum 0xdfa2 (correct), seq 2233499664, ack 2121848358, win 4094, options [nop,nop,TS val 897643850 ecr 4294930523], length 0
	0x0000:  e060 6614 5712 5046 5dd1 7508 8100 0002  .`f.W.PF].u.....
	0x0010:  0800 4500 0034 5e1c 4000 3506 06be 6de4  ..E..4^.@.5...m.
	0x0020:  b159 c0a8 0104 8a2b 2710 8520 8010 7e78  .Y.....+'.....~x
	0x0030:  d626 8010 0ffe dfa2 0000 0101 080a 3580  .&............5.
	0x0040:  f54a ffff 705b                           .J..p[
14:10:19.748679 IP (tos 0x0, ttl 53, id 7191, offset 0, flags [DF], proto TCP (6), length 477)
    109.228.177.89.35371 > 192.168.1.4.10000: Flags [P.], cksum 0x596d (correct), seq 2233499664:2233500089, ack 2121848358, win 4096, options [nop,nop,TS val 897643851 ecr 4294930523], length 425
	0x0000:  e060 6614 5712 5046 5dd1 7508 8100 0002  .`f.W.PF].u.....
	0x0010:  0800 4500 01dd 1c17 4000 3506 471a 6de4  ..E.....@.5.G.m.
	0x0020:  b159 c0a8 0104 8a2b 2710 8520 8010 7e78  .Y.....+'.....~x
	0x0030:  d626 8018 1000 596d 0000 0101 080a 3580  .&....Ym......5.
	0x0040:  f54b ffff 705b 1703 0301 a4df 929a 71e7  .K..p[........q.
	0x0050:  ae59 8051 2a58 3b36 4998 2fd9 e301 262a  .Y.Q*X;6I./...&*
	0x0060:  99b2 8ec2 b033 3507 f955 9709 90c8 ea6f  .....35..U.....o
	0x0070:  d1f2 dbac 6e8e a905 feec 6fd8 4928 3e2b  ....n.....o.I(>+
	0x0080:  da6c 244a 12a2 842c 3e17 dd50 899e 9757  .l$J...,>..P...W
	0x0090:  341d 1015 81dd 6356 7dff 8746 2ccb 981f  4.....cV}..F,...
	0x00a0:  b95f 3262 4ab3 4aa4 5fa2 5a3d d99d 4ae2  ._2bJ.J._.Z=..J.
	0x00b0:  daaf 4b7d 7150 ae45 5aa9 7559 96ad d7e0  ..K}qP.EZ.uY....
	0x00c0:  02ef 2780 bcb9 0201 86a7 927e fa24 d8ad  ..'........~.$..
	0x00d0:  5b63 e5a1 2614 f701 d58c 87d7 b309 0823  [c..&..........#
	0x00e0:  be6e df77 a9c5 80db 4b76 1a67 3db8 b058  .n.w....Kv.g=..X
	0x00f0:  85ec 0fa0 a86b 96f6 1d86 a906 fa59 6e81  .....k.......Yn.
	0x0100:  929d 0cf8 87b1 f0e3 9bad d7aa 93f9 0d33  ...............3
	0x0110:  b282 d197 a164 68c2 f8dc 3d22 4030 0aa2  .....dh...="@0..
	0x0120:  5c81 6840 3598 df29 4228 eed5 6322 e9b3  \.h@5..)B(..c"..
	0x0130:  766f b2ae eaf8 d73a 892b bbb6 f995 ffb3  vo.....:.+......
	0x0140:  7689 9ae2 0c3f a35c cc06 d77c 5dbc 56cc  v....?.\...|].V.
	0x0150:  3dce 3877 25d5 a5f9 5a04 de1f cc8b de38  =.8w%...Z......8
	0x0160:  e57a 3980 9cc1 7aae 28d6 e842 beb4 8239  .z9...z.(..B...9
	0x0170:  d8e4 0cf0 206c 99ae 8a79 4665 9ee7 08b2  .....l...yFe....
	0x0180:  faf3 a188 3733 8be4 f0e6 8cba 7807 d6e2  ....73......x...
	0x0190:  efdb f0eb 2af9 e6f0 24ab d1e2 216b 4c84  ....*...$...!kL.
	0x01a0:  c33f 1255 4d41 f779 30be b954 4ccc 6274  .?.UMA.y0..TL.bt
	0x01b0:  ade4 6caa 7ce4 0088 ec62 466e a9b5 9eec  ..l.|....bFn....
	0x01c0:  33f8 cde3 2d66 1e46 98a6 b894 898f 35ea  3...-f.F......5.
	0x01d0:  d82f 9d94 5b71 5830 77d6 a844 36a6 b770  ./..[qX0w..D6..p
	0x01e0:  4ce2 1989 332d 350b 89e5 da90 ddf2 33    L...3-5.......3
14:10:19.748833 IP (tos 0x0, ttl 64, id 41601, offset 0, flags [DF], proto TCP (6), length 52)
    192.168.1.4.10000 > 109.228.177.89.35371: Flags [.], cksum 0xe110 (incorrect -> 0xebc8), seq 2121848358, ack 2233500089, win 553, options [nop,nop,TS val 4294930528 ecr 897643851], length 0
	0x0000:  5046 5dd1 7508 e060 6614 5712 8100 0002  PF].u..`f.W.....
	0x0010:  0800 4500 0034 a281 4000 4006 b758 c0a8  ..E..4..@.@..X..
	0x0020:  0104 6de4 b159 2710 8a2b 7e78 d626 8520  ..m..Y'..+~x.&..
	0x0030:  81b9 8010 0229 e110 0000 0101 080a ffff  .....)..........
	0x0040:  7060 3580 f54b                           p`5..K
14:10:19.757428 IP (tos 0x0, ttl 64, id 41602, offset 0, flags [DF], proto TCP (6), length 108)
    192.168.1.4.10000 > 109.228.177.89.35371: Flags [P.], cksum 0xe148 (incorrect -> 0x06a3), seq 2121848358:2121848414, ack 2233500089, win 553, options [nop,nop,TS val 4294930531 ecr 897643851], length 56
	0x0000:  5046 5dd1 7508 e060 6614 5712 8100 0002  PF].u..`f.W.....
	0x0010:  0800 4500 006c a282 4000 4006 b71f c0a8  ..E..l..@.@.....
	0x0020:  0104 6de4 b159 2710 8a2b 7e78 d626 8520  ..m..Y'..+~x.&..
	0x0030:  81b9 8018 0229 e148 0000 0101 080a ffff  .....).H........
	0x0040:  7063 3580 f54b 1703 0300 336d ab44 c8ec  pc5..K....3m.D..
	0x0050:  5ee8 3935 00b6 a30e afa3 59c2 9ff3 4d18  ^.95......Y...M.
	0x0060:  7cf8 362b 8a76 f090 bc05 a0c3 3620 3551  |.6+.v......6.5Q
	0x0070:  b560 90a0 bf7f 9b62 3354 6f54 b6fa       .`.....b3ToT..
14:10:19.757971 IP (tos 0x0, ttl 64, id 41603, offset 0, flags [DF], proto TCP (6), length 52)
    192.168.1.4.10000 > 109.228.177.89.35371: Flags [F.], cksum 0xe110 (incorrect -> 0xeb8c), seq 2121848414, ack 2233500089, win 553, options [nop,nop,TS val 4294930531 ecr 897643851], length 0
	0x0000:  5046 5dd1 7508 e060 6614 5712 8100 0002  PF].u..`f.W.....
	0x0010:  0800 4500 0034 a283 4000 4006 b756 c0a8  ..E..4..@.@..V..
	0x0020:  0104 6de4 b159 2710 8a2b 7e78 d65e 8520  ..m..Y'..+~x.^..
	0x0030:  81b9 8011 0229 e110 0000 0101 080a ffff  .....)..........
	0x0040:  7063 3580 f54b                           pc5..K
14:10:19.779214 IP (tos 0x0, ttl 52, id 54913, offset 0, flags [DF], proto TCP (6), length 52)
    109.228.177.89.35371 > 192.168.1.4.10000: Flags [.], cksum 0xdd97 (correct), seq 2233500089, ack 2121848415, win 4096, options [nop,nop,TS val 897643881 ecr 4294930531], length 0
	0x0000:  e060 6614 5712 5046 5dd1 7508 8100 0002  .`f.W.PF].u.....
	0x0010:  0800 4500 0034 d681 4000 3406 8f58 6de4  ..E..4..@.4..Xm.
	0x0020:  b159 c0a8 0104 8a2b 2710 8520 81b9 7e78  .Y.....+'.....~x
	0x0030:  d65f 8010 1000 dd97 0000 0101 080a 3580  ._............5.
	0x0040:  f569 ffff 7063                           .i..pc
14:10:19.779416 IP (tos 0x0, ttl 52, id 12789, offset 0, flags [DF], proto TCP (6), length 52)
    109.228.177.89.35371 > 192.168.1.4.10000: Flags [F.], cksum 0xdd96 (correct), seq 2233500089, ack 2121848415, win 4096, options [nop,nop,TS val 897643881 ecr 4294930531], length 0
	0x0000:  e060 6614 5712 5046 5dd1 7508 8100 0002  .`f.W.PF].u.....
	0x0010:  0800 4500 0034 31f5 4000 3406 33e5 6de4  ..E..41.@.4.3.m.
	0x0020:  b159 c0a8 0104 8a2b 2710 8520 81b9 7e78  .Y.....+'.....~x
	0x0030:  d65f 8011 1000 dd96 0000 0101 080a 3580  ._............5.
	0x0040:  f569 ffff 7063                           .i..pc
14:10:19.779554 IP (tos 0x0, ttl 64, id 0, offset 0, flags [DF], proto TCP (6), length 52)
    192.168.1.4.10000 > 109.228.177.89.35371: Flags [.], cksum 0xeb68 (correct), seq 2121848415, ack 2233500090, win 553, options [nop,nop,TS val 4294930536 ecr 897643881], length 0
	0x0000:  5046 5dd1 7508 e060 6614 5712 8100 0002  PF].u..`f.W.....
	0x0010:  0800 4500 0034 0000 4000 4006 59da c0a8  ..E..4..@.@.Y...
	0x0020:  0104 6de4 b159 2710 8a2b 7e78 d65f 8520  ..m..Y'..+~x._..
	0x0030:  81ba 8010 0229 eb68 0000 0101 080a ffff  .....).h........
	0x0040:  7068 3580 f569                           ph5..i


