19:58:51.190916 IP (tos 0x0, ttl 64, id 39677, offset 0, flags [DF], proto TCP (6), length 64)
    192.168.0.152.50337 > 192.168.0.153.10000: Flags [S], cksum 0x97a1 (correct), seq 1104158515, win 65535, options [mss 1460,nop,wscale 5,nop,nop,TS val 2981961319 ecr 0,sackOK,eol], length 0
	0x0000:  944a 0c21 4719 f45c 89ca ec57 8100 0002  .J.!G..\...W....
	0x0010:  0800 4500 0040 9afd 4000 4006 1d39 c0a8  ..E..@..@.@..9..
	0x0020:  0098 c0a8 0099 c4a1 2710 41d0 1f33 0000  ........'.A..3..
	0x0030:  0000 b002 ffff 97a1 0000 0204 05b4 0103  ................
	0x0040:  0305 0101 080a b1bd 1e67 0000 0000 0402  .........g......
	0x0050:  0000                                     ..
19:58:51.191161 IP (tos 0x0, ttl 64, id 0, offset 0, flags [DF], proto TCP (6), length 60)
    192.168.0.153.10000 > 192.168.0.152.50337: Flags [S.], cksum 0x82b0 (incorrect -> 0x3913), seq 2079091322, ack 1104158516, win 14480, options [mss 1460,sackOK,TS val 413829 ecr 2981961319,nop,wscale 5], length 0
	0x0000:  f45c 89ca ec57 944a 0c21 4719 8100 0002  .\...W.J.!G.....
	0x0010:  0800 4500 003c 0000 4000 4006 b83a c0a8  ..E..<..@.@..:..
	0x0020:  0099 c0a8 0098 2710 c4a1 7bec 6a7a 41d0  ......'...{.jzA.
	0x0030:  1f34 a012 3890 82b0 0000 0204 05b4 0402  .4..8...........
	0x0040:  080a 0006 5085 b1bd 1e67 0103 0305       ....P....g....
19:58:51.193553 IP (tos 0x0, ttl 64, id 16353, offset 0, flags [DF], proto TCP (6), length 52)
    192.168.0.152.50337 > 192.168.0.153.10000: Flags [.], cksum 0x9054 (correct), seq 1104158516, ack 2079091323, win 4117, options [nop,nop,TS val 2981961323 ecr 413829], length 0
	0x0000:  944a 0c21 4719 f45c 89ca ec57 8100 0002  .J.!G..\...W....
	0x0010:  0800 4500 0034 3fe1 4000 4006 7861 c0a8  ..E..4?.@.@.xa..
	0x0020:  0098 c0a8 0099 c4a1 2710 41d0 1f34 7bec  ........'.A..4{.
	0x0030:  6a7b 8010 1015 9054 0000 0101 080a b1bd  j{.....T........
	0x0040:  1e6b 0006 5085                           .k..P.
19:58:51.194670 IP (tos 0x0, ttl 64, id 11389, offset 0, flags [DF], proto TCP (6), length 569)
    192.168.0.152.50337 > 192.168.0.153.10000: Flags [P.], cksum 0x1003 (correct), seq 1104158516:1104159033, ack 2079091323, win 4117, options [nop,nop,TS val 2981961323 ecr 413829], length 517
	0x0000:  944a 0c21 4719 f45c 89ca ec57 8100 0002  .J.!G..\...W....
	0x0010:  0800 4500 0239 2c7d 4000 4006 89c0 c0a8  ..E..9,}@.@.....
	0x0020:  0098 c0a8 0099 c4a1 2710 41d0 1f34 7bec  ........'.A..4{.
	0x0030:  6a7b 8018 1015 1003 0000 0101 080a b1bd  j{..............
	0x0040:  1e6b 0006 5085 1603 0102 0001 0001 fc03  .k..P...........
	0x0050:  0396 ce3f dfee 7e05 5239 9e06 0db0 5a42  ...?..~.R9....ZB
	0x0060:  3e9d d91a 39ea e8d5 db5c bf5e 4f79 f7a5  >...9....\.^Oy..
	0x0070:  6420 e9b2 0958 6c20 96a4 1522 ae68 60d6  d....Xl....".h`.
	0x0080:  ceb4 5c94 10d4 525b accc 8ee6 532b 3ad2  ..\...R[....S+:.
	0x0090:  8e01 0022 c02b c02f c02c c030 cca9 cca8  ...".+./.,.0....
	0x00a0:  cc14 cc13 c009 c013 c00a c014 009c 009d  ................
	0x00b0:  002f 0035 000a 0100 0191 ff01 0001 0000  ./.5............
	0x00c0:  1700 0000 2300 a019 2cd6 e58b 4750 1cf1  ....#...,...GP..
	0x00d0:  4991 2e59 69b9 9b98 4faf 57d6 957a aa05  I..Yi...O.W..z..
	0x00e0:  f4b9 a34c 3c7b 48d1 67ff e563 9f5f 536d  ...L<{H.g..c._Sm
	0x00f0:  2a76 8596 9f81 c6f1 1eea 043f 9f36 4390  *v.........?.6C.
	0x0100:  60f6 5531 58f1 4c1e 5734 a93f 3c29 a6e1  `.U1X.L.W4.?<)..
	0x0110:  5633 f4d1 a008 a52d 87b3 3f2e 2ddd 48a7  V3.....-..?.-.H.
	0x0120:  c056 731d 6d59 d4c6 498d a0d0 f4b4 91a6  .Vs.mY..I.......
	0x0130:  3936 e2f4 8de5 83d3 1be2 737e 38ad 8d24  96........s~8..$
	0x0140:  1ffc 30a5 3e22 b4c0 7507 061c 7248 f744  ..0.>"..u...rH.D
	0x0150:  a77b a946 d7f7 7017 15be 4eee 1c42 0ee3  .{.F..p...N..B..
	0x0160:  f8dd 375e a258 3500 0d00 1200 1006 0106  ..7^.X5.........
	0x0170:  0305 0105 0304 0104 0302 0102 0300 0500  ................
	0x0180:  0501 0000 0000 0012 0000 0010 000e 000c  ................
	0x0190:  0268 3208 6874 7470 2f31 2e31 7550 0000  .h2.http/1.1uP..
	0x01a0:  000b 0002 0100 000a 0008 0006 001d 0017  ................
	0x01b0:  0018 0015 0095 0000 0000 0000 0000 0000  ................
	0x01c0:  0000 0000 0000 0000 0000 0000 0000 0000  ................
	0x01d0:  0000 0000 0000 0000 0000 0000 0000 0000  ................
	0x01e0:  0000 0000 0000 0000 0000 0000 0000 0000  ................
	0x01f0:  0000 0000 0000 0000 0000 0000 0000 0000  ................
	0x0200:  0000 0000 0000 0000 0000 0000 0000 0000  ................
	0x0210:  0000 0000 0000 0000 0000 0000 0000 0000  ................
	0x0220:  0000 0000 0000 0000 0000 0000 0000 0000  ................
	0x0230:  0000 0000 0000 0000 0000 0000 0000 0000  ................
	0x0240:  0000 0000 0000 0000 0000 00              ...........
19:58:51.194844 IP (tos 0x0, ttl 64, id 15101, offset 0, flags [DF], proto TCP (6), length 52)
    192.168.0.153.10000 > 192.168.0.152.50337: Flags [.], cksum 0x82a8 (incorrect -> 0x9c7d), seq 2079091323, ack 1104159033, win 486, options [nop,nop,TS val 413830 ecr 2981961323], length 0
	0x0000:  f45c 89ca ec57 944a 0c21 4719 8100 0002  .\...W.J.!G.....
	0x0010:  0800 4500 0034 3afd 4000 4006 7d45 c0a8  ..E..4:.@.@.}E..
	0x0020:  0099 c0a8 0098 2710 c4a1 7bec 6a7b 41d0  ......'...{.j{A.
	0x0030:  2139 8010 01e6 82a8 0000 0101 080a 0006  !9..............
	0x0040:  5086 b1bd 1e6b                           P....k
19:58:51.200821 IP (tos 0x0, ttl 64, id 15102, offset 0, flags [DF], proto TCP (6), length 189)
    192.168.0.153.10000 > 192.168.0.152.50337: Flags [P.], cksum 0x8331 (incorrect -> 0x13b8), seq 2079091323:2079091460, ack 1104159033, win 486, options [nop,nop,TS val 413831 ecr 2981961323], length 137
	0x0000:  f45c 89ca ec57 944a 0c21 4719 8100 0002  .\...W.J.!G.....
	0x0010:  0800 4500 00bd 3afe 4000 4006 7cbb c0a8  ..E...:.@.@.|...
	0x0020:  0099 c0a8 0098 2710 c4a1 7bec 6a7b 41d0  ......'...{.j{A.
	0x0030:  2139 8018 01e6 8331 0000 0101 080a 0006  !9.....1........
	0x0040:  5087 b1bd 1e6b 1603 0300 5102 0000 4d03  P....k....Q...M.
	0x0050:  035d 60fd 0cdc 8d3d 5f39 2f58 1a84 5e29  .]`....=_9/X..^)
	0x0060:  d374 293c 3083 2dd8 7a8c 1ab8 acf8 fe7a  .t)<0.-.z......z
	0x0070:  8220 e9b2 0958 6c20 96a4 1522 ae68 60d6  .....Xl....".h`.
	0x0080:  ceb4 5c94 10d4 525b accc 8ee6 532b 3ad2  ..\...R[....S+:.
	0x0090:  8e01 009c 0000 05ff 0100 0100 1403 0300  ................
	0x00a0:  0101 1603 0300 2800 8da7 193e b94f 9754  ......(....>.O.T
	0x00b0:  9198 6406 4b3f 5875 b3c5 e1b7 00e7 8b93  ..d.K?Xu........
	0x00c0:  9bf1 f42b b335 92fa 07da 2cff 3c97 51    ...+.5....,.<.Q
19:58:51.202137 IP (tos 0x0, ttl 64, id 35060, offset 0, flags [DF], proto TCP (6), length 52)
    192.168.0.152.50337 > 192.168.0.153.10000: Flags [.], cksum 0x8dc0 (correct), seq 1104159033, ack 2079091460, win 4113, options [nop,nop,TS val 2981961331 ecr 413831], length 0
	0x0000:  944a 0c21 4719 f45c 89ca ec57 8100 0002  .J.!G..\...W....
	0x0010:  0800 4500 0034 88f4 4000 4006 2f4e c0a8  ..E..4..@.@./N..
	0x0020:  0098 c0a8 0099 c4a1 2710 41d0 2139 7bec  ........'.A.!9{.
	0x0030:  6b04 8010 1011 8dc0 0000 0101 080a b1bd  k...............
	0x0040:  1e73 0006 5087                           .s..P.
19:58:51.203182 IP (tos 0x0, ttl 64, id 19111, offset 0, flags [DF], proto TCP (6), length 103)
    192.168.0.152.50337 > 192.168.0.153.10000: Flags [P.], cksum 0x7fcd (correct), seq 1104159033:1104159084, ack 2079091460, win 4113, options [nop,nop,TS val 2981961331 ecr 413831], length 51
	0x0000:  944a 0c21 4719 f45c 89ca ec57 8100 0002  .J.!G..\...W....
	0x0010:  0800 4500 0067 4aa7 4000 4006 6d68 c0a8  ..E..gJ.@.@.mh..
	0x0020:  0098 c0a8 0099 c4a1 2710 41d0 2139 7bec  ........'.A.!9{.
	0x0030:  6b04 8018 1011 7fcd 0000 0101 080a b1bd  k...............
	0x0040:  1e73 0006 5087 1403 0300 0101 1603 0300  .s..P...........
	0x0050:  2800 0000 0000 0000 00cc 06d7 a1da 1dbf  (...............
	0x0060:  2a92 844b 25ce 50d6 b3cf b73b b782 9a6f  *..K%.P....;...o
	0x0070:  99d7 298d 4928 4a66 b4                   ..).I(Jf.
19:58:51.203293 IP (tos 0x0, ttl 64, id 11086, offset 0, flags [DF], proto TCP (6), length 52)
    192.168.0.152.50337 > 192.168.0.153.10000: Flags [F.], cksum 0x8d8c (correct), seq 1104159084, ack 2079091460, win 4113, options [nop,nop,TS val 2981961331 ecr 413831], length 0
	0x0000:  944a 0c21 4719 f45c 89ca ec57 8100 0002  .J.!G..\...W....
	0x0010:  0800 4500 0034 2b4e 4000 4006 8cf4 c0a8  ..E..4+N@.@.....
	0x0020:  0098 c0a8 0099 c4a1 2710 41d0 216c 7bec  ........'.A.!l{.
	0x0030:  6b04 8011 1011 8d8c 0000 0101 080a b1bd  k...............
	0x0040:  1e73 0006 5087                           .s..P.
19:58:51.203589 IP (tos 0x0, ttl 64, id 24049, offset 0, flags [DF], proto TCP (6), length 64)
    192.168.0.152.50338 > 192.168.0.153.10000: Flags [S], cksum 0x95d7 (correct), seq 3651438874, win 65535, options [mss 1460,nop,wscale 5,nop,nop,TS val 2981961332 ecr 0,sackOK,eol], length 0
	0x0000:  944a 0c21 4719 f45c 89ca ec57 8100 0002  .J.!G..\...W....
	0x0010:  0800 4500 0040 5df1 4000 4006 5a45 c0a8  ..E..@].@.@.ZE..
	0x0020:  0098 c0a8 0099 c4a2 2710 d9a4 891a 0000  ........'.......
	0x0030:  0000 b002 ffff 95d7 0000 0204 05b4 0103  ................
	0x0040:  0305 0101 080a b1bd 1e74 0000 0000 0402  .........t......
	0x0050:  0000                                     ..
19:58:51.203800 IP (tos 0x0, ttl 64, id 0, offset 0, flags [DF], proto TCP (6), length 60)
    192.168.0.153.10000 > 192.168.0.152.50338: Flags [S.], cksum 0x82b0 (incorrect -> 0x6504), seq 3355701412, ack 3651438875, win 14480, options [mss 1460,sackOK,TS val 413832 ecr 2981961332,nop,wscale 5], length 0
	0x0000:  f45c 89ca ec57 944a 0c21 4719 8100 0002  .\...W.J.!G.....
	0x0010:  0800 4500 003c 0000 4000 4006 b83a c0a8  ..E..<..@.@..:..
	0x0020:  0099 c0a8 0098 2710 c4a2 c803 f0a4 d9a4  ......'.........
	0x0030:  891b a012 3890 82b0 0000 0204 05b4 0402  ....8...........
	0x0040:  080a 0006 5088 b1bd 1e74 0103 0305       ....P....t....
19:58:51.204721 IP (tos 0x0, ttl 64, id 5095, offset 0, flags [DF], proto TCP (6), length 52)
    192.168.0.152.50338 > 192.168.0.153.10000: Flags [.], cksum 0xbc48 (correct), seq 3651438875, ack 3355701413, win 4117, options [nop,nop,TS val 2981961333 ecr 413832], length 0
	0x0000:  944a 0c21 4719 f45c 89ca ec57 8100 0002  .J.!G..\...W....
	0x0010:  0800 4500 0034 13e7 4000 4006 a45b c0a8  ..E..4..@.@..[..
	0x0020:  0098 c0a8 0099 c4a2 2710 d9a4 891b c803  ........'.......
	0x0030:  f0a5 8010 1015 bc48 0000 0101 080a b1bd  .......H........
	0x0040:  1e75 0006 5088                           .u..P.
19:58:51.204971 IP (tos 0x0, ttl 64, id 15103, offset 0, flags [DF], proto TCP (6), length 52)
    192.168.0.153.10000 > 192.168.0.152.50337: Flags [F.], cksum 0x82a8 (incorrect -> 0x9bb5), seq 2079091460, ack 1104159085, win 486, options [nop,nop,TS val 413832 ecr 2981961331], length 0
	0x0000:  f45c 89ca ec57 944a 0c21 4719 8100 0002  .\...W.J.!G.....
	0x0010:  0800 4500 0034 3aff 4000 4006 7d43 c0a8  ..E..4:.@.@.}C..
	0x0020:  0099 c0a8 0098 2710 c4a1 7bec 6b04 41d0  ......'...{.k.A.
	0x0030:  216d 8011 01e6 82a8 0000 0101 080a 0006  !m..............
	0x0040:  5088 b1bd 1e73                           P....s
19:58:51.205206 IP (tos 0x0, ttl 64, id 15539, offset 0, flags [DF], proto TCP (6), length 569)
    192.168.0.152.50338 > 192.168.0.153.10000: Flags [P.], cksum 0x494d (correct), seq 3651438875:3651439392, ack 3355701413, win 4117, options [nop,nop,TS val 2981961333 ecr 413832], length 517
	0x0000:  944a 0c21 4719 f45c 89ca ec57 8100 0002  .J.!G..\...W....
	0x0010:  0800 4500 0239 3cb3 4000 4006 798a c0a8  ..E..9<.@.@.y...
	0x0020:  0098 c0a8 0099 c4a2 2710 d9a4 891b c803  ........'.......
	0x0030:  f0a5 8018 1015 494d 0000 0101 080a b1bd  ......IM........
	0x0040:  1e75 0006 5088 1603 0102 0001 0001 fc03  .u..P...........
	0x0050:  03e6 704c a9bb b03f c36c 0eb0 28d2 2498  ..pL...?.l..(.$.
	0x0060:  e4de 886a c4cc 5054 5cc9 fd51 2a46 0e78  ...j..PT\..Q*F.x
	0x0070:  f820 e9b2 0958 6c20 96a4 1522 ae68 60d6  .....Xl....".h`.
	0x0080:  ceb4 5c94 10d4 525b accc 8ee6 532b 3ad2  ..\...R[....S+:.
	0x0090:  8e01 0022 c02b c02f c02c c030 cca9 cca8  ...".+./.,.0....
	0x00a0:  cc14 cc13 c009 c013 c00a c014 009c 009d  ................
	0x00b0:  002f 0035 000a 0100 0191 ff01 0001 0000  ./.5............
	0x00c0:  1700 0000 2300 a019 2cd6 e58b 4750 1cf1  ....#...,...GP..
	0x00d0:  4991 2e59 69b9 9b98 4faf 57d6 957a aa05  I..Yi...O.W..z..
	0x00e0:  f4b9 a34c 3c7b 48d1 67ff e563 9f5f 536d  ...L<{H.g..c._Sm
	0x00f0:  2a76 8596 9f81 c6f1 1eea 043f 9f36 4390  *v.........?.6C.
	0x0100:  60f6 5531 58f1 4c1e 5734 a93f 3c29 a6e1  `.U1X.L.W4.?<)..
	0x0110:  5633 f4d1 a008 a52d 87b3 3f2e 2ddd 48a7  V3.....-..?.-.H.
	0x0120:  c056 731d 6d59 d4c6 498d a0d0 f4b4 91a6  .Vs.mY..I.......
	0x0130:  3936 e2f4 8de5 83d3 1be2 737e 38ad 8d24  96........s~8..$
	0x0140:  1ffc 30a5 3e22 b4c0 7507 061c 7248 f744  ..0.>"..u...rH.D
	0x0150:  a77b a946 d7f7 7017 15be 4eee 1c42 0ee3  .{.F..p...N..B..
	0x0160:  f8dd 375e a258 3500 0d00 1200 1006 0106  ..7^.X5.........
	0x0170:  0305 0105 0304 0104 0302 0102 0300 0500  ................
	0x0180:  0501 0000 0000 0012 0000 0010 000e 000c  ................
	0x0190:  0268 3208 6874 7470 2f31 2e31 7550 0000  .h2.http/1.1uP..
	0x01a0:  000b 0002 0100 000a 0008 0006 001d 0017  ................
	0x01b0:  0018 0015 0095 0000 0000 0000 0000 0000  ................
	0x01c0:  0000 0000 0000 0000 0000 0000 0000 0000  ................
	0x01d0:  0000 0000 0000 0000 0000 0000 0000 0000  ................
	0x01e0:  0000 0000 0000 0000 0000 0000 0000 0000  ................
	0x01f0:  0000 0000 0000 0000 0000 0000 0000 0000  ................
	0x0200:  0000 0000 0000 0000 0000 0000 0000 0000  ................
	0x0210:  0000 0000 0000 0000 0000 0000 0000 0000  ................
	0x0220:  0000 0000 0000 0000 0000 0000 0000 0000  ................
	0x0230:  0000 0000 0000 0000 0000 0000 0000 0000  ................
	0x0240:  0000 0000 0000 0000 0000 00              ...........
19:58:51.205305 IP (tos 0x0, ttl 64, id 41005, offset 0, flags [DF], proto TCP (6), length 52)
    192.168.0.153.10000 > 192.168.0.152.50338: Flags [.], cksum 0x82a8 (incorrect -> 0xc872), seq 3355701413, ack 3651439392, win 486, options [nop,nop,TS val 413832 ecr 2981961333], length 0
	0x0000:  f45c 89ca ec57 944a 0c21 4719 8100 0002  .\...W.J.!G.....
	0x0010:  0800 4500 0034 a02d 4000 4006 1815 c0a8  ..E..4.-@.@.....
	0x0020:  0099 c0a8 0098 2710 c4a2 c803 f0a5 d9a4  ......'.........
	0x0030:  8b20 8010 01e6 82a8 0000 0101 080a 0006  ................
	0x0040:  5088 b1bd 1e75                           P....u
19:58:51.206486 IP (tos 0x0, ttl 64, id 4186, offset 0, flags [DF], proto TCP (6), length 52)
    192.168.0.152.50337 > 192.168.0.153.10000: Flags [.], cksum 0x8d87 (correct), seq 1104159085, ack 2079091461, win 4113, options [nop,nop,TS val 2981961334 ecr 413832], length 0
	0x0000:  944a 0c21 4719 f45c 89ca ec57 8100 0002  .J.!G..\...W....
	0x0010:  0800 4500 0034 105a 4000 4006 a7e8 c0a8  ..E..4.Z@.@.....
	0x0020:  0098 c0a8 0099 c4a1 2710 41d0 216d 7bec  ........'.A.!m{.
	0x0030:  6b05 8010 1011 8d87 0000 0101 080a b1bd  k...............
	0x0040:  1e76 0006 5088                           .v..P.
19:58:51.219388 IP (tos 0x0, ttl 64, id 41006, offset 0, flags [DF], proto TCP (6), length 189)
    192.168.0.153.10000 > 192.168.0.152.50338: Flags [P.], cksum 0x8331 (incorrect -> 0x755a), seq 3355701413:3355701550, ack 3651439392, win 486, options [nop,nop,TS val 413836 ecr 2981961333], length 137
	0x0000:  f45c 89ca ec57 944a 0c21 4719 8100 0002  .\...W.J.!G.....
	0x0010:  0800 4500 00bd a02e 4000 4006 178b c0a8  ..E.....@.@.....
	0x0020:  0099 c0a8 0098 2710 c4a2 c803 f0a5 d9a4  ......'.........
	0x0030:  8b20 8018 01e6 8331 0000 0101 080a 0006  .......1........
	0x0040:  508c b1bd 1e75 1603 0300 5102 0000 4d03  P....u....Q...M.
	0x0050:  0344 78a2 09e6 2415 5833 523d e70c cbae  .Dx...$.X3R=....
	0x0060:  b7fd 48cd e1de dae7 e5a0 7479 e22b 6695  ..H.......ty.+f.
	0x0070:  9320 e9b2 0958 6c20 96a4 1522 ae68 60d6  .....Xl....".h`.
	0x0080:  ceb4 5c94 10d4 525b accc 8ee6 532b 3ad2  ..\...R[....S+:.
	0x0090:  8e01 009c 0000 05ff 0100 0100 1403 0300  ................
	0x00a0:  0101 1603 0300 28b0 7d7f 829b 14d4 7c2a  ......(.}.....|*
	0x00b0:  c764 a7b0 d8f9 7ccd 42db e1e5 f08b 5ac8  .d....|.B.....Z.
	0x00c0:  ed1a 558f 1f11 a10e 53ff 0f01 0e5a 04    ..U.....S....Z.
19:58:51.221998 IP (tos 0x0, ttl 64, id 63846, offset 0, flags [DF], proto TCP (6), length 52)
    192.168.0.152.50338 > 192.168.0.153.10000: Flags [.], cksum 0xb9ac (correct), seq 3651439392, ack 3355701550, win 4113, options [nop,nop,TS val 2981961347 ecr 413836], length 0
	0x0000:  944a 0c21 4719 f45c 89ca ec57 8100 0002  .J.!G..\...W....
	0x0010:  0800 4500 0034 f966 4000 4006 bedb c0a8  ..E..4.f@.@.....
	0x0020:  0098 c0a8 0099 c4a2 2710 d9a4 8b20 c803  ........'.......
	0x0030:  f12e 8010 1011 b9ac 0000 0101 080a b1bd  ................
	0x0040:  1e83 0006 508c                           ....P.
19:58:51.222062 IP (tos 0x0, ttl 64, id 21411, offset 0, flags [DF], proto TCP (6), length 103)
    192.168.0.152.50338 > 192.168.0.153.10000: Flags [P.], cksum 0x9014 (correct), seq 3651439392:3651439443, ack 3355701550, win 4113, options [nop,nop,TS val 2981961348 ecr 413836], length 51
	0x0000:  944a 0c21 4719 f45c 89ca ec57 8100 0002  .J.!G..\...W....
	0x0010:  0800 4500 0067 53a3 4000 4006 646c c0a8  ..E..gS.@.@.dl..
	0x0020:  0098 c0a8 0099 c4a2 2710 d9a4 8b20 c803  ........'.......
	0x0030:  f12e 8018 1011 9014 0000 0101 080a b1bd  ................
	0x0040:  1e84 0006 508c 1403 0300 0101 1603 0300  ....P...........
	0x0050:  2800 0000 0000 0000 0096 a262 b482 c7b7  (..........b....
	0x0060:  bb52 bd92 173d 5beb 559f 477e 7b5d 1b6d  .R...=[.U.G~{].m
	0x0070:  5ac1 7f37 7284 19ae 2b                   Z..7r...+
19:58:51.222372 IP (tos 0x0, ttl 64, id 28358, offset 0, flags [DF], proto TCP (6), length 729)
    192.168.0.152.50338 > 192.168.0.153.10000: Flags [P.], cksum 0xa0db (correct), seq 3651439443:3651440120, ack 3355701550, win 4113, options [nop,nop,TS val 2981961348 ecr 413836], length 677
	0x0000:  944a 0c21 4719 f45c 89ca ec57 8100 0002  .J.!G..\...W....
	0x0010:  0800 4500 02d9 6ec6 4000 4006 46d7 c0a8  ..E...n.@.@.F...
	0x0020:  0098 c0a8 0099 c4a2 2710 d9a4 8b53 c803  ........'....S..
	0x0030:  f12e 8018 1011 a0db 0000 0101 080a b1bd  ................
	0x0040:  1e84 0006 508c 1703 0302 a000 0000 0000  ....P...........
	0x0050:  0000 0199 f68e df6e 48bb 026d c08c 20b2  .......nH..m....
	0x0060:  5136 87a3 405d 0f02 ad1f 028a 461e 18e6  Q6..@]......F...
	0x0070:  97b6 5187 2dfe dfcf ac01 5a8d 6842 483d  ..Q.-.....Z.hBH=
	0x0080:  f88f a5b9 11cd b826 1313 dae0 d9f8 89c8  .......&........
	0x0090:  1508 ddf0 6bdc 78e3 7114 dfc3 0255 1b77  ....k.x.q....U.w
	0x00a0:  a8f6 7b80 a67b 71c2 f9d1 f0b7 808d c8b3  ..{..{q.........
	0x00b0:  1569 53a8 6b9a 8b56 e883 b609 c2eb 10c4  .iS.k..V........
	0x00c0:  8de3 a49c be38 dba1 6465 d1af 69f1 dc7a  .....8..de..i..z
	0x00d0:  2e3b 1efc 1cb4 16a8 ae9b 0860 8ade 6afe  .;.........`..j.
	0x00e0:  371a 68c5 1fac f2db 7bbe 4cc7 a11f d052  7.h.....{.L....R
	0x00f0:  0be9 ac75 8568 d94b a74e 85c0 446b 6b0a  ...u.h.K.N..Dkk.
	0x0100:  183e 0d58 6e49 0ffc 8e77 df7a 34ce 3527  .>.XnI...w.z4.5'
	0x0110:  5744 a73f 9b66 2854 b4a4 514e 10bf 97ec  WD.?.f(T..QN....
	0x0120:  3fba fe3c ad18 d993 8423 7f32 25df 8950  ?..<.....#.2%..P
	0x0130:  bccc ead2 e72a 4cef d281 6510 0b51 d00c  .....*L...e..Q..
	0x0140:  c66c 5bbc acf6 6295 bf29 b794 d2f6 d899  .l[...b..)......
	0x0150:  b9f0 9c15 4d2f a34e 81c8 ff2c 4bb4 31e5  ....M/.N...,K.1.
	0x0160:  d069 b395 6df6 fbf9 1427 d3a5 d270 9a20  .i..m....'...p..
	0x0170:  d709 d4e5 25a5 be41 a1be 84ff 5a1a f6e3  ....%..A....Z...
	0x0180:  5f44 5f49 1073 45e1 be3d 90c3 6076 cb27  _D_I.sE..=..`v.'
	0x0190:  1967 8a81 9842 1760 b23e d027 669a a4c8  .g...B.`.>.'f...
	0x01a0:  f2ec 6cf4 dee9 c999 2b60 5850 2548 9cdc  ..l.....+`XP%H..
	0x01b0:  4e51 a131 33fe 2898 c27f ceeb 9ac9 a863  NQ.13.(........c
	0x01c0:  e3c3 dd5f 0116 42dd c2ba e9c0 fb35 ddf3  ..._..B......5..
	0x01d0:  c1fa de0a 790c a382 1aff 3783 3f05 1deb  ....y.....7.?...
	0x01e0:  9398 83ce c665 8485 deeb 282f ff9a 3250  .....e....(/..2P
	0x01f0:  200c dd05 2dd4 3a9e 5f7a 7713 55cc 8e28  ....-.:._zw.U..(
	0x0200:  53ae 91bd 4768 9dd6 1335 7389 620c 62fc  S...Gh...5s.b.b.
	0x0210:  06d3 d53c 8b29 5b31 6c6b b9b0 7b47 afb3  ...<.)[1lk..{G..
	0x0220:  4d6e 23d3 c41c 9161 790b ea89 fc66 3c6e  Mn#....ay....f<n
	0x0230:  bda1 dc15 ad03 11c5 d481 47c8 25d8 a300  ..........G.%...
	0x0240:  f737 8467 251a 2ab3 bcbd da40 3d6f f100  .7.g%.*....@=o..
	0x0250:  dd6f d71c e7c3 285a 2f17 9842 ef16 dcef  .o....(Z/..B....
	0x0260:  50c4 14bd 1ac0 9c29 5825 ae72 5864 b72f  P......)X%.rXd./
	0x0270:  c7f2 133f 5831 1950 acea 5148 1285 6ba5  ...?X1.P..QH..k.
	0x0280:  96a9 5a17 63db 91c3 e7f6 92f5 c24e 88cb  ..Z.c........N..
	0x0290:  2b95 4584 5950 eb95 287f 97d1 3e9e 674a  +.E.YP..(...>.gJ
	0x02a0:  90d5 76f8 758f 8ceb a4f0 28bc d264 ec78  ..v.u.....(..d.x
	0x02b0:  eacd 92de b971 bb36 6e89 69b5 3467 24f5  .....q.6n.i.4g$.
	0x02c0:  1c35 bcca d898 7135 ac79 2408 f719 11b3  .5....q5.y$.....
	0x02d0:  349a ca81 0a4a b232 37d4 2af1 bbe8 bd44  4....J.27.*....D
	0x02e0:  0906 b4be 6c3e f913 aed1 7a              ....l>....z
19:58:51.222502 IP (tos 0x0, ttl 64, id 41007, offset 0, flags [DF], proto TCP (6), length 52)
    192.168.0.153.10000 > 192.168.0.152.50338: Flags [.], cksum 0x82a8 (incorrect -> 0xc4d2), seq 3355701550, ack 3651440120, win 529, options [nop,nop,TS val 413837 ecr 2981961348], length 0
	0x0000:  f45c 89ca ec57 944a 0c21 4719 8100 0002  .\...W.J.!G.....
	0x0010:  0800 4500 0034 a02f 4000 4006 1813 c0a8  ..E..4./@.@.....
	0x0020:  0099 c0a8 0098 2710 c4a2 c803 f12e d9a4  ......'.........
	0x0030:  8df8 8010 0211 82a8 0000 0101 080a 0006  ................
	0x0040:  508d b1bd 1e84                           P.....
19:58:51.234966 IP (tos 0x0, ttl 64, id 41008, offset 0, flags [DF], proto TCP (6), length 109)
    192.168.0.153.10000 > 192.168.0.152.50338: Flags [P.], cksum 0x82e1 (incorrect -> 0xe6fc), seq 3355701550:3355701607, ack 3651440120, win 529, options [nop,nop,TS val 413840 ecr 2981961348], length 57
	0x0000:  f45c 89ca ec57 944a 0c21 4719 8100 0002  .\...W.J.!G.....
	0x0010:  0800 4500 006d a030 4000 4006 17d9 c0a8  ..E..m.0@.@.....
	0x0020:  0099 c0a8 0098 2710 c4a2 c803 f12e d9a4  ......'.........
	0x0030:  8df8 8018 0211 82e1 0000 0101 080a 0006  ................
	0x0040:  5090 b1bd 1e84 1703 0300 34b0 7d7f 829b  P.........4.}...
	0x0050:  14d4 7da9 3846 40e9 a5c7 2a0b 0f65 11b9  ..}.8F@...*..e..
	0x0060:  ba5d 84c8 808f 3458 1854 578e 21d0 384c  .]....4X.TW.!.8L
	0x0070:  ecac 3b9d 5eeb 0e98 e9ef 9b6a dbef dd    ..;.^......j...
19:58:51.235320 IP (tos 0x0, ttl 64, id 41009, offset 0, flags [DF], proto TCP (6), length 52)
    192.168.0.153.10000 > 192.168.0.152.50338: Flags [F.], cksum 0x82a8 (incorrect -> 0xc495), seq 3355701607, ack 3651440120, win 529, options [nop,nop,TS val 413840 ecr 2981961348], length 0
	0x0000:  f45c 89ca ec57 944a 0c21 4719 8100 0002  .\...W.J.!G.....
	0x0010:  0800 4500 0034 a031 4000 4006 1811 c0a8  ..E..4.1@.@.....
	0x0020:  0099 c0a8 0098 2710 c4a2 c803 f167 d9a4  ......'......g..
	0x0030:  8df8 8011 0211 82a8 0000 0101 080a 0006  ................
	0x0040:  5090 b1bd 1e84                           P.....
19:58:51.238977 IP (tos 0x0, ttl 64, id 24786, offset 0, flags [DF], proto TCP (6), length 52)
    192.168.0.152.50338 > 192.168.0.153.10000: Flags [.], cksum 0xb68b (correct), seq 3651440120, ack 3355701607, win 4111, options [nop,nop,TS val 2981961361 ecr 413840], length 0
	0x0000:  944a 0c21 4719 f45c 89ca ec57 8100 0002  .J.!G..\...W....
	0x0010:  0800 4500 0034 60d2 4000 4006 5770 c0a8  ..E..4`.@.@.Wp..
	0x0020:  0098 c0a8 0099 c4a2 2710 d9a4 8df8 c803  ........'.......
	0x0030:  f167 8010 100f b68b 0000 0101 080a b1bd  .g..............
	0x0040:  1e91 0006 5090                           ....P.
19:58:51.239067 IP (tos 0x0, ttl 64, id 5250, offset 0, flags [DF], proto TCP (6), length 52)
    192.168.0.152.50338 > 192.168.0.153.10000: Flags [.], cksum 0xb68a (correct), seq 3651440120, ack 3355701608, win 4111, options [nop,nop,TS val 2981961361 ecr 413840], length 0
	0x0000:  944a 0c21 4719 f45c 89ca ec57 8100 0002  .J.!G..\...W....
	0x0010:  0800 4500 0034 1482 4000 4006 a3c0 c0a8  ..E..4..@.@.....
	0x0020:  0098 c0a8 0099 c4a2 2710 d9a4 8df8 c803  ........'.......
	0x0030:  f168 8010 100f b68a 0000 0101 080a b1bd  .h..............
	0x0040:  1e91 0006 5090                           ....P.
19:58:51.239253 IP (tos 0x0, ttl 64, id 56883, offset 0, flags [DF], proto TCP (6), length 52)
    192.168.0.152.50338 > 192.168.0.153.10000: Flags [F.], cksum 0xb687 (correct), seq 3651440120, ack 3355701608, win 4111, options [nop,nop,TS val 2981961363 ecr 413840], length 0
	0x0000:  944a 0c21 4719 f45c 89ca ec57 8100 0002  .J.!G..\...W....
	0x0010:  0800 4500 0034 de33 4000 4006 da0e c0a8  ..E..4.3@.@.....
	0x0020:  0098 c0a8 0099 c4a2 2710 d9a4 8df8 c803  ........'.......
	0x0030:  f168 8011 100f b687 0000 0101 080a b1bd  .h..............
	0x0040:  1e93 0006 5090                           ....P.
19:58:51.239398 IP (tos 0x0, ttl 64, id 0, offset 0, flags [DF], proto TCP (6), length 52)
    192.168.0.153.10000 > 192.168.0.152.50338: Flags [.], cksum 0xc484 (correct), seq 3355701608, ack 3651440121, win 529, options [nop,nop,TS val 413841 ecr 2981961363], length 0
	0x0000:  f45c 89ca ec57 944a 0c21 4719 8100 0002  .\...W.J.!G.....
	0x0010:  0800 4500 0034 0000 4000 4006 b842 c0a8  ..E..4..@.@..B..
	0x0020:  0099 c0a8 0098 2710 c4a2 c803 f168 d9a4  ......'......h..
	0x0030:  8df9 8010 0211 c484 0000 0101 080a 0006  ................
	0x0040:  5091 b1bd 1e93                           P.....


