19:58:08.230088 IP (tos 0x0, ttl 64, id 6108, offset 0, flags [DF], proto TCP (6), length 64)
    192.168.0.152.50331 > 192.168.0.153.10000: Flags [S], cksum 0x6f12 (correct), seq 1491982352, win 65535, options [mss 1460,nop,wscale 5,nop,nop,TS val 2981918466 ecr 0,sackOK,eol], length 0
	0x0000:  944a 0c21 4719 f45c 89ca ec57 8100 0002  .J.!G..\...W....
	0x0010:  0800 4500 0040 17dc 4000 4006 a05a c0a8  ..E..@..@.@..Z..
	0x0020:  0098 c0a8 0099 c49b 2710 58ed d810 0000  ........'.X.....
	0x0030:  0000 b002 ffff 6f12 0000 0204 05b4 0103  ......o.........
	0x0040:  0305 0101 080a b1bc 7702 0000 0000 0402  ........w.......
	0x0050:  0000                                     ..
19:58:08.230295 IP (tos 0x0, ttl 64, id 0, offset 0, flags [DF], proto TCP (6), length 60)
    192.168.0.153.10000 > 192.168.0.152.50331: Flags [S.], cksum 0x82b0 (incorrect -> 0xba1e), seq 1791228924, ack 1491982353, win 14480, options [mss 1460,sackOK,TS val 403089 ecr 2981918466,nop,wscale 5], length 0
	0x0000:  f45c 89ca ec57 944a 0c21 4719 8100 0002  .\...W.J.!G.....
	0x0010:  0800 4500 003c 0000 4000 4006 b83a c0a8  ..E..<..@.@..:..
	0x0020:  0099 c0a8 0098 2710 c49b 6ac3 fbfc 58ed  ......'...j...X.
	0x0030:  d811 a012 3890 82b0 0000 0204 05b4 0402  ....8...........
	0x0040:  080a 0006 2691 b1bc 7702 0103 0305       ....&...w.....
19:58:08.232926 IP (tos 0x0, ttl 64, id 17629, offset 0, flags [DF], proto TCP (6), length 52)
    192.168.0.152.50331 > 192.168.0.153.10000: Flags [.], cksum 0x1162 (correct), seq 1491982353, ack 1791228925, win 4117, options [nop,nop,TS val 2981918468 ecr 403089], length 0
	0x0000:  944a 0c21 4719 f45c 89ca ec57 8100 0002  .J.!G..\...W....
	0x0010:  0800 4500 0034 44dd 4000 4006 7365 c0a8  ..E..4D.@.@.se..
	0x0020:  0098 c0a8 0099 c49b 2710 58ed d811 6ac3  ........'.X...j.
	0x0030:  fbfd 8010 1015 1162 0000 0101 080a b1bc  .......b........
	0x0040:  7704 0006 2691                           w...&.
19:58:08.233814 IP (tos 0x0, ttl 64, id 20831, offset 0, flags [DF], proto TCP (6), length 569)
    192.168.0.152.50331 > 192.168.0.153.10000: Flags [P.], cksum 0x927e (correct), seq 1491982353:1491982870, ack 1791228925, win 4117, options [nop,nop,TS val 2981918468 ecr 403089], length 517
	0x0000:  944a 0c21 4719 f45c 89ca ec57 8100 0002  .J.!G..\...W....
	0x0010:  0800 4500 0239 515f 4000 4006 64de c0a8  ..E..9Q_@.@.d...
	0x0020:  0098 c0a8 0099 c49b 2710 58ed d811 6ac3  ........'.X...j.
	0x0030:  fbfd 8018 1015 927e 0000 0101 080a b1bc  .......~........
	0x0040:  7704 0006 2691 1603 0102 0001 0001 fc03  w...&...........
	0x0050:  03f9 c65b c510 a3a1 ef0f a587 8040 e2eb  ...[.........@..
	0x0060:  dbe3 b703 b078 6a49 e17b 4825 9054 a276  .....xjI.{H%.T.v
	0x0070:  d220 e9b2 0958 6c20 96a4 1522 ae68 60d6  .....Xl....".h`.
	0x0080:  ceb4 5c94 10d4 525b accc 8ee6 532b 3ad2  ..\...R[....S+:.
	0x0090:  8e01 0022 c02b c02f c02c c030 cca9 cca8  ...".+./.,.0....
	0x00a0:  cc14 cc13 c009 c013 c00a c014 009c 009d  ................
	0x00b0:  002f 0035 000a 0100 0191 ff01 0001 0000  ./.5............
	0x00c0:  1700 0000 2300 a019 2cd6 e58b 4750 1cf1  ....#...,...GP..
	0x00d0:  4991 2e59 69b9 9b98 4faf 57d6 957a aa05  I..Yi...O.W..z..
	0x00e0:  f4b9 a34c 3c7b 48d1 67ff e563 9f5f 536d  ...L<{H.g..c._Sm
	0x00f0:  2a76 8596 9f81 c6f1 1eea 043f 9f36 4390  *v.........?.6C.
	0x0100:  60f6 5531 58f1 4c1e 5734 a93f 3c29 a6e1  `.U1X.L.W4.?<)..
	0x0110:  5633 f4d1 a008 a52d 87b3 3f2e 2ddd 48a7  V3.....-..?.-.H.
	0x0120:  c056 731d 6d59 d4c6 498d a0d0 f4b4 91a6  .Vs.mY..I.......
	0x0130:  3936 e2f4 8de5 83d3 1be2 737e 38ad 8d24  96........s~8..$
	0x0140:  1ffc 30a5 3e22 b4c0 7507 061c 7248 f744  ..0.>"..u...rH.D
	0x0150:  a77b a946 d7f7 7017 15be 4eee 1c42 0ee3  .{.F..p...N..B..
	0x0160:  f8dd 375e a258 3500 0d00 1200 1006 0106  ..7^.X5.........
	0x0170:  0305 0105 0304 0104 0302 0102 0300 0500  ................
	0x0180:  0501 0000 0000 0012 0000 0010 000e 000c  ................
	0x0190:  0268 3208 6874 7470 2f31 2e31 7550 0000  .h2.http/1.1uP..
	0x01a0:  000b 0002 0100 000a 0008 0006 001d 0017  ................
	0x01b0:  0018 0015 0095 0000 0000 0000 0000 0000  ................
	0x01c0:  0000 0000 0000 0000 0000 0000 0000 0000  ................
	0x01d0:  0000 0000 0000 0000 0000 0000 0000 0000  ................
	0x01e0:  0000 0000 0000 0000 0000 0000 0000 0000  ................
	0x01f0:  0000 0000 0000 0000 0000 0000 0000 0000  ................
	0x0200:  0000 0000 0000 0000 0000 0000 0000 0000  ................
	0x0210:  0000 0000 0000 0000 0000 0000 0000 0000  ................
	0x0220:  0000 0000 0000 0000 0000 0000 0000 0000  ................
	0x0230:  0000 0000 0000 0000 0000 0000 0000 0000  ................
	0x0240:  0000 0000 0000 0000 0000 00              ...........
19:58:08.233990 IP (tos 0x0, ttl 64, id 56684, offset 0, flags [DF], proto TCP (6), length 52)
    192.168.0.153.10000 > 192.168.0.152.50331: Flags [.], cksum 0x82a8 (incorrect -> 0x1d8b), seq 1791228925, ack 1491982870, win 486, options [nop,nop,TS val 403090 ecr 2981918468], length 0
	0x0000:  f45c 89ca ec57 944a 0c21 4719 8100 0002  .\...W.J.!G.....
	0x0010:  0800 4500 0034 dd6c 4000 4006 dad5 c0a8  ..E..4.l@.@.....
	0x0020:  0099 c0a8 0098 2710 c49b 6ac3 fbfd 58ed  ......'...j...X.
	0x0030:  da16 8010 01e6 82a8 0000 0101 080a 0006  ................
	0x0040:  2692 b1bc 7704                           &...w.
19:58:08.240308 IP (tos 0x0, ttl 64, id 56685, offset 0, flags [DF], proto TCP (6), length 189)
    192.168.0.153.10000 > 192.168.0.152.50331: Flags [P.], cksum 0x8331 (incorrect -> 0xeeef), seq 1791228925:1791229062, ack 1491982870, win 486, options [nop,nop,TS val 403091 ecr 2981918468], length 137
	0x0000:  f45c 89ca ec57 944a 0c21 4719 8100 0002  .\...W.J.!G.....
	0x0010:  0800 4500 00bd dd6d 4000 4006 da4b c0a8  ..E....m@.@..K..
	0x0020:  0099 c0a8 0098 2710 c49b 6ac3 fbfd 58ed  ......'...j...X.
	0x0030:  da16 8018 01e6 8331 0000 0101 080a 0006  .......1........
	0x0040:  2693 b1bc 7704 1603 0300 5102 0000 4d03  &...w.....Q...M.
	0x0050:  0312 9230 99b7 79f3 4acd c910 96dd 1e13  ...0..y.J.......
	0x0060:  a24f d9d8 90ab a17d f8b0 61be 28c6 9b56  .O.....}..a.(..V
	0x0070:  4b20 e9b2 0958 6c20 96a4 1522 ae68 60d6  K....Xl....".h`.
	0x0080:  ceb4 5c94 10d4 525b accc 8ee6 532b 3ad2  ..\...R[....S+:.
	0x0090:  8e01 009c 0000 05ff 0100 0100 1403 0300  ................
	0x00a0:  0101 1603 0300 2843 cbe9 8dfd 6aec 5350  ......(C....j.SP
	0x00b0:  d68d c0a1 e95b fb62 5bf5 2435 12a9 5909  .....[.b[.$5..Y.
	0x00c0:  8174 6528 1f0e 1480 71ea 4c2d 9ad1 98    .te(....q.L-...
19:58:08.241931 IP (tos 0x0, ttl 64, id 15998, offset 0, flags [DF], proto TCP (6), length 52)
    192.168.0.152.50331 > 192.168.0.153.10000: Flags [.], cksum 0x0ece (correct), seq 1491982870, ack 1791229062, win 4113, options [nop,nop,TS val 2981918476 ecr 403091], length 0
	0x0000:  944a 0c21 4719 f45c 89ca ec57 8100 0002  .J.!G..\...W....
	0x0010:  0800 4500 0034 3e7e 4000 4006 79c4 c0a8  ..E..4>~@.@.y...
	0x0020:  0098 c0a8 0099 c49b 2710 58ed da16 6ac3  ........'.X...j.
	0x0030:  fc86 8010 1011 0ece 0000 0101 080a b1bc  ................
	0x0040:  770c 0006 2693                           w...&.
19:58:08.242557 IP (tos 0x0, ttl 64, id 60354, offset 0, flags [DF], proto TCP (6), length 103)
    192.168.0.152.50331 > 192.168.0.153.10000: Flags [P.], cksum 0x2a5a (correct), seq 1491982870:1491982921, ack 1791229062, win 4113, options [nop,nop,TS val 2981918476 ecr 403091], length 51
	0x0000:  944a 0c21 4719 f45c 89ca ec57 8100 0002  .J.!G..\...W....
	0x0010:  0800 4500 0067 ebc2 4000 4006 cc4c c0a8  ..E..g..@.@..L..
	0x0020:  0098 c0a8 0099 c49b 2710 58ed da16 6ac3  ........'.X...j.
	0x0030:  fc86 8018 1011 2a5a 0000 0101 080a b1bc  ......*Z........
	0x0040:  770c 0006 2693 1403 0300 0101 1603 0300  w...&...........
	0x0050:  2800 0000 0000 0000 00e1 ea64 2c9a 466b  (..........d,.Fk
	0x0060:  209d 96d8 121b 922c c636 5cfa aec8 577f  .......,.6\...W.
	0x0070:  a6b8 1e22 12e2 bef2 11                   ...".....
19:58:08.244025 IP (tos 0x0, ttl 64, id 13999, offset 0, flags [DF], proto TCP (6), length 52)
    192.168.0.152.50331 > 192.168.0.153.10000: Flags [F.], cksum 0x0e99 (correct), seq 1491982921, ack 1791229062, win 4113, options [nop,nop,TS val 2981918477 ecr 403091], length 0
	0x0000:  944a 0c21 4719 f45c 89ca ec57 8100 0002  .J.!G..\...W....
	0x0010:  0800 4500 0034 36af 4000 4006 8193 c0a8  ..E..46.@.@.....
	0x0020:  0098 c0a8 0099 c49b 2710 58ed da49 6ac3  ........'.X..Ij.
	0x0030:  fc86 8011 1011 0e99 0000 0101 080a b1bc  ................
	0x0040:  770d 0006 2693                           w...&.
19:58:08.244370 IP (tos 0x0, ttl 64, id 30361, offset 0, flags [DF], proto TCP (6), length 64)
    192.168.0.152.50332 > 192.168.0.153.10000: Flags [S], cksum 0x8b38 (correct), seq 3806147053, win 65535, options [mss 1460,nop,wscale 5,nop,nop,TS val 2981918478 ecr 0,sackOK,eol], length 0
	0x0000:  944a 0c21 4719 f45c 89ca ec57 8100 0002  .J.!G..\...W....
	0x0010:  0800 4500 0040 7699 4000 4006 419d c0a8  ..E..@v.@.@.A...
	0x0020:  0098 c0a8 0099 c49c 2710 e2dd 31ed 0000  ........'...1...
	0x0030:  0000 b002 ffff 8b38 0000 0204 05b4 0103  .......8........
	0x0040:  0305 0101 080a b1bc 770e 0000 0000 0402  ........w.......
	0x0050:  0000                                     ..
19:58:08.244619 IP (tos 0x0, ttl 64, id 0, offset 0, flags [DF], proto TCP (6), length 60)
    192.168.0.153.10000 > 192.168.0.152.50332: Flags [S.], cksum 0x82b0 (incorrect -> 0x7b02), seq 981305218, ack 3806147054, win 14480, options [mss 1460,sackOK,TS val 403092 ecr 2981918478,nop,wscale 5], length 0
	0x0000:  f45c 89ca ec57 944a 0c21 4719 8100 0002  .\...W.J.!G.....
	0x0010:  0800 4500 003c 0000 4000 4006 b83a c0a8  ..E..<..@.@..:..
	0x0020:  0099 c0a8 0098 2710 c49c 3a7d 8782 e2dd  ......'...:}....
	0x0030:  31ee a012 3890 82b0 0000 0204 05b4 0402  1...8...........
	0x0040:  080a 0006 2694 b1bc 770e 0103 0305       ....&...w.....
19:58:08.244786 IP (tos 0x0, ttl 64, id 56686, offset 0, flags [DF], proto TCP (6), length 52)
    192.168.0.153.10000 > 192.168.0.152.50331: Flags [F.], cksum 0x82a8 (incorrect -> 0x1cc3), seq 1791229062, ack 1491982922, win 486, options [nop,nop,TS val 403092 ecr 2981918476], length 0
	0x0000:  f45c 89ca ec57 944a 0c21 4719 8100 0002  .\...W.J.!G.....
	0x0010:  0800 4500 0034 dd6e 4000 4006 dad3 c0a8  ..E..4.n@.@.....
	0x0020:  0099 c0a8 0098 2710 c49b 6ac3 fc86 58ed  ......'...j...X.
	0x0030:  da4a 8011 01e6 82a8 0000 0101 080a 0006  .J..............
	0x0040:  2694 b1bc 770c                           &...w.
19:58:08.261089 IP (tos 0x0, ttl 64, id 25656, offset 0, flags [DF], proto TCP (6), length 52)
    192.168.0.152.50332 > 192.168.0.153.10000: Flags [.], cksum 0xd245 (correct), seq 3806147054, ack 981305219, win 4117, options [nop,nop,TS val 2981918480 ecr 403092], length 0
	0x0000:  944a 0c21 4719 f45c 89ca ec57 8100 0002  .J.!G..\...W....
	0x0010:  0800 4500 0034 6438 4000 4006 540a c0a8  ..E..4d8@.@.T...
	0x0020:  0098 c0a8 0099 c49c 2710 e2dd 31ee 3a7d  ........'...1.:}
	0x0030:  8783 8010 1015 d245 0000 0101 080a b1bc  .......E........
	0x0040:  7710 0006 2694                           w...&.
19:58:08.261322 IP (tos 0x0, ttl 64, id 25890, offset 0, flags [DF], proto TCP (6), length 52)
    192.168.0.152.50331 > 192.168.0.153.10000: Flags [.], cksum 0x0e94 (correct), seq 1491982922, ack 1791229063, win 4113, options [nop,nop,TS val 2981918480 ecr 403092], length 0
	0x0000:  944a 0c21 4719 f45c 89ca ec57 8100 0002  .J.!G..\...W....
	0x0010:  0800 4500 0034 6522 4000 4006 5320 c0a8  ..E..4e"@.@.S...
	0x0020:  0098 c0a8 0099 c49b 2710 58ed da4a 6ac3  ........'.X..Jj.
	0x0030:  fc87 8010 1011 0e94 0000 0101 080a b1bc  ................
	0x0040:  7710 0006 2694                           w...&.
19:58:08.261425 IP (tos 0x0, ttl 64, id 25406, offset 0, flags [DF], proto TCP (6), length 569)
    192.168.0.152.50332 > 192.168.0.153.10000: Flags [P.], cksum 0x8796 (correct), seq 3806147054:3806147571, ack 981305219, win 4117, options [nop,nop,TS val 2981918480 ecr 403092], length 517
	0x0000:  944a 0c21 4719 f45c 89ca ec57 8100 0002  .J.!G..\...W....
	0x0010:  0800 4500 0239 633e 4000 4006 52ff c0a8  ..E..9c>@.@.R...
	0x0020:  0098 c0a8 0099 c49c 2710 e2dd 31ee 3a7d  ........'...1.:}
	0x0030:  8783 8018 1015 8796 0000 0101 080a b1bc  ................
	0x0040:  7710 0006 2694 1603 0102 0001 0001 fc03  w...&...........
	0x0050:  03ed 267d c87b 62fb f2e8 73e0 766d eed6  ..&}.{b...s.vm..
	0x0060:  ce43 3809 6098 483f 4e4d d5af 8ba2 a3f9  .C8.`.H?NM......
	0x0070:  ae20 e9b2 0958 6c20 96a4 1522 ae68 60d6  .....Xl....".h`.
	0x0080:  ceb4 5c94 10d4 525b accc 8ee6 532b 3ad2  ..\...R[....S+:.
	0x0090:  8e01 0022 c02b c02f c02c c030 cca9 cca8  ...".+./.,.0....
	0x00a0:  cc14 cc13 c009 c013 c00a c014 009c 009d  ................
	0x00b0:  002f 0035 000a 0100 0191 ff01 0001 0000  ./.5............
	0x00c0:  1700 0000 2300 a019 2cd6 e58b 4750 1cf1  ....#...,...GP..
	0x00d0:  4991 2e59 69b9 9b98 4faf 57d6 957a aa05  I..Yi...O.W..z..
	0x00e0:  f4b9 a34c 3c7b 48d1 67ff e563 9f5f 536d  ...L<{H.g..c._Sm
	0x00f0:  2a76 8596 9f81 c6f1 1eea 043f 9f36 4390  *v.........?.6C.
	0x0100:  60f6 5531 58f1 4c1e 5734 a93f 3c29 a6e1  `.U1X.L.W4.?<)..
	0x0110:  5633 f4d1 a008 a52d 87b3 3f2e 2ddd 48a7  V3.....-..?.-.H.
	0x0120:  c056 731d 6d59 d4c6 498d a0d0 f4b4 91a6  .Vs.mY..I.......
	0x0130:  3936 e2f4 8de5 83d3 1be2 737e 38ad 8d24  96........s~8..$
	0x0140:  1ffc 30a5 3e22 b4c0 7507 061c 7248 f744  ..0.>"..u...rH.D
	0x0150:  a77b a946 d7f7 7017 15be 4eee 1c42 0ee3  .{.F..p...N..B..
	0x0160:  f8dd 375e a258 3500 0d00 1200 1006 0106  ..7^.X5.........
	0x0170:  0305 0105 0304 0104 0302 0102 0300 0500  ................
	0x0180:  0501 0000 0000 0012 0000 0010 000e 000c  ................
	0x0190:  0268 3208 6874 7470 2f31 2e31 7550 0000  .h2.http/1.1uP..
	0x01a0:  000b 0002 0100 000a 0008 0006 001d 0017  ................
	0x01b0:  0018 0015 0095 0000 0000 0000 0000 0000  ................
	0x01c0:  0000 0000 0000 0000 0000 0000 0000 0000  ................
	0x01d0:  0000 0000 0000 0000 0000 0000 0000 0000  ................
	0x01e0:  0000 0000 0000 0000 0000 0000 0000 0000  ................
	0x01f0:  0000 0000 0000 0000 0000 0000 0000 0000  ................
	0x0200:  0000 0000 0000 0000 0000 0000 0000 0000  ................
	0x0210:  0000 0000 0000 0000 0000 0000 0000 0000  ................
	0x0220:  0000 0000 0000 0000 0000 0000 0000 0000  ................
	0x0230:  0000 0000 0000 0000 0000 0000 0000 0000  ................
	0x0240:  0000 0000 0000 0000 0000 00              ...........
19:58:08.261579 IP (tos 0x0, ttl 64, id 41243, offset 0, flags [DF], proto TCP (6), length 52)
    192.168.0.153.10000 > 192.168.0.152.50332: Flags [.], cksum 0x82a8 (incorrect -> 0xde6a), seq 981305219, ack 3806147571, win 486, options [nop,nop,TS val 403097 ecr 2981918480], length 0
	0x0000:  f45c 89ca ec57 944a 0c21 4719 8100 0002  .\...W.J.!G.....
	0x0010:  0800 4500 0034 a11b 4000 4006 1727 c0a8  ..E..4..@.@..'..
	0x0020:  0099 c0a8 0098 2710 c49c 3a7d 8783 e2dd  ......'...:}....
	0x0030:  33f3 8010 01e6 82a8 0000 0101 080a 0006  3...............
	0x0040:  2699 b1bc 7710                           &...w.
19:58:08.269348 IP (tos 0x0, ttl 64, id 41244, offset 0, flags [DF], proto TCP (6), length 189)
    192.168.0.153.10000 > 192.168.0.152.50332: Flags [P.], cksum 0x8331 (incorrect -> 0xecdd), seq 981305219:981305356, ack 3806147571, win 486, options [nop,nop,TS val 403098 ecr 2981918480], length 137
	0x0000:  f45c 89ca ec57 944a 0c21 4719 8100 0002  .\...W.J.!G.....
	0x0010:  0800 4500 00bd a11c 4000 4006 169d c0a8  ..E.....@.@.....
	0x0020:  0099 c0a8 0098 2710 c49c 3a7d 8783 e2dd  ......'...:}....
	0x0030:  33f3 8018 01e6 8331 0000 0101 080a 0006  3......1........
	0x0040:  269a b1bc 7710 1603 0300 5102 0000 4d03  &...w.....Q...M.
	0x0050:  03f3 5355 3405 4000 d7b2 74e5 64f6 e6cf  ..SU4.@...t.d...
	0x0060:  79cf dfbd 6e32 3ce0 0a8f 06e3 89b3 ed27  y...n2<........'
	0x0070:  1a20 e9b2 0958 6c20 96a4 1522 ae68 60d6  .....Xl....".h`.
	0x0080:  ceb4 5c94 10d4 525b accc 8ee6 532b 3ad2  ..\...R[....S+:.
	0x0090:  8e01 009c 0000 05ff 0100 0100 1403 0300  ................
	0x00a0:  0101 1603 0300 2895 60de 4718 b1b4 b2fc  ......(.`.G.....
	0x00b0:  b0ea a8cf 1ddd a0ff b635 65f3 124a 9648  .........5e..J.H
	0x00c0:  2115 4e29 7872 5dd4 68ca 8f26 4e33 57    !.N)xr].h..&N3W
19:58:08.270889 IP (tos 0x0, ttl 64, id 21787, offset 0, flags [DF], proto TCP (6), length 52)
    192.168.0.152.50332 > 192.168.0.153.10000: Flags [.], cksum 0xcf9f (correct), seq 3806147571, ack 981305356, win 4113, options [nop,nop,TS val 2981918502 ecr 403098], length 0
	0x0000:  944a 0c21 4719 f45c 89ca ec57 8100 0002  .J.!G..\...W....
	0x0010:  0800 4500 0034 551b 4000 4006 6327 c0a8  ..E..4U.@.@.c'..
	0x0020:  0098 c0a8 0099 c49c 2710 e2dd 33f3 3a7d  ........'...3.:}
	0x0030:  880c 8010 1011 cf9f 0000 0101 080a b1bc  ................
	0x0040:  7726 0006 269a                           w&..&.
19:58:08.271253 IP (tos 0x0, ttl 64, id 5610, offset 0, flags [DF], proto TCP (6), length 103)
    192.168.0.152.50332 > 192.168.0.153.10000: Flags [P.], cksum 0x4469 (correct), seq 3806147571:3806147622, ack 981305356, win 4113, options [nop,nop,TS val 2981918502 ecr 403098], length 51
	0x0000:  944a 0c21 4719 f45c 89ca ec57 8100 0002  .J.!G..\...W....
	0x0010:  0800 4500 0067 15ea 4000 4006 a225 c0a8  ..E..g..@.@..%..
	0x0020:  0098 c0a8 0099 c49c 2710 e2dd 33f3 3a7d  ........'...3.:}
	0x0030:  880c 8018 1011 4469 0000 0101 080a b1bc  ......Di........
	0x0040:  7726 0006 269a 1403 0300 0101 1603 0300  w&..&...........
	0x0050:  2800 0000 0000 0000 0047 2c63 0406 6794  (........G,c..g.
	0x0060:  366b 7b54 f39a 2a8e ac90 871c 5881 89c3  6k{T..*.....X...
	0x0070:  27d7 11a7 2ddd 0b79 41                   '...-..yA
19:58:08.273366 IP (tos 0x0, ttl 64, id 15469, offset 0, flags [DF], proto TCP (6), length 621)
    192.168.0.152.50332 > 192.168.0.153.10000: Flags [P.], cksum 0x3b47 (correct), seq 3806147622:3806148191, ack 981305356, win 4113, options [nop,nop,TS val 2981918502 ecr 403098], length 569
	0x0000:  944a 0c21 4719 f45c 89ca ec57 8100 0002  .J.!G..\...W....
	0x0010:  0800 4500 026d 3c6d 4000 4006 799c c0a8  ..E..m<m@.@.y...
	0x0020:  0098 c0a8 0099 c49c 2710 e2dd 3426 3a7d  ........'...4&:}
	0x0030:  880c 8018 1011 3b47 0000 0101 080a b1bc  ......;G........
	0x0040:  7726 0006 269a 1703 0302 3400 0000 0000  w&..&.....4.....
	0x0050:  0000 01b6 6813 9a25 372c b439 cf4a d4f2  ....h..%7,.9.J..
	0x0060:  8e19 b6e7 ad4b a28c bcfc e465 1c01 346d  .....K.....e..4m
	0x0070:  f7b0 ae53 925f 00fa e6f1 5ca8 1386 2955  ...S._....\...)U
	0x0080:  33af 1f80 4ae3 30cc 691b ea48 94bc e626  3...J.0.i..H...&
	0x0090:  b3df 45ec f129 4429 c877 579e c847 676c  ..E..)D).wW..Ggl
	0x00a0:  89f2 eb0f cb73 fd0f aebb 272b a124 f26e  .....s....'+.$.n
	0x00b0:  781f ecf1 2dca bb3b c0c6 adc2 89e5 21f2  x...-..;......!.
	0x00c0:  3a06 f7ac 2674 73a5 6f70 d5b7 5795 52ad  :...&ts.op..W.R.
	0x00d0:  193c b26a 2e5f b52d e859 0fa9 afa1 3da4  .<.j._.-.Y....=.
	0x00e0:  32ab 39ff 1e5c 13f2 fb65 4225 3799 3d3d  2.9..\...eB%7.==
	0x00f0:  79b6 4c45 1173 fe33 c93c 4f32 4519 c9c3  y.LE.s.3.<O2E...
	0x0100:  84d5 bf09 f022 7aa1 5edb 1b5d 1282 3f69  ....."z.^..]..?i
	0x0110:  915a 25db 38cb 581f 101d cc78 c092 f71a  .Z%.8.X....x....
	0x0120:  cb14 ad94 a7af 6f09 853d af22 ab73 e6c8  ......o..=.".s..
	0x0130:  b706 d32d 9b75 8b5b 020a 1634 6851 3899  ...-.u.[...4hQ8.
	0x0140:  9452 78ad 2782 503e ccd8 2611 afe6 73bd  .Rx.'.P>..&...s.
	0x0150:  59bf 7c59 b57d e4ea a0d8 f2a3 8385 52dd  Y.|Y.}........R.
	0x0160:  3e75 f639 5dd1 95b1 fc6f f224 b243 af62  >u.9]....o.$.C.b
	0x0170:  8e47 c9b4 2d4a 0b21 6b54 2c99 1765 9f36  .G..-J.!kT,..e.6
	0x0180:  7b59 12f2 a809 5dd2 f8c7 34b6 71ed f428  {Y....]...4.q..(
	0x0190:  8a6d b062 1e50 f94d efce b139 053b 9826  .m.b.P.M...9.;.&
	0x01a0:  ff52 0b6b 45f0 0411 e22d 8e0e 2860 ed73  .R.kE....-..(`.s
	0x01b0:  bba0 2cc7 ec41 bf36 d134 86cc d6ce c172  ..,..A.6.4.....r
	0x01c0:  9d15 4929 e039 eb12 c594 908a 73c5 9e77  ..I).9......s..w
	0x01d0:  f6e8 ca6e f749 050d e950 af50 3168 6cb9  ...n.I...P.P1hl.
	0x01e0:  59ed dc7f 811a 53fd 6dd3 ccf8 15b8 7da6  Y.....S.m.....}.
	0x01f0:  0d42 9a52 f670 bb68 9fa2 77f5 a806 fa2a  .B.R.p.h..w....*
	0x0200:  c85a c764 314c 96af 181c ea40 07a4 e944  .Z.d1L.....@...D
	0x0210:  2947 fb5a 04f3 264d 615a b716 0989 08e4  )G.Z..&MaZ......
	0x0220:  efa6 fa81 50f6 4455 0799 47f9 0d6e f42d  ....P.DU..G..n.-
	0x0230:  c596 bdd6 6319 92c1 9481 def8 04c5 5f8b  ....c........._.
	0x0240:  46f1 a480 1e13 1992 6cd8 044e 6a32 dd5d  F.......l..Nj2.]
	0x0250:  0b72 3192 d2ac e674 fb90 a0f0 bbe2 9c1b  .r1....t........
	0x0260:  79e8 b21a 094b 5442 981c c14b 69be 5814  y....KTB...Ki.X.
	0x0270:  335b af47 2059 2cda 7a61 7bbe 8c68 aa    3[.G.Y,.za{..h.
19:58:08.273628 IP (tos 0x0, ttl 64, id 41245, offset 0, flags [DF], proto TCP (6), length 52)
    192.168.0.153.10000 > 192.168.0.152.50332: Flags [.], cksum 0x82a8 (incorrect -> 0xdb38), seq 981305356, ack 3806148191, win 522, options [nop,nop,TS val 403100 ecr 2981918502], length 0
	0x0000:  f45c 89ca ec57 944a 0c21 4719 8100 0002  .\...W.J.!G.....
	0x0010:  0800 4500 0034 a11d 4000 4006 1725 c0a8  ..E..4..@.@..%..
	0x0020:  0099 c0a8 0098 2710 c49c 3a7d 880c e2dd  ......'...:}....
	0x0030:  365f 8010 020a 82a8 0000 0101 080a 0006  6_..............
	0x0040:  269c b1bc 7726                           &...w&
19:58:08.279711 IP (tos 0x0, ttl 64, id 41246, offset 0, flags [DF], proto TCP (6), length 109)
    192.168.0.153.10000 > 192.168.0.152.50332: Flags [P.], cksum 0x82e1 (incorrect -> 0x4eac), seq 981305356:981305413, ack 3806148191, win 522, options [nop,nop,TS val 403101 ecr 2981918502], length 57
	0x0000:  f45c 89ca ec57 944a 0c21 4719 8100 0002  .\...W.J.!G.....
	0x0010:  0800 4500 006d a11e 4000 4006 16eb c0a8  ..E..m..@.@.....
	0x0020:  0099 c0a8 0098 2710 c49c 3a7d 880c e2dd  ......'...:}....
	0x0030:  365f 8018 020a 82e1 0000 0101 080a 0006  6_..............
	0x0040:  269d b1bc 7726 1703 0300 3495 60de 4718  &...w&....4.`.G.
	0x0050:  b1b4 b3a9 984a 060d 64d7 58eb f654 a4b3  .....J..d.X..T..
	0x0060:  7727 9c4a 1fcb 7dfb e5bd 0bea 74fe 7d78  w'.J..}.....t.}x
	0x0070:  3f17 8cac 9489 188a 7430 30dd 74fd 11    ?.......t00.t..
19:58:08.280036 IP (tos 0x0, ttl 64, id 41247, offset 0, flags [DF], proto TCP (6), length 52)
    192.168.0.153.10000 > 192.168.0.152.50332: Flags [F.], cksum 0x82a8 (incorrect -> 0xdafd), seq 981305413, ack 3806148191, win 522, options [nop,nop,TS val 403101 ecr 2981918502], length 0
	0x0000:  f45c 89ca ec57 944a 0c21 4719 8100 0002  .\...W.J.!G.....
	0x0010:  0800 4500 0034 a11f 4000 4006 1723 c0a8  ..E..4..@.@..#..
	0x0020:  0099 c0a8 0098 2710 c49c 3a7d 8845 e2dd  ......'...:}.E..
	0x0030:  365f 8011 020a 82a8 0000 0101 080a 0006  6_..............
	0x0040:  269d b1bc 7726                           &...w&
19:58:08.282742 IP (tos 0x0, ttl 64, id 6658, offset 0, flags [DF], proto TCP (6), length 52)
    192.168.0.152.50332 > 192.168.0.153.10000: Flags [.], cksum 0xccef (correct), seq 3806148191, ack 981305413, win 4111, options [nop,nop,TS val 2981918512 ecr 403101], length 0
	0x0000:  944a 0c21 4719 f45c 89ca ec57 8100 0002  .J.!G..\...W....
	0x0010:  0800 4500 0034 1a02 4000 4006 9e40 c0a8  ..E..4..@.@..@..
	0x0020:  0098 c0a8 0099 c49c 2710 e2dd 365f 3a7d  ........'...6_:}
	0x0030:  8845 8010 100f ccef 0000 0101 080a b1bc  .E..............
	0x0040:  7730 0006 269d                           w0..&.
19:58:08.283094 IP (tos 0x0, ttl 64, id 40746, offset 0, flags [DF], proto TCP (6), length 52)
    192.168.0.152.50332 > 192.168.0.153.10000: Flags [.], cksum 0xccee (correct), seq 3806148191, ack 981305414, win 4111, options [nop,nop,TS val 2981918512 ecr 403101], length 0
	0x0000:  944a 0c21 4719 f45c 89ca ec57 8100 0002  .J.!G..\...W....
	0x0010:  0800 4500 0034 9f2a 4000 4006 1918 c0a8  ..E..4.*@.@.....
	0x0020:  0098 c0a8 0099 c49c 2710 e2dd 365f 3a7d  ........'...6_:}
	0x0030:  8846 8010 100f ccee 0000 0101 080a b1bc  .F..............
	0x0040:  7730 0006 269d                           w0..&.
19:58:08.284800 IP (tos 0x0, ttl 64, id 4842, offset 0, flags [DF], proto TCP (6), length 52)
    192.168.0.152.50332 > 192.168.0.153.10000: Flags [F.], cksum 0xcceb (correct), seq 3806148191, ack 981305414, win 4111, options [nop,nop,TS val 2981918514 ecr 403101], length 0
	0x0000:  944a 0c21 4719 f45c 89ca ec57 8100 0002  .J.!G..\...W....
	0x0010:  0800 4500 0034 12ea 4000 4006 a558 c0a8  ..E..4..@.@..X..
	0x0020:  0098 c0a8 0099 c49c 2710 e2dd 365f 3a7d  ........'...6_:}
	0x0030:  8846 8011 100f cceb 0000 0101 080a b1bc  .F..............
	0x0040:  7732 0006 269d                           w2..&.
19:58:08.284986 IP (tos 0x0, ttl 64, id 0, offset 0, flags [DF], proto TCP (6), length 52)
    192.168.0.153.10000 > 192.168.0.152.50332: Flags [.], cksum 0xdaef (correct), seq 981305414, ack 3806148192, win 522, options [nop,nop,TS val 403102 ecr 2981918514], length 0
	0x0000:  f45c 89ca ec57 944a 0c21 4719 8100 0002  .\...W.J.!G.....
	0x0010:  0800 4500 0034 0000 4000 4006 b842 c0a8  ..E..4..@.@..B..
	0x0020:  0099 c0a8 0098 2710 c49c 3a7d 8846 e2dd  ......'...:}.F..
	0x0030:  3660 8010 020a daef 0000 0101 080a 0006  6`..............
	0x0040:  269e b1bc 7732                           &...w2

