
14:20:26.440913 IP (tos 0x0, ttl 52, id 42031, offset 0, flags [DF], proto TCP (6), length 64)
    109.228.177.89.41102 > 192.168.1.4.10000: Flags [S], cksum 0xc4e5 (correct), seq 3945365552, win 65535, options [mss 1460,nop,wscale 5,nop,nop,TS val 898246826 ecr 0,sackOK,eol], length 0
	0x0000:  e060 6614 5712 5046 5dd1 7508 8100 0002  .`f.W.PF].u.....
	0x0010:  0800 4500 0040 a42f 4000 3406 c19e 6de4  ..E..@./@.4...m.
	0x0020:  b159 c0a8 0104 a08e 2710 eb29 8030 0000  .Y......'..).0..
	0x0030:  0000 b002 ffff c4e5 0000 0204 05b4 0103  ................
	0x0040:  0305 0101 080a 358a 28aa 0000 0000 0402  ......5.(.......
	0x0050:  0000                                     ..
14:20:26.441178 IP (tos 0x0, ttl 64, id 0, offset 0, flags [DF], proto TCP (6), length 60)
    192.168.1.4.10000 > 109.228.177.89.41102: Flags [S.], cksum 0xe118 (incorrect -> 0xb79e), seq 4052300613, ack 3945365553, win 14480, options [mss 1460,sackOK,TS val 114906 ecr 898246826,nop,wscale 5], length 0
	0x0000:  5046 5dd1 7508 e060 6614 5712 8100 0002  PF].u..`f.W.....
	0x0010:  0800 4500 003c 0000 4000 4006 59d2 c0a8  ..E..<..@.@.Y...
	0x0020:  0104 6de4 b159 2710 a08e f189 3345 eb29  ..m..Y'.....3E.)
	0x0030:  8031 a012 3890 e118 0000 0204 05b4 0402  .1..8...........
	0x0040:  080a 0001 c0da 358a 28aa 0103 0305       ......5.(.....
14:20:26.463004 IP (tos 0x0, ttl 52, id 64632, offset 0, flags [DF], proto TCP (6), length 52)
    109.228.177.89.41102 > 192.168.1.4.10000: Flags [.], cksum 0x0ece (correct), seq 3945365553, ack 4052300614, win 4117, options [nop,nop,TS val 898246848 ecr 114906], length 0
	0x0000:  e060 6614 5712 5046 5dd1 7508 8100 0002  .`f.W.PF].u.....
	0x0010:  0800 4500 0034 fc78 4000 3406 6961 6de4  ..E..4.x@.4.iam.
	0x0020:  b159 c0a8 0104 a08e 2710 eb29 8031 f189  .Y......'..).1..
	0x0030:  3346 8010 1015 0ece 0000 0101 080a 358a  3F............5.
	0x0040:  28c0 0001 c0da                           (.....
14:20:26.464293 IP (tos 0x0, ttl 53, id 21615, offset 0, flags [DF], proto TCP (6), length 280)
    109.228.177.89.41102 > 192.168.1.4.10000: Flags [P.], cksum 0xea91 (correct), seq 3945365553:3945365781, ack 4052300614, win 4117, options [nop,nop,TS val 898246849 ecr 114906], length 228
	0x0000:  e060 6614 5712 5046 5dd1 7508 8100 0002  .`f.W.PF].u.....
	0x0010:  0800 4500 0118 546f 4000 3506 0f87 6de4  ..E...To@.5...m.
	0x0020:  b159 c0a8 0104 a08e 2710 eb29 8031 f189  .Y......'..).1..
	0x0030:  3346 8018 1015 ea91 0000 0101 080a 358a  3F............5.
	0x0040:  28c1 0001 c0da 1603 0300 df01 0000 db03  (...............
	0x0050:  0358 1b5e 1c80 6ecf 6bef 7487 1c3b 8ea2  .X.^..n.k.t..;..
	0x0060:  d3e0 ab92 9120 9966 32e1 920d 0373 d313  .......f2....s..
	0x0070:  2900 002c 00ff c02c c02b c024 c023 c00a  )..,...,.+.$.#..
	0x0080:  c009 c008 c030 c02f c028 c027 c014 c013  .....0./.(.'....
	0x0090:  c012 009d 009c 003d 003c 0035 002f 000a  .......=.<.5./..
	0x00a0:  0100 0086 0000 0011 000f 0000 0c38 322e  .............82.
	0x00b0:  3939 2e32 342e 3138 3300 0a00 0800 0600  99.24.183.......
	0x00c0:  1700 1800 1900 0b00 0201 0000 0d00 1200  ................
	0x00d0:  1004 0102 0105 0106 0104 0302 0305 0306  ................
	0x00e0:  0333 7400 0000 1000 3000 2e02 6832 0568  .3t.....0...h2.h
	0x00f0:  322d 3136 0568 322d 3135 0568 322d 3134  2-16.h2-15.h2-14
	0x0100:  0873 7064 792f 332e 3106 7370 6479 2f33  .spdy/3.1.spdy/3
	0x0110:  0868 7474 702f 312e 3100 0500 0501 0000  .http/1.1.......
	0x0120:  0000 0012 0000 0017 0000                 ..........
14:20:26.464465 IP (tos 0x0, ttl 64, id 62361, offset 0, flags [DF], proto TCP (6), length 52)
    192.168.1.4.10000 > 109.228.177.89.41102: Flags [.], cksum 0xe110 (incorrect -> 0x1c13), seq 4052300614, ack 3945365781, win 486, options [nop,nop,TS val 114911 ecr 898246849], length 0
	0x0000:  5046 5dd1 7508 e060 6614 5712 8100 0002  PF].u..`f.W.....
	0x0010:  0800 4500 0034 f399 4000 4006 6640 c0a8  ..E..4..@.@.f@..
	0x0020:  0104 6de4 b159 2710 a08e f189 3346 eb29  ..m..Y'.....3F.)
	0x0030:  8115 8010 01e6 e110 0000 0101 080a 0001  ................
	0x0040:  c0df 358a 28c1                           ..5.(.
14:20:26.469358 IP (tos 0x0, ttl 64, id 62362, offset 0, flags [DF], proto TCP (6), length 968)
    192.168.1.4.10000 > 109.228.177.89.41102: Flags [P.], cksum 0xe4a4 (incorrect -> 0x7e8e), seq 4052300614:4052301530, ack 3945365781, win 486, options [nop,nop,TS val 114913 ecr 898246849], length 916
	0x0000:  5046 5dd1 7508 e060 6614 5712 8100 0002  PF].u..`f.W.....
	0x0010:  0800 4500 03c8 f39a 4000 4006 62ab c0a8  ..E.....@.@.b...
	0x0020:  0104 6de4 b159 2710 a08e f189 3346 eb29  ..m..Y'.....3F.)
	0x0030:  8115 8018 01e6 e4a4 0000 0101 080a 0001  ................
	0x0040:  c0e1 358a 28c1 1603 0300 5102 0000 4d03  ..5.(.....Q...M.
	0x0050:  039b b51f 9289 8d79 eaf1 a18b a145 2110  .......y.....E!.
	0x0060:  7acb fc04 c5e6 c5b7 a461 ade8 097a b3c0  z........a...z..
	0x0070:  3a20 cba0 0bcd 61cc fc1d 8bdf 033d abbd  :.....a......=..
	0x0080:  6856 0f8c f718 507b eb27 34bf 262d b517  hV....P{.'4.&-..
	0x0090:  46a7 009d 0000 05ff 0100 0100 1603 0303  F...............
	0x00a0:  300b 0003 2c00 0329 0003 2630 8203 2230  0...,..)..&0.."0
	0x00b0:  8202 0a02 0900 d41f 0640 5afe 974d 300d  .........@Z..M0.
	0x00c0:  0609 2a86 4886 f70d 0101 0b05 0030 4731  ..*.H........0G1
	0x00d0:  0b30 0906 0355 0406 1302 5553 3113 3011  .0...U....US1.0.
	0x00e0:  0603 5504 080c 0a4e 6577 204a 6572 7365  ..U....New.Jerse
	0x00f0:  7931 0f30 0d06 0355 0407 0c06 4e65 7761  y1.0...U....Newa
	0x0100:  726b 3112 3010 0603 5504 0a0c 0950 616e  rk1.0...U....Pan
	0x0110:  6173 6f6e 6963 301e 170d 3136 3131 3031  asonic0...161101
	0x0120:  3135 3030 3433 5a17 0d32 3631 3033 3031  150043Z..2610301
	0x0130:  3530 3034 335a 305f 310b 3009 0603 5504  50043Z0_1.0...U.
	0x0140:  0613 0255 5331 1330 1106 0355 0408 0c0a  ...US1.0...U....
	0x0150:  4e65 7720 4a65 7273 6579 310f 300d 0603  New.Jersey1.0...
	0x0160:  5504 070c 064e 6577 6172 6b31 1230 1006  U....Newark1.0..
	0x0170:  0355 040a 0c09 5061 6e61 736f 6e69 6331  .U....Panasonic1
	0x0180:  1630 1406 0355 0403 0c0d 3139 322e 3136  .0...U....192.16
	0x0190:  382e 302e 3135 3330 8201 2230 0d06 092a  8.0.1530.."0...*
	0x01a0:  8648 86f7 0d01 0101 0500 0382 010f 0030  .H.............0
	0x01b0:  8201 0a02 8201 0100 ec25 a79f 83ec 71d2  .........%....q.
	0x01c0:  6554 117b bfa2 de10 ee20 567d 94d3 d8b6  eT.{......V}....
	0x01d0:  6f5f 7cc5 4528 2857 5726 2679 84ae fedd  o_|.E((WW&&y....
	0x01e0:  fe93 f596 bfd8 6ea9 d943 2d8e e80f 66b4  ......n..C-...f.
	0x01f0:  694e bc3f 4094 e2de 5e33 6f4c 5d2b 6a22  iN.?@...^3oL]+j"
	0x0200:  2845 26a6 8abc 1946 c271 d2ed a3eb dcbf  (E&....F.q......
	0x0210:  c191 8451 e99a 7f3a 207f 6173 2f72 acc6  ...Q...:..as/r..
	0x0220:  4efc 9103 53a5 6c0b 3769 48de 884b b291  N...S.l.7iH..K..
	0x0230:  f0fa dc91 d3c3 6cfa 4c13 2875 93b0 0528  ......l.L.(u...(
	0x0240:  65f5 b579 e3e7 f356 02be 7808 0634 bdbf  e..y...V..x..4..
	0x0250:  6572 74eb a070 0620 48fc fc3b 7988 ce63  ert..p..H..;y..c
	0x0260:  e464 259d 4034 d86b ad45 eda8 e34e 61e0  .d%.@4.k.E...Na.
	0x0270:  af8c 70fc adde 3a48 17de 5962 af4e 84ac  ..p...:H..Yb.N..
	0x0280:  3d8b 930b c7e1 cfe5 7296 3190 e445 1480  =.......r.1..E..
	0x0290:  c1d8 bb18 49a9 ec5f 5c6d ec31 ace6 3a67  ....I.._\m.1..:g
	0x02a0:  d9d1 0d5d d46d 18b1 3ec2 fb0c 7353 2b8b  ...].m..>...sS+.
	0x02b0:  0187 e890 63f9 2ef3 0203 0100 0130 0d06  ....c........0..
	0x02c0:  092a 8648 86f7 0d01 010b 0500 0382 0101  .*.H............
	0x02d0:  0074 fec8 91bf a802 0dfc 25c7 76cd fec4  .t........%.v...
	0x02e0:  e1cd 28df 84e5 12b0 3c2b d5fc d5b5 1d0f  ..(.....<+......
	0x02f0:  d6d1 91b9 2710 c053 6556 4f8c 07f2 9536  ....'..SeVO....6
	0x0300:  31cf bd33 6f41 52a4 1cf9 fb70 4439 75ee  1..3oAR....pD9u.
	0x0310:  9e97 8dbf f23d b164 76cb e7b3 50d3 fa30  .....=.dv...P..0
	0x0320:  9a9b 0ae3 157c 3578 ca92 2127 9abd 66ad  .....|5x..!'..f.
	0x0330:  e1fc 30ea 47d8 27f7 8c9a 5344 2bde e671  ..0.G.'...SD+..q
	0x0340:  abc8 118e 71a6 b9d6 cd94 0771 3de2 a767  ....q......q=..g
	0x0350:  fb41 6396 5336 d304 5d02 0f24 ef30 4772  .Ac.S6..]..$.0Gr
	0x0360:  a8e2 81f8 28ac bc83 f5fb 5b6a 49e8 04e2  ....(.....[jI...
	0x0370:  9fe5 6705 3410 6aa3 9ef2 1ea3 2ba4 84ce  ..g.4.j.....+...
	0x0380:  6546 0d5e ed73 5400 9fc6 e84b b216 07c0  eF.^.sT....K....
	0x0390:  4fa9 64df 6f7b 931c 72f4 1f3e bb9a 0f5f  O.d.o{..r..>..._
	0x03a0:  427f 788c 1eae e2b0 e2f9 9289 6cd7 148f  B.x.........l...
	0x03b0:  19ab f167 98a8 67a7 8e42 a4f0 6ab4 168f  ...g..g..B..j...
	0x03c0:  576e dc6b 8016 2aae 8c2e 3a72 9f34 be26  Wn.k..*...:r.4.&
	0x03d0:  c616 0303 0004 0e00 0000                 ..........
14:20:26.490645 IP (tos 0x0, ttl 53, id 14491, offset 0, flags [DF], proto TCP (6), length 52)
    109.228.177.89.41102 > 192.168.1.4.10000: Flags [.], cksum 0x0a50 (correct), seq 3945365781, ack 4052301530, win 4089, options [nop,nop,TS val 898246875 ecr 114913], length 0
	0x0000:  e060 6614 5712 5046 5dd1 7508 8100 0002  .`f.W.PF].u.....
	0x0010:  0800 4500 0034 389b 4000 3506 2c3f 6de4  ..E..48.@.5.,?m.
	0x0020:  b159 c0a8 0104 a08e 2710 eb29 8115 f189  .Y......'..)....
	0x0030:  36da 8010 0ff9 0a50 0000 0101 080a 358a  6......P......5.
	0x0040:  28db 0001 c0e1                           (.....
14:20:26.495902 IP (tos 0x0, ttl 53, id 44582, offset 0, flags [DF], proto TCP (6), length 319)
    109.228.177.89.41102 > 192.168.1.4.10000: Flags [.], cksum 0xc2ac (correct), seq 3945365781:3945366048, ack 4052301530, win 4096, options [nop,nop,TS val 898246880 ecr 114913], length 267
	0x0000:  e060 6614 5712 5046 5dd1 7508 8100 0002  .`f.W.PF].u.....
	0x0010:  0800 4500 013f ae26 4000 3506 b5a8 6de4  ..E..?.&@.5...m.
	0x0020:  b159 c0a8 0104 a08e 2710 eb29 8115 f189  .Y......'..)....
	0x0030:  36da 8010 1000 c2ac 0000 0101 080a 358a  6.............5.
	0x0040:  28e0 0001 c0e1 1603 0301 0610 0001 0201  (...............
	0x0050:  001c d93a 9332 800d 5e62 d1cb cf3e 8697  ...:.2..^b...>..
	0x0060:  b8ea 059d 207e 6c0a 1a83 9663 21e0 3732  .....~l....c!.72
	0x0070:  2c76 8ecc 5f8c 56cc 4d8a c415 345c 7725  ,v.._.V.M...4\w%
	0x0080:  38dc d4bc a3d2 4092 206c 780c a1a6 bb8a  8.....@..lx.....
	0x0090:  83d3 3cf1 3f3a fc99 08b9 3b14 b902 7640  ..<.?:....;...v@
	0x00a0:  7f16 712d 9dab 50a7 5c55 b34b 0b15 fb64  ..q-..P.\U.K...d
	0x00b0:  a436 d83f 39cd cfd0 d405 9abd 8ea9 1d4a  .6.?9..........J
	0x00c0:  0336 1a36 dc13 eb0b 0128 506a 801e 08ed  .6.6.....(Pj....
	0x00d0:  1ee6 de13 8380 cdd0 95e8 2d89 5099 ca26  ..........-.P..&
	0x00e0:  2a80 d432 8013 4547 efe2 22ca 3bba 8db1  *..2..EG..".;...
	0x00f0:  1e21 6bd4 85fa a4e2 86de 9998 7113 b389  .!k.........q...
	0x0100:  291c c2d7 ba90 906b 41e9 a990 e1b0 4e52  )......kA.....NR
	0x0110:  120c 9185 1300 e057 2ad8 e563 a0b0 f8be  .......W*..c....
	0x0120:  0e25 bab8 1e52 5a38 406f f253 f69a b8db  .%...RZ8@o.S....
	0x0130:  e453 364f 4e2e 8e77 9179 65d5 4163 71c3  .S6ON..w.ye.Acq.
	0x0140:  999a 1b08 0270 979a e521 a539 507a 3ea9  .....p...!.9Pz>.
	0x0150:  fc                                       .
14:20:26.495958 IP (tos 0x0, ttl 54, id 49679, offset 0, flags [DF], proto TCP (6), length 58)
    109.228.177.89.41102 > 192.168.1.4.10000: Flags [P.], cksum 0xf126 (correct), seq 3945366048:3945366054, ack 4052301530, win 4096, options [nop,nop,TS val 898246880 ecr 114913], length 6
	0x0000:  e060 6614 5712 5046 5dd1 7508 8100 0002  .`f.W.PF].u.....
	0x0010:  0800 4500 003a c20f 4000 3606 a1c4 6de4  ..E..:..@.6...m.
	0x0020:  b159 c0a8 0104 a08e 2710 eb29 8220 f189  .Y......'..)....
	0x0030:  36da 8018 1000 f126 0000 0101 080a 358a  6......&......5.
	0x0040:  28e0 0001 c0e1 1403 0300 0101            (...........
14:20:26.496126 IP (tos 0x0, ttl 53, id 13874, offset 0, flags [DF], proto TCP (6), length 97)
    109.228.177.89.41102 > 192.168.1.4.10000: Flags [P.], cksum 0x47b8 (correct), seq 3945366054:3945366099, ack 4052301530, win 4096, options [nop,nop,TS val 898246880 ecr 114913], length 45
	0x0000:  e060 6614 5712 5046 5dd1 7508 8100 0002  .`f.W.PF].u.....
	0x0010:  0800 4500 0061 3632 4000 3506 2e7b 6de4  ..E..a62@.5..{m.
	0x0020:  b159 c0a8 0104 a08e 2710 eb29 8226 f189  .Y......'..).&..
	0x0030:  36da 8018 1000 47b8 0000 0101 080a 358a  6.....G.......5.
	0x0040:  28e0 0001 c0e1 1603 0300 28fb cf6f 6490  (.........(..od.
	0x0050:  fcfb e934 31da 00fc 1700 66a6 921f b00a  ...41.....f.....
	0x0060:  d02b 965b d66b 6ef9 5d67 98dd 5231 87fb  .+.[.kn.]g..R1..
	0x0070:  ac10 4a                                  ..J
14:20:26.532890 IP (tos 0x0, ttl 64, id 62363, offset 0, flags [DF], proto TCP (6), length 52)
    192.168.1.4.10000 > 109.228.177.89.41102: Flags [.], cksum 0xe110 (incorrect -> 0x16ee), seq 4052301530, ack 3945366099, win 520, options [nop,nop,TS val 114929 ecr 898246880], length 0
	0x0000:  5046 5dd1 7508 e060 6614 5712 8100 0002  PF].u..`f.W.....
	0x0010:  0800 4500 0034 f39b 4000 4006 663e c0a8  ..E..4..@.@.f>..
	0x0020:  0104 6de4 b159 2710 a08e f189 36da eb29  ..m..Y'.....6..)
	0x0030:  8253 8010 0208 e110 0000 0101 080a 0001  .S..............
	0x0040:  c0f1 358a 28e0                           ..5.(.
14:20:26.668648 IP (tos 0x0, ttl 64, id 62364, offset 0, flags [DF], proto TCP (6), length 103)
    192.168.1.4.10000 > 109.228.177.89.41102: Flags [P.], cksum 0xe143 (incorrect -> 0x7bd1), seq 4052301530:4052301581, ack 3945366099, win 520, options [nop,nop,TS val 114962 ecr 898246880], length 51
	0x0000:  5046 5dd1 7508 e060 6614 5712 8100 0002  PF].u..`f.W.....
	0x0010:  0800 4500 0067 f39c 4000 4006 660a c0a8  ..E..g..@.@.f...
	0x0020:  0104 6de4 b159 2710 a08e f189 36da eb29  ..m..Y'.....6..)
	0x0030:  8253 8018 0208 e143 0000 0101 080a 0001  .S.....C........
	0x0040:  c112 358a 28e0 1403 0300 0101 1603 0300  ..5.(...........
	0x0050:  28bb 77e9 2a31 96fb 2344 27dd 73e9 064d  (.w.*1..#D'.s..M
	0x0060:  7d23 83da 13a9 dd5b 613e 78e9 6c2a 4c92  }#.....[a>x.l*L.
	0x0070:  9a04 4916 4997 83f6 0d                   ..I.I....
14:20:26.689652 IP (tos 0x0, ttl 53, id 51207, offset 0, flags [DF], proto TCP (6), length 52)
    109.228.177.89.41102 > 192.168.1.4.10000: Flags [.], cksum 0x07e5 (correct), seq 3945366099, ack 4052301581, win 4094, options [nop,nop,TS val 898247071 ecr 114962], length 0
	0x0000:  e060 6614 5712 5046 5dd1 7508 8100 0002  .`f.W.PF].u.....
	0x0010:  0800 4500 0034 c807 4000 3506 9cd2 6de4  ..E..4..@.5...m.
	0x0020:  b159 c0a8 0104 a08e 2710 eb29 8253 f189  .Y......'..).S..
	0x0030:  370d 8010 0ffe 07e5 0000 0101 080a 358a  7.............5.
	0x0040:  299f 0001 c112                           ).....
14:20:26.691150 IP (tos 0x0, ttl 53, id 59773, offset 0, flags [DF], proto TCP (6), length 478)
    109.228.177.89.41102 > 192.168.1.4.10000: Flags [.], cksum 0x4e5c (correct), seq 3945366099:3945366525, ack 4052301581, win 4096, options [nop,nop,TS val 898247072 ecr 114962], length 426
	0x0000:  e060 6614 5712 5046 5dd1 7508 8100 0002  .`f.W.PF].u.....
	0x0010:  0800 4500 01de e97d 4000 3506 79b2 6de4  ..E....}@.5.y.m.
	0x0020:  b159 c0a8 0104 a08e 2710 eb29 8253 f189  .Y......'..).S..
	0x0030:  370d 8010 1000 4e5c 0000 0101 080a 358a  7.....N\......5.
	0x0040:  29a0 0001 c112 1703 0301 a5fb cf6f 6490  )............od.
	0x0050:  fcfb eadb 44bc 9e2e f872 c9c8 5ccf b249  ....D....r..\..I
	0x0060:  037c 3a58 f1ec d86e 23ad 6ecc b7eb 54dd  .|:X...n#.n...T.
	0x0070:  e59c 9d9f e298 53aa cdc1 7063 7690 78f4  ......S...pcv.x.
	0x0080:  d64f eb39 3fd9 5c19 f4a7 3a92 0c5b 5a00  .O.9?.\...:..[Z.
	0x0090:  8911 dd35 e9de e335 2d79 7de4 0259 8321  ...5...5-y}..Y.!
	0x00a0:  4a41 5752 1bc3 c40d 1bd4 263e 0812 7a4e  JAWR......&>..zN
	0x00b0:  4975 3600 6502 9b2d 9f6c 8d61 b715 0f04  Iu6.e..-.l.a....
	0x00c0:  0746 4fdc 1579 89c4 d037 34bf bc6c 04cc  .FO..y...74..l..
	0x00d0:  7fed 699d 193d 0603 9e39 a331 a42b 2440  ..i..=...9.1.+$@
	0x00e0:  e202 3918 dc7c 1685 8e1c 200b c942 f178  ..9..|.......B.x
	0x00f0:  c626 6478 a38c 6e30 8a4a 3e73 8155 5e0b  .&dx..n0.J>s.U^.
	0x0100:  0aa6 c9a0 903b 5884 649d 8082 58e8 b9b9  .....;X.d...X...
	0x0110:  8401 3281 45d4 d56a 86f0 0f97 c457 ddad  ..2.E..j.....W..
	0x0120:  2ccf 58dc dd4e ced7 86e4 05d4 2573 cc87  ,.X..N......%s..
	0x0130:  1d1b 57a8 e832 6184 e4d6 f86c 729c 9b38  ..W..2a....lr..8
	0x0140:  7222 3fd3 34ac f76d 2e1a 7515 abe4 0ffb  r"?.4..m..u.....
	0x0150:  3a77 7950 b4c4 2bd4 261d 1db3 6e7c e3d9  :wyP..+.&...n|..
	0x0160:  6b33 998e 3473 ad87 21a7 8b5c 9445 f45c  k3..4s..!..\.E.\
	0x0170:  09c4 50bb 1a81 7100 479d f834 990e 5b4f  ..P...q.G..4..[O
	0x0180:  3f1d b6ac 9610 00b5 9b11 76b3 ef10 6a96  ?.........v...j.
	0x0190:  0760 4647 5360 b266 6e30 e4e4 32a7 7f51  .`FGS`.fn0..2..Q
	0x01a0:  1903 57e5 0ea9 4707 d774 6e86 627a c553  ..W...G..tn.bz.S
	0x01b0:  e2f6 6ce7 c01c 559d 00cc 393e 1639 beb9  ..l...U...9>.9..
	0x01c0:  81ca 7d3a 8a1a e0bf ea8c acc8 553e 86b1  ..}:........U>..
	0x01d0:  e6b0 4a73 fa40 cc15 5262 2093 a7be d740  ..Js.@..Rb.....@
	0x01e0:  b34c 20c3 14a9 af5f d48f 6f8c 6581 a5a8  .L....._..o.e...
14:20:26.691204 IP (tos 0x0, ttl 54, id 54057, offset 0, flags [DF], proto TCP (6), length 111)
    109.228.177.89.41102 > 192.168.1.4.10000: Flags [P.], cksum 0x1d79 (correct), seq 3945366525:3945366584, ack 4052301581, win 4096, options [nop,nop,TS val 898247072 ecr 114962], length 59
	0x0000:  e060 6614 5712 5046 5dd1 7508 8100 0002  .`f.W.PF].u.....
	0x0010:  0800 4500 006f d329 4000 3606 9075 6de4  ..E..o.)@.6..um.
	0x0020:  b159 c0a8 0104 a08e 2710 eb29 83fd f189  .Y......'..)....
	0x0030:  370d 8018 1000 1d79 0000 0101 080a 358a  7......y......5.
	0x0040:  29a0 0001 c112 1703 0300 36fb cf6f 6490  ).........6..od.
	0x0050:  fcfb ebef 39e0 8c2f 74b8 65d5 3c90 47c4  ....9../t.e.<.G.
	0x0060:  d614 116e 5170 11be dab1 6ef5 64ab 578d  ...nQp....n.d.W.
	0x0070:  92b6 2a8c e4f0 2f68 f3fd 5fa4 86a4 ea2a  ..*.../h.._....*
	0x0080:  6f                                       o
14:20:26.691278 IP (tos 0x0, ttl 64, id 62365, offset 0, flags [DF], proto TCP (6), length 52)
    192.168.1.4.10000 > 109.228.177.89.41102: Flags [.], cksum 0xe110 (incorrect -> 0x1409), seq 4052301581, ack 3945366525, win 553, options [nop,nop,TS val 114968 ecr 898247072], length 0
	0x0000:  5046 5dd1 7508 e060 6614 5712 8100 0002  PF].u..`f.W.....
	0x0010:  0800 4500 0034 f39d 4000 4006 663c c0a8  ..E..4..@.@.f<..
	0x0020:  0104 6de4 b159 2710 a08e f189 370d eb29  ..m..Y'.....7..)
	0x0030:  83fd 8010 0229 e110 0000 0101 080a 0001  .....)..........
	0x0040:  c118 358a 29a0                           ..5.).
14:20:26.691344 IP (tos 0x0, ttl 64, id 62366, offset 0, flags [DF], proto TCP (6), length 52)
    192.168.1.4.10000 > 109.228.177.89.41102: Flags [.], cksum 0xe110 (incorrect -> 0x13ce), seq 4052301581, ack 3945366584, win 553, options [nop,nop,TS val 114968 ecr 898247072], length 0
	0x0000:  5046 5dd1 7508 e060 6614 5712 8100 0002  PF].u..`f.W.....
	0x0010:  0800 4500 0034 f39e 4000 4006 663b c0a8  ..E..4..@.@.f;..
	0x0020:  0104 6de4 b159 2710 a08e f189 370d eb29  ..m..Y'.....7..)
	0x0030:  8438 8010 0229 e110 0000 0101 080a 0001  .8...)..........
	0x0040:  c118 358a 29a0                           ..5.).
14:20:26.698527 IP (tos 0x0, ttl 64, id 62367, offset 0, flags [DF], proto TCP (6), length 108)
    192.168.1.4.10000 > 109.228.177.89.41102: Flags [P.], cksum 0xe148 (incorrect -> 0x5b3c), seq 4052301581:4052301637, ack 3945366584, win 553, options [nop,nop,TS val 114970 ecr 898247072], length 56
	0x0000:  5046 5dd1 7508 e060 6614 5712 8100 0002  PF].u..`f.W.....
	0x0010:  0800 4500 006c f39f 4000 4006 6602 c0a8  ..E..l..@.@.f...
	0x0020:  0104 6de4 b159 2710 a08e f189 370d eb29  ..m..Y'.....7..)
	0x0030:  8438 8018 0229 e148 0000 0101 080a 0001  .8...).H........
	0x0040:  c11a 358a 29a0 1703 0300 33bb 77e9 2a31  ..5.).....3.w.*1
	0x0050:  96fb 24cf 5d37 093d b1af 4f0b 06f2 de13  ..$.]7.=..O.....
	0x0060:  a40e bd18 31d7 379e 24a2 f971 03d5 50d6  ....1.7.$..q..P.
	0x0070:  3792 e5e8 56eb 200b 1b2e e570 ee09       7...V......p..
14:20:26.699333 IP (tos 0x0, ttl 64, id 62368, offset 0, flags [DF], proto TCP (6), length 52)
    192.168.1.4.10000 > 109.228.177.89.41102: Flags [R.], cksum 0xe110 (incorrect -> 0x1390), seq 4052301637, ack 3945366584, win 553, options [nop,nop,TS val 114970 ecr 898247072], length 0
	0x0000:  5046 5dd1 7508 e060 6614 5712 8100 0002  PF].u..`f.W.....
	0x0010:  0800 4500 0034 f3a0 4000 4006 6639 c0a8  ..E..4..@.@.f9..
	0x0020:  0104 6de4 b159 2710 a08e f189 3745 eb29  ..m..Y'.....7E.)
	0x0030:  8438 8014 0229 e110 0000 0101 080a 0001  .8...)..........
	0x0040:  c11a 358a 29a0                           ..5.).
14:20:26.719882 IP (tos 0x0, ttl 52, id 52926, offset 0, flags [DF], proto TCP (6), length 52)
    109.228.177.89.41102 > 192.168.1.4.10000: Flags [.], cksum 0x05a4 (correct), seq 3945366584, ack 4052301637, win 4094, options [nop,nop,TS val 898247099 ecr 114970], length 0
	0x0000:  e060 6614 5712 5046 5dd1 7508 8100 0002  .`f.W.PF].u.....
	0x0010:  0800 4500 0034 cebe 4000 3406 971b 6de4  ..E..4..@.4...m.
	0x0020:  b159 c0a8 0104 a08e 2710 eb29 8438 f189  .Y......'..).8..
	0x0030:  3745 8010 0ffe 05a4 0000 0101 080a 358a  7E............5.
	0x0040:  29bb 0001 c11a                           ).....
14:20:26.720076 IP (tos 0x0, ttl 64, id 0, offset 0, flags [DF], proto TCP (6), length 40)
    192.168.1.4.10000 > 109.228.177.89.41102: Flags [R], cksum 0xde88 (correct), seq 4052301637, win 0, length 0
	0x0000:  5046 5dd1 7508 e060 6614 5712 8100 0002  PF].u..`f.W.....
	0x0010:  0800 4500 0028 0000 4000 4006 59e6 c0a8  ..E..(..@.@.Y...
	0x0020:  0104 6de4 b159 2710 a08e f189 3745 0000  ..m..Y'.....7E..
	0x0030:  0000 5004 0000 de88 0000                 ..P.......

