HTTP with BODY


16:53:02.756370 IP (tos 0x0, ttl 63, id 54323, offset 0, flags [DF], proto TCP (6), length 64)
    192.168.0.168.55908 > 192.168.0.153.10000: Flags [S], cksum 0xf25c (correct), seq 2999132838, win 65535, options [mss 1460,nop,wscale 5,nop,nop,TS val 3036755502 ecr 0,sackOK,eol], length 0
	0x0000:  944a 0c21 4719 586d 8ff9 0627 8100 0002  .J.!G.Xm...'....
	0x0010:  0800 4500 0040 d433 4000 3f06 e4f2 c0a8  ..E..@.3@.?.....
	0x0020:  00a8 c0a8 0099 da64 2710 b2c3 22a6 0000  .......d'..."...
	0x0030:  0000 b002 ffff f25c 0000 0204 05b4 0103  .......\........
	0x0040:  0305 0101 080a b501 362e 0000 0000 0402  ........6.......
	0x0050:  0000                                     ..
16:53:02.756575 IP (tos 0x0, ttl 64, id 0, offset 0, flags [DF], proto TCP (6), length 60)
    192.168.0.153.10000 > 192.168.0.168.55908: Flags [S.], cksum 0x82c0 (incorrect -> 0x1360), seq 1055705557, ack 2999132839, win 14480, options [mss 1460,sackOK,TS val 2403962 ecr 3036755502,nop,wscale 5], length 0
	0x0000:  586d 8ff9 0627 944a 0c21 4719 8100 0002  Xm...'.J.!G.....
	0x0010:  0800 4500 003c 0000 4000 4006 b82a c0a8  ..E..<..@.@..*..
	0x0020:  0099 c0a8 00a8 2710 da64 3eec c9d5 b2c3  ......'..d>.....
	0x0030:  22a7 a012 3890 82c0 0000 0204 05b4 0402  "...8...........
	0x0040:  080a 0024 ae7a b501 362e 0103 0305       ...$.z..6.....
16:53:02.758285 IP (tos 0x0, ttl 63, id 7157, offset 0, flags [DF], proto TCP (6), length 52)
    192.168.0.168.55908 > 192.168.0.153.10000: Flags [.], cksum 0x6aa4 (correct), seq 2999132839, ack 1055705558, win 4117, options [nop,nop,TS val 3036755503 ecr 2403962], length 0
	0x0000:  944a 0c21 4719 586d 8ff9 0627 8100 0002  .J.!G.Xm...'....
	0x0010:  0800 4500 0034 1bf5 4000 3f06 9d3d c0a8  ..E..4..@.?..=..
	0x0020:  00a8 c0a8 0099 da64 2710 b2c3 22a7 3eec  .......d'...".>.
	0x0030:  c9d6 8010 1015 6aa4 0000 0101 080a b501  ......j.........
	0x0040:  362f 0024 ae7a                           6/.$.z
16:53:02.758419 IP (tos 0x0, ttl 63, id 9919, offset 0, flags [DF], proto TCP (6), length 614)
    192.168.0.168.55908 > 192.168.0.153.10000: Flags [P.], cksum 0x5f01 (correct), seq 2999132839:2999133401, ack 1055705558, win 4117, options [nop,nop,TS val 3036755503 ecr 2403962], length 562
	0x0000:  944a 0c21 4719 586d 8ff9 0627 8100 0002  .J.!G.Xm...'....
	0x0010:  0800 4500 0266 26bf 4000 3f06 9041 c0a8  ..E..f&.@.?..A..
	0x0020:  00a8 c0a8 0099 da64 2710 b2c3 22a7 3eec  .......d'...".>.
	0x0030:  c9d6 8018 1015 5f01 0000 0101 080a b501  ......_.........
	0x0040:  362f 0024 ae7a 504f 5354 202f 2048 5454  6/.$.zPOST./.HTT
	0x0050:  502f 312e 310d 0a48 6f73 743a 2031 3932  P/1.1..Host:.192
	0x0060:  2e31 3638 2e30 2e31 3533 3a31 3030 3030  .168.0.153:10000
	0x0070:  0d0a 436f 6e6e 6563 7469 6f6e 3a20 6b65  ..Connection:.ke
	0x0080:  6570 2d61 6c69 7665 0d0a 436f 6e74 656e  ep-alive..Conten
	0x0090:  742d 4c65 6e67 7468 3a20 3437 0d0a 506f  t-Length:.47..Po
	0x00a0:  7374 6d61 6e2d 546f 6b65 6e3a 2039 3661  stman-Token:.96a
	0x00b0:  3631 3166 622d 3636 3631 2d36 3532 342d  611fb-6661-6524-
	0x00c0:  6364 3162 2d35 3363 3133 6138 6637 3134  cd1b-53c13a8f714
	0x00d0:  370d 0a43 6163 6865 2d43 6f6e 7472 6f6c  7..Cache-Control
	0x00e0:  3a20 6e6f 2d63 6163 6865 0d0a 4f72 6967  :.no-cache..Orig
	0x00f0:  696e 3a20 6368 726f 6d65 2d65 7874 656e  in:.chrome-exten
	0x0100:  7369 6f6e 3a2f 2f66 6862 6a67 6269 666c  sion://fhbjgbifl
	0x0110:  696e 6a62 6467 6765 6863 6464 6362 6e63  injbdggehcddcbnc
	0x0120:  6464 646f 6d6f 700d 0a55 7365 722d 4167  dddomop..User-Ag
	0x0130:  656e 743a 204d 6f7a 696c 6c61 2f35 2e30  ent:.Mozilla/5.0
	0x0140:  2028 4d61 6369 6e74 6f73 683b 2049 6e74  .(Macintosh;.Int
	0x0150:  656c 204d 6163 204f 5320 5820 3130 5f31  el.Mac.OS.X.10_1
	0x0160:  315f 3429 2041 7070 6c65 5765 624b 6974  1_4).AppleWebKit
	0x0170:  2f35 3337 2e33 3620 284b 4854 4d4c 2c20  /537.36.(KHTML,.
	0x0180:  6c69 6b65 2047 6563 6b6f 2920 4368 726f  like.Gecko).Chro
	0x0190:  6d65 2f35 342e 302e 3238 3430 2e35 3920  me/54.0.2840.59.
	0x01a0:  5361 6661 7269 2f35 3337 2e33 360d 0a43  Safari/537.36..C
	0x01b0:  6f6e 7465 6e74 2d54 7970 653a 2061 7070  ontent-Type:.app
	0x01c0:  6c69 6361 7469 6f6e 2f6a 736f 6e0d 0a41  lication/json..A
	0x01d0:  6363 6570 743a 202a 2f2a 0d0a 4163 6365  ccept:.*/*..Acce
	0x01e0:  7074 2d45 6e63 6f64 696e 673a 2067 7a69  pt-Encoding:.gzi
	0x01f0:  702c 2064 6566 6c61 7465 0d0a 4163 6365  p,.deflate..Acce
	0x0200:  7074 2d4c 616e 6775 6167 653a 2065 6e2d  pt-Language:.en-
	0x0210:  5553 2c65 6e3b 713d 302e 382c 7a68 2d43  US,en;q=0.8,zh-C
	0x0220:  4e3b 713d 302e 362c 7a68 3b71 3d30 2e34  N;q=0.6,zh;q=0.4
	0x0230:  2c7a 682d 5457 3b71 3d30 2e32 2c65 733b  ,zh-TW;q=0.2,es;
	0x0240:  713d 302e 320d 0a0d 0a7b 0a09 2261 6264  q=0.2....{.."abd
	0x0250:  223a 2261 7664 222c 0a09 2261 6263 6422  ":"avd",.."abcd"
	0x0260:  3a22 6176 6422 2c0a 0922 6162 6364 6522  :"avd",.."abcde"
	0x0270:  3a22 6176 6422 0a7d                      :"avd".}
16:53:02.758520 IP (tos 0x0, ttl 64, id 26541, offset 0, flags [DF], proto TCP (6), length 52)
    192.168.0.153.10000 > 192.168.0.168.55908: Flags [.], cksum 0x82b8 (incorrect -> 0x769e), seq 1055705558, ack 2999133401, win 488, options [nop,nop,TS val 2403963 ecr 3036755503], length 0
	0x0000:  586d 8ff9 0627 944a 0c21 4719 8100 0002  Xm...'.J.!G.....
	0x0010:  0800 4500 0034 67ad 4000 4006 5085 c0a8  ..E..4g.@.@.P...
	0x0020:  0099 c0a8 00a8 2710 da64 3eec c9d6 b2c3  ......'..d>.....
	0x0030:  24d9 8010 01e8 82b8 0000 0101 080a 0024  $..............$
	0x0040:  ae7b b501 362f                           .{..6/
16:53:02.772829 IP (tos 0x0, ttl 64, id 26542, offset 0, flags [DF], proto TCP (6), length 80)
    192.168.0.153.10000 > 192.168.0.168.55908: Flags [P.], cksum 0x82d4 (incorrect -> 0x648a), seq 1055705558:1055705586, ack 2999133401, win 488, options [nop,nop,TS val 2403966 ecr 3036755503], length 28
	0x0000:  586d 8ff9 0627 944a 0c21 4719 8100 0002  Xm...'.J.!G.....
	0x0010:  0800 4500 0050 67ae 4000 4006 5068 c0a8  ..E..Pg.@.@.Ph..
	0x0020:  0099 c0a8 00a8 2710 da64 3eec c9d6 b2c3  ......'..d>.....
	0x0030:  24d9 8018 01e8 82d4 0000 0101 080a 0024  $..............$
	0x0040:  ae7e b501 362f 4854 5450 2f31 2e31 2034  .~..6/HTTP/1.1.4
	0x0050:  3031 2055 6e61 7574 686f 7269 7a65 640d  01.Unauthorized.
	0x0060:  0a0a                                     ..
16:53:02.774540 IP (tos 0x0, ttl 63, id 61543, offset 0, flags [DF], proto TCP (6), length 52)
    192.168.0.168.55908 > 192.168.0.153.10000: Flags [.], cksum 0x6844 (correct), seq 2999133401, ack 1055705586, win 4116, options [nop,nop,TS val 3036755518 ecr 2403966], length 0
	0x0000:  944a 0c21 4719 586d 8ff9 0627 8100 0002  .J.!G.Xm...'....
	0x0010:  0800 4500 0034 f067 4000 3f06 c8ca c0a8  ..E..4.g@.?.....
	0x0020:  00a8 c0a8 0099 da64 2710 b2c3 24d9 3eec  .......d'...$.>.
	0x0030:  c9f2 8010 1014 6844 0000 0101 080a b501  ......hD........
	0x0040:  363e 0024 ae7e                           6>.$.~
16:53:02.775080 IP (tos 0x0, ttl 64, id 26543, offset 0, flags [DF], proto TCP (6), length 52)
    192.168.0.153.10000 > 192.168.0.168.55908: Flags [F.], cksum 0x82b8 (incorrect -> 0x766e), seq 1055705586, ack 2999133401, win 488, options [nop,nop,TS val 2403967 ecr 3036755518], length 0
	0x0000:  586d 8ff9 0627 944a 0c21 4719 8100 0002  Xm...'.J.!G.....
	0x0010:  0800 4500 0034 67af 4000 4006 5083 c0a8  ..E..4g.@.@.P...
	0x0020:  0099 c0a8 00a8 2710 da64 3eec c9f2 b2c3  ......'..d>.....
	0x0030:  24d9 8011 01e8 82b8 0000 0101 080a 0024  $..............$
	0x0040:  ae7f b501 363e                           ....6>
16:53:02.776219 IP (tos 0x0, ttl 63, id 36523, offset 0, flags [DF], proto TCP (6), length 52)
    192.168.0.168.55908 > 192.168.0.153.10000: Flags [.], cksum 0x6841 (correct), seq 2999133401, ack 1055705587, win 4116, options [nop,nop,TS val 3036755519 ecr 2403967], length 0
	0x0000:  944a 0c21 4719 586d 8ff9 0627 8100 0002  .J.!G.Xm...'....
	0x0010:  0800 4500 0034 8eab 4000 3f06 2a87 c0a8  ..E..4..@.?.*...
	0x0020:  00a8 c0a8 0099 da64 2710 b2c3 24d9 3eec  .......d'...$.>.
	0x0030:  c9f3 8010 1014 6841 0000 0101 080a b501  ......hA........
	0x0040:  363f 0024 ae7f                           6?.$..
16:53:02.776360 IP (tos 0x0, ttl 63, id 2727, offset 0, flags [DF], proto TCP (6), length 52)
    192.168.0.168.55908 > 192.168.0.153.10000: Flags [F.], cksum 0x6840 (correct), seq 2999133401, ack 1055705587, win 4116, options [nop,nop,TS val 3036755519 ecr 2403967], length 0
	0x0000:  944a 0c21 4719 586d 8ff9 0627 8100 0002  .J.!G.Xm...'....
	0x0010:  0800 4500 0034 0aa7 4000 3f06 ae8b c0a8  ..E..4..@.?.....
	0x0020:  00a8 c0a8 0099 da64 2710 b2c3 24d9 3eec  .......d'...$.>.
	0x0030:  c9f3 8011 1014 6840 0000 0101 080a b501  ......h@........
	0x0040:  363f 0024 ae7f                           6?.$..
16:53:02.776506 IP (tos 0x0, ttl 64, id 0, offset 0, flags [DF], proto TCP (6), length 52)
    192.168.0.153.10000 > 192.168.0.168.55908: Flags [.], cksum 0x766c (correct), seq 1055705587, ack 2999133402, win 488, options [nop,nop,TS val 2403967 ecr 3036755519], length 0
	0x0000:  586d 8ff9 0627 944a 0c21 4719 8100 0002  Xm...'.J.!G.....
	0x0010:  0800 4500 0034 0000 4000 4006 b832 c0a8  ..E..4..@.@..2..
	0x0020:  0099 c0a8 00a8 2710 da64 3eec c9f3 b2c3  ......'..d>.....
	0x0030:  24da 8010 01e8 766c 0000 0101 080a 0024  $.....vl.......$
	0x0040:  ae7f b501 363f                           ....6?


