HTTP without BODY

16:52:06.965521 IP (tos 0x0, ttl 63, id 20436, offset 0, flags [DF], proto TCP (6), length 64)
    192.168.0.168.55903 > 192.168.0.153.10000: Flags [S], cksum 0x2d4e (correct), seq 3849621132, win 65535, options [mss 1460,nop,wscale 5,nop,nop,TS val 3036699819 ecr 0,sackOK,eol], length 0
	0x0000:  944a 0c21 4719 586d 8ff9 0627 8100 0002  .J.!G.Xm...'....
	0x0010:  0800 4500 0040 4fd4 4000 3f06 6952 c0a8  ..E..@O.@.?.iR..
	0x0020:  00a8 c0a8 0099 da5f 2710 e574 8e8c 0000  ......._'..t....
	0x0030:  0000 b002 ffff 2d4e 0000 0204 05b4 0103  ......-N........
	0x0040:  0305 0101 080a b500 5cab 0000 0000 0402  ........\.......
	0x0050:  0000                                     ..
16:52:06.965753 IP (tos 0x0, ttl 64, id 0, offset 0, flags [DF], proto TCP (6), length 60)
    192.168.0.153.10000 > 192.168.0.168.55903: Flags [S.], cksum 0x82c0 (incorrect -> 0x32d8), seq 71456372, ack 3849621133, win 14480, options [mss 1460,sackOK,TS val 2390015 ecr 3036699819,nop,wscale 5], length 0
	0x0000:  586d 8ff9 0627 944a 0c21 4719 8100 0002  Xm...'.J.!G.....
	0x0010:  0800 4500 003c 0000 4000 4006 b82a c0a8  ..E..<..@.@..*..
	0x0020:  0099 c0a8 00a8 2710 da5f 0442 5674 e574  ......'.._.BVt.t
	0x0030:  8e8d a012 3890 82c0 0000 0204 05b4 0402  ....8...........
	0x0040:  080a 0024 77ff b500 5cab 0103 0305       ...$w...\.....
16:52:06.966986 IP (tos 0x0, ttl 63, id 55955, offset 0, flags [DF], proto TCP (6), length 52)
    192.168.0.168.55903 > 192.168.0.153.10000: Flags [.], cksum 0x8a1c (correct), seq 3849621133, ack 71456373, win 4117, options [nop,nop,TS val 3036699820 ecr 2390015], length 0
	0x0000:  944a 0c21 4719 586d 8ff9 0627 8100 0002  .J.!G.Xm...'....
	0x0010:  0800 4500 0034 da93 4000 3f06 de9e c0a8  ..E..4..@.?.....
	0x0020:  00a8 c0a8 0099 da5f 2710 e574 8e8d 0442  ......._'..t...B
	0x0030:  5675 8010 1015 8a1c 0000 0101 080a b500  Vu..............
	0x0040:  5cac 0024 77ff                           \..$w.
16:52:06.967141 IP (tos 0x0, ttl 63, id 52706, offset 0, flags [DF], proto TCP (6), length 566)
    192.168.0.168.55903 > 192.168.0.153.10000: Flags [P.], cksum 0x4bc6 (correct), seq 3849621133:3849621647, ack 71456373, win 4117, options [nop,nop,TS val 3036699820 ecr 2390015], length 514
	0x0000:  944a 0c21 4719 586d 8ff9 0627 8100 0002  .J.!G.Xm...'....
	0x0010:  0800 4500 0236 cde2 4000 3f06 e94d c0a8  ..E..6..@.?..M..
	0x0020:  00a8 c0a8 0099 da5f 2710 e574 8e8d 0442  ......._'..t...B
	0x0030:  5675 8018 1015 4bc6 0000 0101 080a b500  Vu....K.........
	0x0040:  5cac 0024 77ff 504f 5354 202f 2048 5454  \..$w.POST./.HTT
	0x0050:  502f 312e 310d 0a48 6f73 743a 2031 3932  P/1.1..Host:.192
	0x0060:  2e31 3638 2e30 2e31 3533 3a31 3030 3030  .168.0.153:10000
	0x0070:  0d0a 436f 6e6e 6563 7469 6f6e 3a20 6b65  ..Connection:.ke
	0x0080:  6570 2d61 6c69 7665 0d0a 436f 6e74 656e  ep-alive..Conten
	0x0090:  742d 4c65 6e67 7468 3a20 300d 0a50 6f73  t-Length:.0..Pos
	0x00a0:  746d 616e 2d54 6f6b 656e 3a20 3335 6135  tman-Token:.35a5
	0x00b0:  6463 6236 2d66 6631 392d 6139 3163 2d63  dcb6-ff19-a91c-c
	0x00c0:  3333 362d 3232 3036 3261 6236 6536 3036  336-22062ab6e606
	0x00d0:  0d0a 4361 6368 652d 436f 6e74 726f 6c3a  ..Cache-Control:
	0x00e0:  206e 6f2d 6361 6368 650d 0a4f 7269 6769  .no-cache..Origi
	0x00f0:  6e3a 2063 6872 6f6d 652d 6578 7465 6e73  n:.chrome-extens
	0x0100:  696f 6e3a 2f2f 6668 626a 6762 6966 6c69  ion://fhbjgbifli
	0x0110:  6e6a 6264 6767 6568 6364 6463 626e 6364  njbdggehcddcbncd
	0x0120:  6464 6f6d 6f70 0d0a 5573 6572 2d41 6765  ddomop..User-Age
	0x0130:  6e74 3a20 4d6f 7a69 6c6c 612f 352e 3020  nt:.Mozilla/5.0.
	0x0140:  284d 6163 696e 746f 7368 3b20 496e 7465  (Macintosh;.Inte
	0x0150:  6c20 4d61 6320 4f53 2058 2031 305f 3131  l.Mac.OS.X.10_11
	0x0160:  5f34 2920 4170 706c 6557 6562 4b69 742f  _4).AppleWebKit/
	0x0170:  3533 372e 3336 2028 4b48 544d 4c2c 206c  537.36.(KHTML,.l
	0x0180:  696b 6520 4765 636b 6f29 2043 6872 6f6d  ike.Gecko).Chrom
	0x0190:  652f 3534 2e30 2e32 3834 302e 3539 2053  e/54.0.2840.59.S
	0x01a0:  6166 6172 692f 3533 372e 3336 0d0a 436f  afari/537.36..Co
	0x01b0:  6e74 656e 742d 5479 7065 3a20 6170 706c  ntent-Type:.appl
	0x01c0:  6963 6174 696f 6e2f 6a73 6f6e 0d0a 4163  ication/json..Ac
	0x01d0:  6365 7074 3a20 2a2f 2a0d 0a41 6363 6570  cept:.*/*..Accep
	0x01e0:  742d 456e 636f 6469 6e67 3a20 677a 6970  t-Encoding:.gzip
	0x01f0:  2c20 6465 666c 6174 650d 0a41 6363 6570  ,.deflate..Accep
	0x0200:  742d 4c61 6e67 7561 6765 3a20 656e 2d55  t-Language:.en-U
	0x0210:  532c 656e 3b71 3d30 2e38 2c7a 682d 434e  S,en;q=0.8,zh-CN
	0x0220:  3b71 3d30 2e36 2c7a 683b 713d 302e 342c  ;q=0.6,zh;q=0.4,
	0x0230:  7a68 2d54 573b 713d 302e 322c 6573 3b71  zh-TW;q=0.2,es;q
	0x0240:  3d30 2e32 0d0a 0d0a                      =0.2....
16:52:06.967242 IP (tos 0x0, ttl 64, id 8586, offset 0, flags [DF], proto TCP (6), length 52)
    192.168.0.153.10000 > 192.168.0.168.55903: Flags [.], cksum 0x82b8 (incorrect -> 0x9649), seq 71456373, ack 3849621647, win 486, options [nop,nop,TS val 2390015 ecr 3036699820], length 0
	0x0000:  586d 8ff9 0627 944a 0c21 4719 8100 0002  Xm...'.J.!G.....
	0x0010:  0800 4500 0034 218a 4000 4006 96a8 c0a8  ..E..4!.@.@.....
	0x0020:  0099 c0a8 00a8 2710 da5f 0442 5675 e574  ......'.._.BVu.t
	0x0030:  908f 8010 01e6 82b8 0000 0101 080a 0024  ...............$
	0x0040:  77ff b500 5cac                           w...\.
16:52:06.981392 IP (tos 0x0, ttl 64, id 8587, offset 0, flags [DF], proto TCP (6), length 80)
    192.168.0.153.10000 > 192.168.0.168.55903: Flags [P.], cksum 0x82d4 (incorrect -> 0x8434), seq 71456373:71456401, ack 3849621647, win 486, options [nop,nop,TS val 2390019 ecr 3036699820], length 28
	0x0000:  586d 8ff9 0627 944a 0c21 4719 8100 0002  Xm...'.J.!G.....
	0x0010:  0800 4500 0050 218b 4000 4006 968b c0a8  ..E..P!.@.@.....
	0x0020:  0099 c0a8 00a8 2710 da5f 0442 5675 e574  ......'.._.BVu.t
	0x0030:  908f 8018 01e6 82d4 0000 0101 080a 0024  ...............$
	0x0040:  7803 b500 5cac 4854 5450 2f31 2e31 2034  x...\.HTTP/1.1.4
	0x0050:  3031 2055 6e61 7574 686f 7269 7a65 640d  01.Unauthorized.
	0x0060:  0a0a                                     ..
16:52:06.982560 IP (tos 0x0, ttl 63, id 35039, offset 0, flags [DF], proto TCP (6), length 52)
    192.168.0.168.55903 > 192.168.0.153.10000: Flags [.], cksum 0x87ed (correct), seq 3849621647, ack 71456401, win 4116, options [nop,nop,TS val 3036699834 ecr 2390019], length 0
	0x0000:  944a 0c21 4719 586d 8ff9 0627 8100 0002  .J.!G.Xm...'....
	0x0010:  0800 4500 0034 88df 4000 3f06 3053 c0a8  ..E..4..@.?.0S..
	0x0020:  00a8 c0a8 0099 da5f 2710 e574 908f 0442  ......._'..t...B
	0x0030:  5691 8010 1014 87ed 0000 0101 080a b500  V...............
	0x0040:  5cba 0024 7803                           \..$x.
16:52:06.983857 IP (tos 0x0, ttl 64, id 8588, offset 0, flags [DF], proto TCP (6), length 52)
    192.168.0.153.10000 > 192.168.0.168.55903: Flags [F.], cksum 0x82b8 (incorrect -> 0x961a), seq 71456401, ack 3849621647, win 486, options [nop,nop,TS val 2390019 ecr 3036699834], length 0
	0x0000:  586d 8ff9 0627 944a 0c21 4719 8100 0002  Xm...'.J.!G.....
	0x0010:  0800 4500 0034 218c 4000 4006 96a6 c0a8  ..E..4!.@.@.....
	0x0020:  0099 c0a8 00a8 2710 da5f 0442 5691 e574  ......'.._.BV..t
	0x0030:  908f 8011 01e6 82b8 0000 0101 080a 0024  ...............$
	0x0040:  7803 b500 5cba                           x...\.
16:52:06.985047 IP (tos 0x0, ttl 63, id 40876, offset 0, flags [DF], proto TCP (6), length 52)
    192.168.0.168.55903 > 192.168.0.153.10000: Flags [.], cksum 0x87ea (correct), seq 3849621647, ack 71456402, win 4116, options [nop,nop,TS val 3036699836 ecr 2390019], length 0
	0x0000:  944a 0c21 4719 586d 8ff9 0627 8100 0002  .J.!G.Xm...'....
	0x0010:  0800 4500 0034 9fac 4000 3f06 1986 c0a8  ..E..4..@.?.....
	0x0020:  00a8 c0a8 0099 da5f 2710 e574 908f 0442  ......._'..t...B
	0x0030:  5692 8010 1014 87ea 0000 0101 080a b500  V...............
	0x0040:  5cbc 0024 7803                           \..$x.
16:52:06.985214 IP (tos 0x0, ttl 63, id 41051, offset 0, flags [DF], proto TCP (6), length 52)
    192.168.0.168.55903 > 192.168.0.153.10000: Flags [F.], cksum 0x87e9 (correct), seq 3849621647, ack 71456402, win 4116, options [nop,nop,TS val 3036699836 ecr 2390019], length 0
	0x0000:  944a 0c21 4719 586d 8ff9 0627 8100 0002  .J.!G.Xm...'....
	0x0010:  0800 4500 0034 a05b 4000 3f06 18d7 c0a8  ..E..4.[@.?.....
	0x0020:  00a8 c0a8 0099 da5f 2710 e574 908f 0442  ......._'..t...B
	0x0030:  5692 8011 1014 87e9 0000 0101 080a b500  V...............
	0x0040:  5cbc 0024 7803                           \..$x.
16:52:06.985366 IP (tos 0x0, ttl 64, id 0, offset 0, flags [DF], proto TCP (6), length 52)
    192.168.0.153.10000 > 192.168.0.168.55903: Flags [.], cksum 0x9616 (correct), seq 71456402, ack 3849621648, win 486, options [nop,nop,TS val 2390020 ecr 3036699836], length 0
	0x0000:  586d 8ff9 0627 944a 0c21 4719 8100 0002  Xm...'.J.!G.....
	0x0010:  0800 4500 0034 0000 4000 4006 b832 c0a8  ..E..4..@.@..2..
	0x0020:  0099 c0a8 00a8 2710 da5f 0442 5692 e574  ......'.._.BV..t
	0x0030:  9090 8010 01e6 9616 0000 0101 080a 0024  ...............$
	0x0040:  7804 b500 5cbc          
